{
	"solidity/0.8.17/003-PrimitiveDataTypes/PrimitiveDataTypes.sol": {
		"PrimitiveDataTypes": {
			"abi": [
				{
					"inputs": [],
					"name": "addr",
					"outputs": [
						{
							"internalType": "address",
							"name": "",
							"type": "address"
						}
					],
					"stateMutability": "view",
					"type": "function"
				},
				{
					"inputs": [],
					"name": "boo",
					"outputs": [
						{
							"internalType": "bool",
							"name": "",
							"type": "bool"
						}
					],
					"stateMutability": "view",
					"type": "function"
				},
				{
					"inputs": [],
					"name": "defaultAddress",
					"outputs": [
						{
							"internalType": "address",
							"name": "",
							"type": "address"
						}
					],
					"stateMutability": "view",
					"type": "function"
				},
				{
					"inputs": [],
					"name": "defaultBoo",
					"outputs": [
						{
							"internalType": "bool",
							"name": "",
							"type": "bool"
						}
					],
					"stateMutability": "view",
					"type": "function"
				},
				{
					"inputs": [],
					"name": "defaultInt",
					"outputs": [
						{
							"internalType": "int256",
							"name": "",
							"type": "int256"
						}
					],
					"stateMutability": "view",
					"type": "function"
				},
				{
					"inputs": [],
					"name": "defaultUnit",
					"outputs": [
						{
							"internalType": "uint256",
							"name": "",
							"type": "uint256"
						}
					],
					"stateMutability": "view",
					"type": "function"
				},
				{
					"inputs": [],
					"name": "i",
					"outputs": [
						{
							"internalType": "int256",
							"name": "",
							"type": "int256"
						}
					],
					"stateMutability": "view",
					"type": "function"
				},
				{
					"inputs": [],
					"name": "i256",
					"outputs": [
						{
							"internalType": "int256",
							"name": "",
							"type": "int256"
						}
					],
					"stateMutability": "view",
					"type": "function"
				},
				{
					"inputs": [],
					"name": "i8",
					"outputs": [
						{
							"internalType": "int8",
							"name": "",
							"type": "int8"
						}
					],
					"stateMutability": "view",
					"type": "function"
				},
				{
					"inputs": [],
					"name": "maxInt",
					"outputs": [
						{
							"internalType": "int256",
							"name": "",
							"type": "int256"
						}
					],
					"stateMutability": "view",
					"type": "function"
				},
				{
					"inputs": [],
					"name": "minInt",
					"outputs": [
						{
							"internalType": "int256",
							"name": "",
							"type": "int256"
						}
					],
					"stateMutability": "view",
					"type": "function"
				},
				{
					"inputs": [],
					"name": "u",
					"outputs": [
						{
							"internalType": "uint256",
							"name": "",
							"type": "uint256"
						}
					],
					"stateMutability": "view",
					"type": "function"
				},
				{
					"inputs": [],
					"name": "u256",
					"outputs": [
						{
							"internalType": "uint256",
							"name": "",
							"type": "uint256"
						}
					],
					"stateMutability": "view",
					"type": "function"
				},
				{
					"inputs": [],
					"name": "u8",
					"outputs": [
						{
							"internalType": "uint8",
							"name": "",
							"type": "uint8"
						}
					],
					"stateMutability": "view",
					"type": "function"
				}
			],
			"devdoc": {
				"kind": "dev",
				"methods": {},
				"version": 1
			},
			"evm": {
				"assembly": "    /* \"solidity/0.8.17/003-PrimitiveDataTypes/PrimitiveDataTypes.sol\":120:1962  contract PrimitiveDataTypes {... */\n  mstore(0x40, 0x80)\n    /* \"solidity/0.8.17/003-PrimitiveDataTypes/PrimitiveDataTypes.sol\":177:181  true */\n  0x01\n    /* \"solidity/0.8.17/003-PrimitiveDataTypes/PrimitiveDataTypes.sol\":159:181  bool public boo = true */\n  0x00\n  dup1\n  0x0100\n  exp\n  dup2\n  sload\n  dup2\n  0xff\n  mul\n  not\n  and\n  swap1\n  dup4\n  iszero\n  iszero\n  mul\n  or\n  swap1\n  sstore\n  pop\n    /* \"solidity/0.8.17/003-PrimitiveDataTypes/PrimitiveDataTypes.sol\":504:505  1 */\n  0x01\n    /* \"solidity/0.8.17/003-PrimitiveDataTypes/PrimitiveDataTypes.sol\":486:505  uint8 public u8 = 1 */\n  0x00\n  exp(0x0100, 0x01)\n  dup2\n  sload\n  dup2\n  0xff\n  mul\n  not\n  and\n  swap1\n  dup4\n  0xff\n  and\n  mul\n  or\n  swap1\n  sstore\n  pop\n    /* \"solidity/0.8.17/003-PrimitiveDataTypes/PrimitiveDataTypes.sol\":530:533  234 */\n  0xea\n    /* \"solidity/0.8.17/003-PrimitiveDataTypes/PrimitiveDataTypes.sol\":511:533  uint public u256 = 234 */\n  0x01\n  sstore\n    /* \"solidity/0.8.17/003-PrimitiveDataTypes/PrimitiveDataTypes.sol\":555:558  123 */\n  0x7b\n    /* \"solidity/0.8.17/003-PrimitiveDataTypes/PrimitiveDataTypes.sol\":539:558  uint public u = 123 */\n  0x02\n  sstore\n    /* \"solidity/0.8.17/003-PrimitiveDataTypes/PrimitiveDataTypes.sol\":864:865  1 */\n  0x01\n    /* \"solidity/0.8.17/003-PrimitiveDataTypes/PrimitiveDataTypes.sol\":847:865  int8 public i8 = 1 */\n  0x03\n  exp(0x0100, 0x00)\n  dup2\n  sload\n  dup2\n  0xff\n  mul\n  not\n  and\n  swap1\n  dup4\n  0x00\n  signextend\n  0xff\n  and\n  mul\n  or\n  swap1\n  sstore\n  pop\n    /* \"solidity/0.8.17/003-PrimitiveDataTypes/PrimitiveDataTypes.sol\":889:892  256 */\n  0x0100\n    /* \"solidity/0.8.17/003-PrimitiveDataTypes/PrimitiveDataTypes.sol\":871:892  int public i256 = 256 */\n  0x04\n  sstore\n    /* \"solidity/0.8.17/003-PrimitiveDataTypes/PrimitiveDataTypes.sol\":913:917  -123 */\n  0xffffffffffffffffffffffffffffffffffffffffffffffffffffffffffffff85\n    /* \"solidity/0.8.17/003-PrimitiveDataTypes/PrimitiveDataTypes.sol\":898:917  int public i = -123 */\n  0x05\n  sstore\n    /* \"solidity/0.8.17/003-PrimitiveDataTypes/PrimitiveDataTypes.sol\":977:990  type(int).min */\n  0x8000000000000000000000000000000000000000000000000000000000000000\n    /* \"solidity/0.8.17/003-PrimitiveDataTypes/PrimitiveDataTypes.sol\":957:990  int public minInt = type(int).min */\n  0x06\n  sstore\n    /* \"solidity/0.8.17/003-PrimitiveDataTypes/PrimitiveDataTypes.sol\":1101:1114  type(int).max */\n  0x7fffffffffffffffffffffffffffffffffffffffffffffffffffffffffffffff\n    /* \"solidity/0.8.17/003-PrimitiveDataTypes/PrimitiveDataTypes.sol\":1081:1114  int public maxInt = type(int).max */\n  0x07\n  sstore\n    /* \"solidity/0.8.17/003-PrimitiveDataTypes/PrimitiveDataTypes.sol\":1227:1269  0xCA35b7d915458EF540aDe6068dFe2F44E8fa733c */\n  0xca35b7d915458ef540ade6068dfe2f44e8fa733c\n    /* \"solidity/0.8.17/003-PrimitiveDataTypes/PrimitiveDataTypes.sol\":1205:1269  address public addr = 0xCA35b7d915458EF540aDe6068dFe2F44E8fa733c */\n  0x08\n  exp(0x0100, 0x00)\n  dup2\n  sload\n  dup2\n  0xffffffffffffffffffffffffffffffffffffffff\n  mul\n  not\n  and\n  swap1\n  dup4\n  0xffffffffffffffffffffffffffffffffffffffff\n  and\n  mul\n  or\n  swap1\n  sstore\n  pop\n    /* \"solidity/0.8.17/003-PrimitiveDataTypes/PrimitiveDataTypes.sol\":1625:1629  0xb5 */\n  0xb5\n    /* \"solidity/0.8.17/003-PrimitiveDataTypes/PrimitiveDataTypes.sol\":1614:1629  bytes1 a = 0xb5 */\n  0xf8\n  shl\n  0x08\n  exp(0x0100, 0x14)\n  dup2\n  sload\n  dup2\n  0xff\n  mul\n  not\n  and\n  swap1\n  dup4\n  0xf8\n  shr\n  mul\n  or\n  swap1\n  sstore\n  pop\n    /* \"solidity/0.8.17/003-PrimitiveDataTypes/PrimitiveDataTypes.sol\":1646:1650  0x56 */\n  0x56\n    /* \"solidity/0.8.17/003-PrimitiveDataTypes/PrimitiveDataTypes.sol\":1635:1650  bytes1 b = 0x56 */\n  0xf8\n  shl\n  0x08\n  exp(0x0100, 0x15)\n  dup2\n  sload\n  dup2\n  0xff\n  mul\n  not\n  and\n  swap1\n  dup4\n  0xf8\n  shr\n  mul\n  or\n  swap1\n  sstore\n  pop\n    /* \"solidity/0.8.17/003-PrimitiveDataTypes/PrimitiveDataTypes.sol\":120:1962  contract PrimitiveDataTypes {... */\n  callvalue\n  dup1\n  iszero\n  tag_1\n  jumpi\n  0x00\n  dup1\n  revert\ntag_1:\n  pop\n  dataSize(sub_0)\n  dup1\n  dataOffset(sub_0)\n  0x00\n  codecopy\n  0x00\n  return\nstop\n\nsub_0: assembly {\n        /* \"solidity/0.8.17/003-PrimitiveDataTypes/PrimitiveDataTypes.sol\":120:1962  contract PrimitiveDataTypes {... */\n      mstore(0x40, 0x80)\n      callvalue\n      dup1\n      iszero\n      tag_1\n      jumpi\n      0x00\n      dup1\n      revert\n    tag_1:\n      pop\n      jumpi(tag_2, lt(calldatasize, 0x04))\n      shr(0xe0, calldataload(0x00))\n      dup1\n      0x767800de\n      gt\n      tag_17\n      jumpi\n      dup1\n      0x921cda74\n      gt\n      tag_18\n      jumpi\n      dup1\n      0x921cda74\n      eq\n      tag_13\n      jumpi\n      dup1\n      0xab3a58a3\n      eq\n      tag_14\n      jumpi\n      dup1\n      0xc6a898c5\n      eq\n      tag_15\n      jumpi\n      dup1\n      0xe5aa3d58\n      eq\n      tag_16\n      jumpi\n      jump(tag_2)\n    tag_18:\n      dup1\n      0x767800de\n      eq\n      tag_10\n      jumpi\n      dup1\n      0x7a4c2571\n      eq\n      tag_11\n      jumpi\n      dup1\n      0x7e4e14cc\n      eq\n      tag_12\n      jumpi\n      jump(tag_2)\n    tag_17:\n      dup1\n      0x4b3df200\n      gt\n      tag_19\n      jumpi\n      dup1\n      0x4b3df200\n      eq\n      tag_6\n      jumpi\n      dup1\n      0x4c27fd62\n      eq\n      tag_7\n      jumpi\n      dup1\n      0x5abe622b\n      eq\n      tag_8\n      jumpi\n      dup1\n      0x5c101693\n      eq\n      tag_9\n      jumpi\n      jump(tag_2)\n    tag_19:\n      dup1\n      0x074eef3f\n      eq\n      tag_3\n      jumpi\n      dup1\n      0x0ce04043\n      eq\n      tag_4\n      jumpi\n      dup1\n      0x459b1acf\n      eq\n      tag_5\n      jumpi\n    tag_2:\n      0x00\n      dup1\n      revert\n        /* \"solidity/0.8.17/003-PrimitiveDataTypes/PrimitiveDataTypes.sol\":1755:1777  bool public defaultBoo */\n    tag_3:\n      tag_20\n      tag_21\n      jump\t// in\n    tag_20:\n      mload(0x40)\n      tag_22\n      swap2\n      swap1\n      tag_23\n      jump\t// in\n    tag_22:\n      mload(0x40)\n      dup1\n      swap2\n      sub\n      swap1\n      return\n        /* \"solidity/0.8.17/003-PrimitiveDataTypes/PrimitiveDataTypes.sol\":1800:1823  uint public defaultUnit */\n    tag_4:\n      tag_24\n      tag_25\n      jump\t// in\n    tag_24:\n      mload(0x40)\n      tag_26\n      swap2\n      swap1\n      tag_27\n      jump\t// in\n    tag_26:\n      mload(0x40)\n      dup1\n      swap2\n      sub\n      swap1\n      return\n        /* \"solidity/0.8.17/003-PrimitiveDataTypes/PrimitiveDataTypes.sol\":511:533  uint public u256 = 234 */\n    tag_5:\n      tag_28\n      tag_29\n      jump\t// in\n    tag_28:\n      mload(0x40)\n      tag_30\n      swap2\n      swap1\n      tag_27\n      jump\t// in\n    tag_30:\n      mload(0x40)\n      dup1\n      swap2\n      sub\n      swap1\n      return\n        /* \"solidity/0.8.17/003-PrimitiveDataTypes/PrimitiveDataTypes.sol\":159:181  bool public boo = true */\n    tag_6:\n      tag_31\n      tag_32\n      jump\t// in\n    tag_31:\n      mload(0x40)\n      tag_33\n      swap2\n      swap1\n      tag_23\n      jump\t// in\n    tag_33:\n      mload(0x40)\n      dup1\n      swap2\n      sub\n      swap1\n      return\n        /* \"solidity/0.8.17/003-PrimitiveDataTypes/PrimitiveDataTypes.sol\":871:892  int public i256 = 256 */\n    tag_7:\n      tag_34\n      tag_35\n      jump\t// in\n    tag_34:\n      mload(0x40)\n      tag_36\n      swap2\n      swap1\n      tag_37\n      jump\t// in\n    tag_36:\n      mload(0x40)\n      dup1\n      swap2\n      sub\n      swap1\n      return\n        /* \"solidity/0.8.17/003-PrimitiveDataTypes/PrimitiveDataTypes.sol\":1841:1862  int public defaultInt */\n    tag_8:\n      tag_38\n      tag_39\n      jump\t// in\n    tag_38:\n      mload(0x40)\n      tag_40\n      swap2\n      swap1\n      tag_37\n      jump\t// in\n    tag_40:\n      mload(0x40)\n      dup1\n      swap2\n      sub\n      swap1\n      return\n        /* \"solidity/0.8.17/003-PrimitiveDataTypes/PrimitiveDataTypes.sol\":1882:1911  address public defaultAddress */\n    tag_9:\n      tag_41\n      tag_42\n      jump\t// in\n    tag_41:\n      mload(0x40)\n      tag_43\n      swap2\n      swap1\n      tag_44\n      jump\t// in\n    tag_43:\n      mload(0x40)\n      dup1\n      swap2\n      sub\n      swap1\n      return\n        /* \"solidity/0.8.17/003-PrimitiveDataTypes/PrimitiveDataTypes.sol\":1205:1269  address public addr = 0xCA35b7d915458EF540aDe6068dFe2F44E8fa733c */\n    tag_10:\n      tag_45\n      tag_46\n      jump\t// in\n    tag_45:\n      mload(0x40)\n      tag_47\n      swap2\n      swap1\n      tag_44\n      jump\t// in\n    tag_47:\n      mload(0x40)\n      dup1\n      swap2\n      sub\n      swap1\n      return\n        /* \"solidity/0.8.17/003-PrimitiveDataTypes/PrimitiveDataTypes.sol\":1081:1114  int public maxInt = type(int).max */\n    tag_11:\n      tag_48\n      tag_49\n      jump\t// in\n    tag_48:\n      mload(0x40)\n      tag_50\n      swap2\n      swap1\n      tag_37\n      jump\t// in\n    tag_50:\n      mload(0x40)\n      dup1\n      swap2\n      sub\n      swap1\n      return\n        /* \"solidity/0.8.17/003-PrimitiveDataTypes/PrimitiveDataTypes.sol\":957:990  int public minInt = type(int).min */\n    tag_12:\n      tag_51\n      tag_52\n      jump\t// in\n    tag_51:\n      mload(0x40)\n      tag_53\n      swap2\n      swap1\n      tag_37\n      jump\t// in\n    tag_53:\n      mload(0x40)\n      dup1\n      swap2\n      sub\n      swap1\n      return\n        /* \"solidity/0.8.17/003-PrimitiveDataTypes/PrimitiveDataTypes.sol\":847:865  int8 public i8 = 1 */\n    tag_13:\n      tag_54\n      tag_55\n      jump\t// in\n    tag_54:\n      mload(0x40)\n      tag_56\n      swap2\n      swap1\n      tag_57\n      jump\t// in\n    tag_56:\n      mload(0x40)\n      dup1\n      swap2\n      sub\n      swap1\n      return\n        /* \"solidity/0.8.17/003-PrimitiveDataTypes/PrimitiveDataTypes.sol\":486:505  uint8 public u8 = 1 */\n    tag_14:\n      tag_58\n      tag_59\n      jump\t// in\n    tag_58:\n      mload(0x40)\n      tag_60\n      swap2\n      swap1\n      tag_61\n      jump\t// in\n    tag_60:\n      mload(0x40)\n      dup1\n      swap2\n      sub\n      swap1\n      return\n        /* \"solidity/0.8.17/003-PrimitiveDataTypes/PrimitiveDataTypes.sol\":539:558  uint public u = 123 */\n    tag_15:\n      tag_62\n      tag_63\n      jump\t// in\n    tag_62:\n      mload(0x40)\n      tag_64\n      swap2\n      swap1\n      tag_27\n      jump\t// in\n    tag_64:\n      mload(0x40)\n      dup1\n      swap2\n      sub\n      swap1\n      return\n        /* \"solidity/0.8.17/003-PrimitiveDataTypes/PrimitiveDataTypes.sol\":898:917  int public i = -123 */\n    tag_16:\n      tag_65\n      tag_66\n      jump\t// in\n    tag_65:\n      mload(0x40)\n      tag_67\n      swap2\n      swap1\n      tag_37\n      jump\t// in\n    tag_67:\n      mload(0x40)\n      dup1\n      swap2\n      sub\n      swap1\n      return\n        /* \"solidity/0.8.17/003-PrimitiveDataTypes/PrimitiveDataTypes.sol\":1755:1777  bool public defaultBoo */\n    tag_21:\n      0x08\n      0x16\n      swap1\n      sload\n      swap1\n      0x0100\n      exp\n      swap1\n      div\n      0xff\n      and\n      dup2\n      jump\t// out\n        /* \"solidity/0.8.17/003-PrimitiveDataTypes/PrimitiveDataTypes.sol\":1800:1823  uint public defaultUnit */\n    tag_25:\n      sload(0x09)\n      dup2\n      jump\t// out\n        /* \"solidity/0.8.17/003-PrimitiveDataTypes/PrimitiveDataTypes.sol\":511:533  uint public u256 = 234 */\n    tag_29:\n      sload(0x01)\n      dup2\n      jump\t// out\n        /* \"solidity/0.8.17/003-PrimitiveDataTypes/PrimitiveDataTypes.sol\":159:181  bool public boo = true */\n    tag_32:\n      0x00\n      dup1\n      sload\n      swap1\n      0x0100\n      exp\n      swap1\n      div\n      0xff\n      and\n      dup2\n      jump\t// out\n        /* \"solidity/0.8.17/003-PrimitiveDataTypes/PrimitiveDataTypes.sol\":871:892  int public i256 = 256 */\n    tag_35:\n      sload(0x04)\n      dup2\n      jump\t// out\n        /* \"solidity/0.8.17/003-PrimitiveDataTypes/PrimitiveDataTypes.sol\":1841:1862  int public defaultInt */\n    tag_39:\n      sload(0x0a)\n      dup2\n      jump\t// out\n        /* \"solidity/0.8.17/003-PrimitiveDataTypes/PrimitiveDataTypes.sol\":1882:1911  address public defaultAddress */\n    tag_42:\n      0x0b\n      0x00\n      swap1\n      sload\n      swap1\n      0x0100\n      exp\n      swap1\n      div\n      0xffffffffffffffffffffffffffffffffffffffff\n      and\n      dup2\n      jump\t// out\n        /* \"solidity/0.8.17/003-PrimitiveDataTypes/PrimitiveDataTypes.sol\":1205:1269  address public addr = 0xCA35b7d915458EF540aDe6068dFe2F44E8fa733c */\n    tag_46:\n      0x08\n      0x00\n      swap1\n      sload\n      swap1\n      0x0100\n      exp\n      swap1\n      div\n      0xffffffffffffffffffffffffffffffffffffffff\n      and\n      dup2\n      jump\t// out\n        /* \"solidity/0.8.17/003-PrimitiveDataTypes/PrimitiveDataTypes.sol\":1081:1114  int public maxInt = type(int).max */\n    tag_49:\n      sload(0x07)\n      dup2\n      jump\t// out\n        /* \"solidity/0.8.17/003-PrimitiveDataTypes/PrimitiveDataTypes.sol\":957:990  int public minInt = type(int).min */\n    tag_52:\n      sload(0x06)\n      dup2\n      jump\t// out\n        /* \"solidity/0.8.17/003-PrimitiveDataTypes/PrimitiveDataTypes.sol\":847:865  int8 public i8 = 1 */\n    tag_55:\n      0x03\n      0x00\n      swap1\n      sload\n      swap1\n      0x0100\n      exp\n      swap1\n      div\n      0x00\n      signextend\n      dup2\n      jump\t// out\n        /* \"solidity/0.8.17/003-PrimitiveDataTypes/PrimitiveDataTypes.sol\":486:505  uint8 public u8 = 1 */\n    tag_59:\n      0x00\n      0x01\n      swap1\n      sload\n      swap1\n      0x0100\n      exp\n      swap1\n      div\n      0xff\n      and\n      dup2\n      jump\t// out\n        /* \"solidity/0.8.17/003-PrimitiveDataTypes/PrimitiveDataTypes.sol\":539:558  uint public u = 123 */\n    tag_63:\n      sload(0x02)\n      dup2\n      jump\t// out\n        /* \"solidity/0.8.17/003-PrimitiveDataTypes/PrimitiveDataTypes.sol\":898:917  int public i = -123 */\n    tag_66:\n      sload(0x05)\n      dup2\n      jump\t// out\n        /* \"#utility.yul\":7:125   */\n    tag_69:\n        /* \"#utility.yul\":94:118   */\n      tag_71\n        /* \"#utility.yul\":112:117   */\n      dup2\n        /* \"#utility.yul\":94:118   */\n      tag_72\n      jump\t// in\n    tag_71:\n        /* \"#utility.yul\":89:92   */\n      dup3\n        /* \"#utility.yul\":82:119   */\n      mstore\n        /* \"#utility.yul\":7:125   */\n      pop\n      pop\n      jump\t// out\n        /* \"#utility.yul\":131:240   */\n    tag_73:\n        /* \"#utility.yul\":212:233   */\n      tag_75\n        /* \"#utility.yul\":227:232   */\n      dup2\n        /* \"#utility.yul\":212:233   */\n      tag_76\n      jump\t// in\n    tag_75:\n        /* \"#utility.yul\":207:210   */\n      dup3\n        /* \"#utility.yul\":200:234   */\n      mstore\n        /* \"#utility.yul\":131:240   */\n      pop\n      pop\n      jump\t// out\n        /* \"#utility.yul\":246:361   */\n    tag_77:\n        /* \"#utility.yul\":331:354   */\n      tag_79\n        /* \"#utility.yul\":348:353   */\n      dup2\n        /* \"#utility.yul\":331:354   */\n      tag_80\n      jump\t// in\n    tag_79:\n        /* \"#utility.yul\":326:329   */\n      dup3\n        /* \"#utility.yul\":319:355   */\n      mstore\n        /* \"#utility.yul\":246:361   */\n      pop\n      pop\n      jump\t// out\n        /* \"#utility.yul\":367:476   */\n    tag_81:\n        /* \"#utility.yul\":448:469   */\n      tag_83\n        /* \"#utility.yul\":463:468   */\n      dup2\n        /* \"#utility.yul\":448:469   */\n      tag_84\n      jump\t// in\n    tag_83:\n        /* \"#utility.yul\":443:446   */\n      dup3\n        /* \"#utility.yul\":436:470   */\n      mstore\n        /* \"#utility.yul\":367:476   */\n      pop\n      pop\n      jump\t// out\n        /* \"#utility.yul\":482:600   */\n    tag_85:\n        /* \"#utility.yul\":569:593   */\n      tag_87\n        /* \"#utility.yul\":587:592   */\n      dup2\n        /* \"#utility.yul\":569:593   */\n      tag_88\n      jump\t// in\n    tag_87:\n        /* \"#utility.yul\":564:567   */\n      dup3\n        /* \"#utility.yul\":557:594   */\n      mstore\n        /* \"#utility.yul\":482:600   */\n      pop\n      pop\n      jump\t// out\n        /* \"#utility.yul\":606:718   */\n    tag_89:\n        /* \"#utility.yul\":689:711   */\n      tag_91\n        /* \"#utility.yul\":705:710   */\n      dup2\n        /* \"#utility.yul\":689:711   */\n      tag_92\n      jump\t// in\n    tag_91:\n        /* \"#utility.yul\":684:687   */\n      dup3\n        /* \"#utility.yul\":677:712   */\n      mstore\n        /* \"#utility.yul\":606:718   */\n      pop\n      pop\n      jump\t// out\n        /* \"#utility.yul\":724:946   */\n    tag_44:\n        /* \"#utility.yul\":817:821   */\n      0x00\n        /* \"#utility.yul\":855:857   */\n      0x20\n        /* \"#utility.yul\":844:853   */\n      dup3\n        /* \"#utility.yul\":840:858   */\n      add\n        /* \"#utility.yul\":832:858   */\n      swap1\n      pop\n        /* \"#utility.yul\":868:939   */\n      tag_94\n        /* \"#utility.yul\":936:937   */\n      0x00\n        /* \"#utility.yul\":925:934   */\n      dup4\n        /* \"#utility.yul\":921:938   */\n      add\n        /* \"#utility.yul\":912:918   */\n      dup5\n        /* \"#utility.yul\":868:939   */\n      tag_69\n      jump\t// in\n    tag_94:\n        /* \"#utility.yul\":724:946   */\n      swap3\n      swap2\n      pop\n      pop\n      jump\t// out\n        /* \"#utility.yul\":952:1162   */\n    tag_23:\n        /* \"#utility.yul\":1039:1043   */\n      0x00\n        /* \"#utility.yul\":1077:1079   */\n      0x20\n        /* \"#utility.yul\":1066:1075   */\n      dup3\n        /* \"#utility.yul\":1062:1080   */\n      add\n        /* \"#utility.yul\":1054:1080   */\n      swap1\n      pop\n        /* \"#utility.yul\":1090:1155   */\n      tag_96\n        /* \"#utility.yul\":1152:1153   */\n      0x00\n        /* \"#utility.yul\":1141:1150   */\n      dup4\n        /* \"#utility.yul\":1137:1154   */\n      add\n        /* \"#utility.yul\":1128:1134   */\n      dup5\n        /* \"#utility.yul\":1090:1155   */\n      tag_73\n      jump\t// in\n    tag_96:\n        /* \"#utility.yul\":952:1162   */\n      swap3\n      swap2\n      pop\n      pop\n      jump\t// out\n        /* \"#utility.yul\":1168:1386   */\n    tag_37:\n        /* \"#utility.yul\":1259:1263   */\n      0x00\n        /* \"#utility.yul\":1297:1299   */\n      0x20\n        /* \"#utility.yul\":1286:1295   */\n      dup3\n        /* \"#utility.yul\":1282:1300   */\n      add\n        /* \"#utility.yul\":1274:1300   */\n      swap1\n      pop\n        /* \"#utility.yul\":1310:1379   */\n      tag_98\n        /* \"#utility.yul\":1376:1377   */\n      0x00\n        /* \"#utility.yul\":1365:1374   */\n      dup4\n        /* \"#utility.yul\":1361:1378   */\n      add\n        /* \"#utility.yul\":1352:1358   */\n      dup5\n        /* \"#utility.yul\":1310:1379   */\n      tag_77\n      jump\t// in\n    tag_98:\n        /* \"#utility.yul\":1168:1386   */\n      swap3\n      swap2\n      pop\n      pop\n      jump\t// out\n        /* \"#utility.yul\":1392:1602   */\n    tag_57:\n        /* \"#utility.yul\":1479:1483   */\n      0x00\n        /* \"#utility.yul\":1517:1519   */\n      0x20\n        /* \"#utility.yul\":1506:1515   */\n      dup3\n        /* \"#utility.yul\":1502:1520   */\n      add\n        /* \"#utility.yul\":1494:1520   */\n      swap1\n      pop\n        /* \"#utility.yul\":1530:1595   */\n      tag_100\n        /* \"#utility.yul\":1592:1593   */\n      0x00\n        /* \"#utility.yul\":1581:1590   */\n      dup4\n        /* \"#utility.yul\":1577:1594   */\n      add\n        /* \"#utility.yul\":1568:1574   */\n      dup5\n        /* \"#utility.yul\":1530:1595   */\n      tag_81\n      jump\t// in\n    tag_100:\n        /* \"#utility.yul\":1392:1602   */\n      swap3\n      swap2\n      pop\n      pop\n      jump\t// out\n        /* \"#utility.yul\":1608:1830   */\n    tag_27:\n        /* \"#utility.yul\":1701:1705   */\n      0x00\n        /* \"#utility.yul\":1739:1741   */\n      0x20\n        /* \"#utility.yul\":1728:1737   */\n      dup3\n        /* \"#utility.yul\":1724:1742   */\n      add\n        /* \"#utility.yul\":1716:1742   */\n      swap1\n      pop\n        /* \"#utility.yul\":1752:1823   */\n      tag_102\n        /* \"#utility.yul\":1820:1821   */\n      0x00\n        /* \"#utility.yul\":1809:1818   */\n      dup4\n        /* \"#utility.yul\":1805:1822   */\n      add\n        /* \"#utility.yul\":1796:1802   */\n      dup5\n        /* \"#utility.yul\":1752:1823   */\n      tag_85\n      jump\t// in\n    tag_102:\n        /* \"#utility.yul\":1608:1830   */\n      swap3\n      swap2\n      pop\n      pop\n      jump\t// out\n        /* \"#utility.yul\":1836:2050   */\n    tag_61:\n        /* \"#utility.yul\":1925:1929   */\n      0x00\n        /* \"#utility.yul\":1963:1965   */\n      0x20\n        /* \"#utility.yul\":1952:1961   */\n      dup3\n        /* \"#utility.yul\":1948:1966   */\n      add\n        /* \"#utility.yul\":1940:1966   */\n      swap1\n      pop\n        /* \"#utility.yul\":1976:2043   */\n      tag_104\n        /* \"#utility.yul\":2040:2041   */\n      0x00\n        /* \"#utility.yul\":2029:2038   */\n      dup4\n        /* \"#utility.yul\":2025:2042   */\n      add\n        /* \"#utility.yul\":2016:2022   */\n      dup5\n        /* \"#utility.yul\":1976:2043   */\n      tag_89\n      jump\t// in\n    tag_104:\n        /* \"#utility.yul\":1836:2050   */\n      swap3\n      swap2\n      pop\n      pop\n      jump\t// out\n        /* \"#utility.yul\":2056:2152   */\n    tag_72:\n        /* \"#utility.yul\":2093:2100   */\n      0x00\n        /* \"#utility.yul\":2122:2146   */\n      tag_106\n        /* \"#utility.yul\":2140:2145   */\n      dup3\n        /* \"#utility.yul\":2122:2146   */\n      tag_107\n      jump\t// in\n    tag_106:\n        /* \"#utility.yul\":2111:2146   */\n      swap1\n      pop\n        /* \"#utility.yul\":2056:2152   */\n      swap2\n      swap1\n      pop\n      jump\t// out\n        /* \"#utility.yul\":2158:2248   */\n    tag_76:\n        /* \"#utility.yul\":2192:2199   */\n      0x00\n        /* \"#utility.yul\":2235:2240   */\n      dup2\n        /* \"#utility.yul\":2228:2241   */\n      iszero\n        /* \"#utility.yul\":2221:2242   */\n      iszero\n        /* \"#utility.yul\":2210:2242   */\n      swap1\n      pop\n        /* \"#utility.yul\":2158:2248   */\n      swap2\n      swap1\n      pop\n      jump\t// out\n        /* \"#utility.yul\":2254:2330   */\n    tag_80:\n        /* \"#utility.yul\":2290:2297   */\n      0x00\n        /* \"#utility.yul\":2319:2324   */\n      dup2\n        /* \"#utility.yul\":2308:2324   */\n      swap1\n      pop\n        /* \"#utility.yul\":2254:2330   */\n      swap2\n      swap1\n      pop\n      jump\t// out\n        /* \"#utility.yul\":2336:2425   */\n    tag_84:\n        /* \"#utility.yul\":2370:2377   */\n      0x00\n        /* \"#utility.yul\":2413:2418   */\n      dup2\n        /* \"#utility.yul\":2410:2411   */\n      0x00\n        /* \"#utility.yul\":2399:2419   */\n      signextend\n        /* \"#utility.yul\":2388:2419   */\n      swap1\n      pop\n        /* \"#utility.yul\":2336:2425   */\n      swap2\n      swap1\n      pop\n      jump\t// out\n        /* \"#utility.yul\":2431:2557   */\n    tag_107:\n        /* \"#utility.yul\":2468:2475   */\n      0x00\n        /* \"#utility.yul\":2508:2550   */\n      0xffffffffffffffffffffffffffffffffffffffff\n        /* \"#utility.yul\":2501:2506   */\n      dup3\n        /* \"#utility.yul\":2497:2551   */\n      and\n        /* \"#utility.yul\":2486:2551   */\n      swap1\n      pop\n        /* \"#utility.yul\":2431:2557   */\n      swap2\n      swap1\n      pop\n      jump\t// out\n        /* \"#utility.yul\":2563:2640   */\n    tag_88:\n        /* \"#utility.yul\":2600:2607   */\n      0x00\n        /* \"#utility.yul\":2629:2634   */\n      dup2\n        /* \"#utility.yul\":2618:2634   */\n      swap1\n      pop\n        /* \"#utility.yul\":2563:2640   */\n      swap2\n      swap1\n      pop\n      jump\t// out\n        /* \"#utility.yul\":2646:2732   */\n    tag_92:\n        /* \"#utility.yul\":2681:2688   */\n      0x00\n        /* \"#utility.yul\":2721:2725   */\n      0xff\n        /* \"#utility.yul\":2714:2719   */\n      dup3\n        /* \"#utility.yul\":2710:2726   */\n      and\n        /* \"#utility.yul\":2699:2726   */\n      swap1\n      pop\n        /* \"#utility.yul\":2646:2732   */\n      swap2\n      swap1\n      pop\n      jump\t// out\n\n    auxdata: 0xa2646970667358221220dc475372611db7256bb64dd5a45db710b567e42b23cdc3985fea22e8363c9cc264736f6c63430008070033\n}\n",
				"bytecode": {
					"linkReferences": {},
					"object": "608060405260016000806101000a81548160ff0219169083151502179055506001600060016101000a81548160ff021916908360ff16021790555060ea600155607b6002556001600360006101000a81548160ff021916908360000b60ff1602179055506101006004557fffffffffffffffffffffffffffffffffffffffffffffffffffffffffffffff856005557f80000000000000000000000000000000000000000000000000000000000000006006557f7fffffffffffffffffffffffffffffffffffffffffffffffffffffffffffffff60075573ca35b7d915458ef540ade6068dfe2f44e8fa733c600860006101000a81548173ffffffffffffffffffffffffffffffffffffffff021916908373ffffffffffffffffffffffffffffffffffffffff16021790555060b560f81b600860146101000a81548160ff021916908360f81c0217905550605660f81b600860156101000a81548160ff021916908360f81c021790555034801561017457600080fd5b506104f7806101846000396000f3fe608060405234801561001057600080fd5b50600436106100ea5760003560e01c8063767800de1161008c578063921cda7411610066578063921cda741461021b578063ab3a58a314610239578063c6a898c514610257578063e5aa3d5814610275576100ea565b8063767800de146101c15780637a4c2571146101df5780637e4e14cc146101fd576100ea565b80634b3df200116100c85780634b3df200146101495780634c27fd62146101675780635abe622b146101855780635c101693146101a3576100ea565b8063074eef3f146100ef5780630ce040431461010d578063459b1acf1461012b575b600080fd5b6100f7610293565b60405161010491906103ce565b60405180910390f35b6101156102a6565b604051610122919061041f565b60405180910390f35b6101336102ac565b604051610140919061041f565b60405180910390f35b6101516102b2565b60405161015e91906103ce565b60405180910390f35b61016f6102c3565b60405161017c91906103e9565b60405180910390f35b61018d6102c9565b60405161019a91906103e9565b60405180910390f35b6101ab6102cf565b6040516101b891906103b3565b60405180910390f35b6101c96102f5565b6040516101d691906103b3565b60405180910390f35b6101e761031b565b6040516101f491906103e9565b60405180910390f35b610205610321565b60405161021291906103e9565b60405180910390f35b610223610327565b6040516102309190610404565b60405180910390f35b61024161033a565b60405161024e919061043a565b60405180910390f35b61025f61034d565b60405161026c919061041f565b60405180910390f35b61027d610353565b60405161028a91906103e9565b60405180910390f35b600860169054906101000a900460ff1681565b60095481565b60015481565b60008054906101000a900460ff1681565b60045481565b600a5481565b600b60009054906101000a900473ffffffffffffffffffffffffffffffffffffffff1681565b600860009054906101000a900473ffffffffffffffffffffffffffffffffffffffff1681565b60075481565b60065481565b600360009054906101000a900460000b81565b600060019054906101000a900460ff1681565b60025481565b60055481565b61036281610455565b82525050565b61037181610467565b82525050565b61038081610473565b82525050565b61038f8161047d565b82525050565b61039e816104aa565b82525050565b6103ad816104b4565b82525050565b60006020820190506103c86000830184610359565b92915050565b60006020820190506103e36000830184610368565b92915050565b60006020820190506103fe6000830184610377565b92915050565b60006020820190506104196000830184610386565b92915050565b60006020820190506104346000830184610395565b92915050565b600060208201905061044f60008301846103a4565b92915050565b60006104608261048a565b9050919050565b60008115159050919050565b6000819050919050565b60008160000b9050919050565b600073ffffffffffffffffffffffffffffffffffffffff82169050919050565b6000819050919050565b600060ff8216905091905056fea2646970667358221220dc475372611db7256bb64dd5a45db710b567e42b23cdc3985fea22e8363c9cc264736f6c63430008070033",
					"opcodes": "PUSH1 0x80 PUSH1 0x40 MSTORE PUSH1 0x1 PUSH1 0x0 DUP1 PUSH2 0x100 EXP DUP2 SLOAD DUP2 PUSH1 0xFF MUL NOT AND SWAP1 DUP4 ISZERO ISZERO MUL OR SWAP1 SSTORE POP PUSH1 0x1 PUSH1 0x0 PUSH1 0x1 PUSH2 0x100 EXP DUP2 SLOAD DUP2 PUSH1 0xFF MUL NOT AND SWAP1 DUP4 PUSH1 0xFF AND MUL OR SWAP1 SSTORE POP PUSH1 0xEA PUSH1 0x1 SSTORE PUSH1 0x7B PUSH1 0x2 SSTORE PUSH1 0x1 PUSH1 0x3 PUSH1 0x0 PUSH2 0x100 EXP DUP2 SLOAD DUP2 PUSH1 0xFF MUL NOT AND SWAP1 DUP4 PUSH1 0x0 SIGNEXTEND PUSH1 0xFF AND MUL OR SWAP1 SSTORE POP PUSH2 0x100 PUSH1 0x4 SSTORE PUSH32 0xFFFFFFFFFFFFFFFFFFFFFFFFFFFFFFFFFFFFFFFFFFFFFFFFFFFFFFFFFFFFFF85 PUSH1 0x5 SSTORE PUSH32 0x8000000000000000000000000000000000000000000000000000000000000000 PUSH1 0x6 SSTORE PUSH32 0x7FFFFFFFFFFFFFFFFFFFFFFFFFFFFFFFFFFFFFFFFFFFFFFFFFFFFFFFFFFFFFFF PUSH1 0x7 SSTORE PUSH20 0xCA35B7D915458EF540ADE6068DFE2F44E8FA733C PUSH1 0x8 PUSH1 0x0 PUSH2 0x100 EXP DUP2 SLOAD DUP2 PUSH20 0xFFFFFFFFFFFFFFFFFFFFFFFFFFFFFFFFFFFFFFFF MUL NOT AND SWAP1 DUP4 PUSH20 0xFFFFFFFFFFFFFFFFFFFFFFFFFFFFFFFFFFFFFFFF AND MUL OR SWAP1 SSTORE POP PUSH1 0xB5 PUSH1 0xF8 SHL PUSH1 0x8 PUSH1 0x14 PUSH2 0x100 EXP DUP2 SLOAD DUP2 PUSH1 0xFF MUL NOT AND SWAP1 DUP4 PUSH1 0xF8 SHR MUL OR SWAP1 SSTORE POP PUSH1 0x56 PUSH1 0xF8 SHL PUSH1 0x8 PUSH1 0x15 PUSH2 0x100 EXP DUP2 SLOAD DUP2 PUSH1 0xFF MUL NOT AND SWAP1 DUP4 PUSH1 0xF8 SHR MUL OR SWAP1 SSTORE POP CALLVALUE DUP1 ISZERO PUSH2 0x174 JUMPI PUSH1 0x0 DUP1 REVERT JUMPDEST POP PUSH2 0x4F7 DUP1 PUSH2 0x184 PUSH1 0x0 CODECOPY PUSH1 0x0 RETURN INVALID PUSH1 0x80 PUSH1 0x40 MSTORE CALLVALUE DUP1 ISZERO PUSH2 0x10 JUMPI PUSH1 0x0 DUP1 REVERT JUMPDEST POP PUSH1 0x4 CALLDATASIZE LT PUSH2 0xEA JUMPI PUSH1 0x0 CALLDATALOAD PUSH1 0xE0 SHR DUP1 PUSH4 0x767800DE GT PUSH2 0x8C JUMPI DUP1 PUSH4 0x921CDA74 GT PUSH2 0x66 JUMPI DUP1 PUSH4 0x921CDA74 EQ PUSH2 0x21B JUMPI DUP1 PUSH4 0xAB3A58A3 EQ PUSH2 0x239 JUMPI DUP1 PUSH4 0xC6A898C5 EQ PUSH2 0x257 JUMPI DUP1 PUSH4 0xE5AA3D58 EQ PUSH2 0x275 JUMPI PUSH2 0xEA JUMP JUMPDEST DUP1 PUSH4 0x767800DE EQ PUSH2 0x1C1 JUMPI DUP1 PUSH4 0x7A4C2571 EQ PUSH2 0x1DF JUMPI DUP1 PUSH4 0x7E4E14CC EQ PUSH2 0x1FD JUMPI PUSH2 0xEA JUMP JUMPDEST DUP1 PUSH4 0x4B3DF200 GT PUSH2 0xC8 JUMPI DUP1 PUSH4 0x4B3DF200 EQ PUSH2 0x149 JUMPI DUP1 PUSH4 0x4C27FD62 EQ PUSH2 0x167 JUMPI DUP1 PUSH4 0x5ABE622B EQ PUSH2 0x185 JUMPI DUP1 PUSH4 0x5C101693 EQ PUSH2 0x1A3 JUMPI PUSH2 0xEA JUMP JUMPDEST DUP1 PUSH4 0x74EEF3F EQ PUSH2 0xEF JUMPI DUP1 PUSH4 0xCE04043 EQ PUSH2 0x10D JUMPI DUP1 PUSH4 0x459B1ACF EQ PUSH2 0x12B JUMPI JUMPDEST PUSH1 0x0 DUP1 REVERT JUMPDEST PUSH2 0xF7 PUSH2 0x293 JUMP JUMPDEST PUSH1 0x40 MLOAD PUSH2 0x104 SWAP2 SWAP1 PUSH2 0x3CE JUMP JUMPDEST PUSH1 0x40 MLOAD DUP1 SWAP2 SUB SWAP1 RETURN JUMPDEST PUSH2 0x115 PUSH2 0x2A6 JUMP JUMPDEST PUSH1 0x40 MLOAD PUSH2 0x122 SWAP2 SWAP1 PUSH2 0x41F JUMP JUMPDEST PUSH1 0x40 MLOAD DUP1 SWAP2 SUB SWAP1 RETURN JUMPDEST PUSH2 0x133 PUSH2 0x2AC JUMP JUMPDEST PUSH1 0x40 MLOAD PUSH2 0x140 SWAP2 SWAP1 PUSH2 0x41F JUMP JUMPDEST PUSH1 0x40 MLOAD DUP1 SWAP2 SUB SWAP1 RETURN JUMPDEST PUSH2 0x151 PUSH2 0x2B2 JUMP JUMPDEST PUSH1 0x40 MLOAD PUSH2 0x15E SWAP2 SWAP1 PUSH2 0x3CE JUMP JUMPDEST PUSH1 0x40 MLOAD DUP1 SWAP2 SUB SWAP1 RETURN JUMPDEST PUSH2 0x16F PUSH2 0x2C3 JUMP JUMPDEST PUSH1 0x40 MLOAD PUSH2 0x17C SWAP2 SWAP1 PUSH2 0x3E9 JUMP JUMPDEST PUSH1 0x40 MLOAD DUP1 SWAP2 SUB SWAP1 RETURN JUMPDEST PUSH2 0x18D PUSH2 0x2C9 JUMP JUMPDEST PUSH1 0x40 MLOAD PUSH2 0x19A SWAP2 SWAP1 PUSH2 0x3E9 JUMP JUMPDEST PUSH1 0x40 MLOAD DUP1 SWAP2 SUB SWAP1 RETURN JUMPDEST PUSH2 0x1AB PUSH2 0x2CF JUMP JUMPDEST PUSH1 0x40 MLOAD PUSH2 0x1B8 SWAP2 SWAP1 PUSH2 0x3B3 JUMP JUMPDEST PUSH1 0x40 MLOAD DUP1 SWAP2 SUB SWAP1 RETURN JUMPDEST PUSH2 0x1C9 PUSH2 0x2F5 JUMP JUMPDEST PUSH1 0x40 MLOAD PUSH2 0x1D6 SWAP2 SWAP1 PUSH2 0x3B3 JUMP JUMPDEST PUSH1 0x40 MLOAD DUP1 SWAP2 SUB SWAP1 RETURN JUMPDEST PUSH2 0x1E7 PUSH2 0x31B JUMP JUMPDEST PUSH1 0x40 MLOAD PUSH2 0x1F4 SWAP2 SWAP1 PUSH2 0x3E9 JUMP JUMPDEST PUSH1 0x40 MLOAD DUP1 SWAP2 SUB SWAP1 RETURN JUMPDEST PUSH2 0x205 PUSH2 0x321 JUMP JUMPDEST PUSH1 0x40 MLOAD PUSH2 0x212 SWAP2 SWAP1 PUSH2 0x3E9 JUMP JUMPDEST PUSH1 0x40 MLOAD DUP1 SWAP2 SUB SWAP1 RETURN JUMPDEST PUSH2 0x223 PUSH2 0x327 JUMP JUMPDEST PUSH1 0x40 MLOAD PUSH2 0x230 SWAP2 SWAP1 PUSH2 0x404 JUMP JUMPDEST PUSH1 0x40 MLOAD DUP1 SWAP2 SUB SWAP1 RETURN JUMPDEST PUSH2 0x241 PUSH2 0x33A JUMP JUMPDEST PUSH1 0x40 MLOAD PUSH2 0x24E SWAP2 SWAP1 PUSH2 0x43A JUMP JUMPDEST PUSH1 0x40 MLOAD DUP1 SWAP2 SUB SWAP1 RETURN JUMPDEST PUSH2 0x25F PUSH2 0x34D JUMP JUMPDEST PUSH1 0x40 MLOAD PUSH2 0x26C SWAP2 SWAP1 PUSH2 0x41F JUMP JUMPDEST PUSH1 0x40 MLOAD DUP1 SWAP2 SUB SWAP1 RETURN JUMPDEST PUSH2 0x27D PUSH2 0x353 JUMP JUMPDEST PUSH1 0x40 MLOAD PUSH2 0x28A SWAP2 SWAP1 PUSH2 0x3E9 JUMP JUMPDEST PUSH1 0x40 MLOAD DUP1 SWAP2 SUB SWAP1 RETURN JUMPDEST PUSH1 0x8 PUSH1 0x16 SWAP1 SLOAD SWAP1 PUSH2 0x100 EXP SWAP1 DIV PUSH1 0xFF AND DUP2 JUMP JUMPDEST PUSH1 0x9 SLOAD DUP2 JUMP JUMPDEST PUSH1 0x1 SLOAD DUP2 JUMP JUMPDEST PUSH1 0x0 DUP1 SLOAD SWAP1 PUSH2 0x100 EXP SWAP1 DIV PUSH1 0xFF AND DUP2 JUMP JUMPDEST PUSH1 0x4 SLOAD DUP2 JUMP JUMPDEST PUSH1 0xA SLOAD DUP2 JUMP JUMPDEST PUSH1 0xB PUSH1 0x0 SWAP1 SLOAD SWAP1 PUSH2 0x100 EXP SWAP1 DIV PUSH20 0xFFFFFFFFFFFFFFFFFFFFFFFFFFFFFFFFFFFFFFFF AND DUP2 JUMP JUMPDEST PUSH1 0x8 PUSH1 0x0 SWAP1 SLOAD SWAP1 PUSH2 0x100 EXP SWAP1 DIV PUSH20 0xFFFFFFFFFFFFFFFFFFFFFFFFFFFFFFFFFFFFFFFF AND DUP2 JUMP JUMPDEST PUSH1 0x7 SLOAD DUP2 JUMP JUMPDEST PUSH1 0x6 SLOAD DUP2 JUMP JUMPDEST PUSH1 0x3 PUSH1 0x0 SWAP1 SLOAD SWAP1 PUSH2 0x100 EXP SWAP1 DIV PUSH1 0x0 SIGNEXTEND DUP2 JUMP JUMPDEST PUSH1 0x0 PUSH1 0x1 SWAP1 SLOAD SWAP1 PUSH2 0x100 EXP SWAP1 DIV PUSH1 0xFF AND DUP2 JUMP JUMPDEST PUSH1 0x2 SLOAD DUP2 JUMP JUMPDEST PUSH1 0x5 SLOAD DUP2 JUMP JUMPDEST PUSH2 0x362 DUP2 PUSH2 0x455 JUMP JUMPDEST DUP3 MSTORE POP POP JUMP JUMPDEST PUSH2 0x371 DUP2 PUSH2 0x467 JUMP JUMPDEST DUP3 MSTORE POP POP JUMP JUMPDEST PUSH2 0x380 DUP2 PUSH2 0x473 JUMP JUMPDEST DUP3 MSTORE POP POP JUMP JUMPDEST PUSH2 0x38F DUP2 PUSH2 0x47D JUMP JUMPDEST DUP3 MSTORE POP POP JUMP JUMPDEST PUSH2 0x39E DUP2 PUSH2 0x4AA JUMP JUMPDEST DUP3 MSTORE POP POP JUMP JUMPDEST PUSH2 0x3AD DUP2 PUSH2 0x4B4 JUMP JUMPDEST DUP3 MSTORE POP POP JUMP JUMPDEST PUSH1 0x0 PUSH1 0x20 DUP3 ADD SWAP1 POP PUSH2 0x3C8 PUSH1 0x0 DUP4 ADD DUP5 PUSH2 0x359 JUMP JUMPDEST SWAP3 SWAP2 POP POP JUMP JUMPDEST PUSH1 0x0 PUSH1 0x20 DUP3 ADD SWAP1 POP PUSH2 0x3E3 PUSH1 0x0 DUP4 ADD DUP5 PUSH2 0x368 JUMP JUMPDEST SWAP3 SWAP2 POP POP JUMP JUMPDEST PUSH1 0x0 PUSH1 0x20 DUP3 ADD SWAP1 POP PUSH2 0x3FE PUSH1 0x0 DUP4 ADD DUP5 PUSH2 0x377 JUMP JUMPDEST SWAP3 SWAP2 POP POP JUMP JUMPDEST PUSH1 0x0 PUSH1 0x20 DUP3 ADD SWAP1 POP PUSH2 0x419 PUSH1 0x0 DUP4 ADD DUP5 PUSH2 0x386 JUMP JUMPDEST SWAP3 SWAP2 POP POP JUMP JUMPDEST PUSH1 0x0 PUSH1 0x20 DUP3 ADD SWAP1 POP PUSH2 0x434 PUSH1 0x0 DUP4 ADD DUP5 PUSH2 0x395 JUMP JUMPDEST SWAP3 SWAP2 POP POP JUMP JUMPDEST PUSH1 0x0 PUSH1 0x20 DUP3 ADD SWAP1 POP PUSH2 0x44F PUSH1 0x0 DUP4 ADD DUP5 PUSH2 0x3A4 JUMP JUMPDEST SWAP3 SWAP2 POP POP JUMP JUMPDEST PUSH1 0x0 PUSH2 0x460 DUP3 PUSH2 0x48A JUMP JUMPDEST SWAP1 POP SWAP2 SWAP1 POP JUMP JUMPDEST PUSH1 0x0 DUP2 ISZERO ISZERO SWAP1 POP SWAP2 SWAP1 POP JUMP JUMPDEST PUSH1 0x0 DUP2 SWAP1 POP SWAP2 SWAP1 POP JUMP JUMPDEST PUSH1 0x0 DUP2 PUSH1 0x0 SIGNEXTEND SWAP1 POP SWAP2 SWAP1 POP JUMP JUMPDEST PUSH1 0x0 PUSH20 0xFFFFFFFFFFFFFFFFFFFFFFFFFFFFFFFFFFFFFFFF DUP3 AND SWAP1 POP SWAP2 SWAP1 POP JUMP JUMPDEST PUSH1 0x0 DUP2 SWAP1 POP SWAP2 SWAP1 POP JUMP JUMPDEST PUSH1 0x0 PUSH1 0xFF DUP3 AND SWAP1 POP SWAP2 SWAP1 POP JUMP INVALID LOG2 PUSH5 0x6970667358 0x22 SLT KECCAK256 0xDC SELFBALANCE MSTORE8 PUSH19 0x611DB7256BB64DD5A45DB710B567E42B23CDC3 SWAP9 0x5F 0xEA 0x22 0xE8 CALLDATASIZE EXTCODECOPY SWAP13 0xC2 PUSH5 0x736F6C6343 STOP ADDMOD SMOD STOP CALLER "
				},
				"gasEstimates": {
					"creation": {
						"codeDepositCost": "254200",
						"executionCost": "278702",
						"totalCost": "532902"
					},
					"external": {
						"addr()": "2537",
						"boo()": "2491",
						"defaultAddress()": "2603",
						"defaultBoo()": "2545",
						"defaultInt()": "2496",
						"defaultUnit()": "2475",
						"i()": "2517",
						"i256()": "2474",
						"i8()": "2497",
						"maxInt()": "2474",
						"minInt()": "2496",
						"u()": "2495",
						"u256()": "2497",
						"u8()": "2565"
					}
				},
				"methodIdentifiers": {
					"addr()": "767800de",
					"boo()": "4b3df200",
					"defaultAddress()": "5c101693",
					"defaultBoo()": "074eef3f",
					"defaultInt()": "5abe622b",
					"defaultUnit()": "0ce04043",
					"i()": "e5aa3d58",
					"i256()": "4c27fd62",
					"i8()": "921cda74",
					"maxInt()": "7a4c2571",
					"minInt()": "7e4e14cc",
					"u()": "c6a898c5",
					"u256()": "459b1acf",
					"u8()": "ab3a58a3"
				}
			},
			"storageLayout": {
				"storage": [
					{
						"astId": 4,
						"contract": "solidity/0.8.17/003-PrimitiveDataTypes/PrimitiveDataTypes.sol:PrimitiveDataTypes",
						"label": "boo",
						"offset": 0,
						"slot": "0",
						"type": "t_bool"
					},
					{
						"astId": 7,
						"contract": "solidity/0.8.17/003-PrimitiveDataTypes/PrimitiveDataTypes.sol:PrimitiveDataTypes",
						"label": "u8",
						"offset": 1,
						"slot": "0",
						"type": "t_uint8"
					},
					{
						"astId": 10,
						"contract": "solidity/0.8.17/003-PrimitiveDataTypes/PrimitiveDataTypes.sol:PrimitiveDataTypes",
						"label": "u256",
						"offset": 0,
						"slot": "1",
						"type": "t_uint256"
					},
					{
						"astId": 13,
						"contract": "solidity/0.8.17/003-PrimitiveDataTypes/PrimitiveDataTypes.sol:PrimitiveDataTypes",
						"label": "u",
						"offset": 0,
						"slot": "2",
						"type": "t_uint256"
					},
					{
						"astId": 16,
						"contract": "solidity/0.8.17/003-PrimitiveDataTypes/PrimitiveDataTypes.sol:PrimitiveDataTypes",
						"label": "i8",
						"offset": 0,
						"slot": "3",
						"type": "t_int8"
					},
					{
						"astId": 19,
						"contract": "solidity/0.8.17/003-PrimitiveDataTypes/PrimitiveDataTypes.sol:PrimitiveDataTypes",
						"label": "i256",
						"offset": 0,
						"slot": "4",
						"type": "t_int256"
					},
					{
						"astId": 23,
						"contract": "solidity/0.8.17/003-PrimitiveDataTypes/PrimitiveDataTypes.sol:PrimitiveDataTypes",
						"label": "i",
						"offset": 0,
						"slot": "5",
						"type": "t_int256"
					},
					{
						"astId": 30,
						"contract": "solidity/0.8.17/003-PrimitiveDataTypes/PrimitiveDataTypes.sol:PrimitiveDataTypes",
						"label": "minInt",
						"offset": 0,
						"slot": "6",
						"type": "t_int256"
					},
					{
						"astId": 37,
						"contract": "solidity/0.8.17/003-PrimitiveDataTypes/PrimitiveDataTypes.sol:PrimitiveDataTypes",
						"label": "maxInt",
						"offset": 0,
						"slot": "7",
						"type": "t_int256"
					},
					{
						"astId": 40,
						"contract": "solidity/0.8.17/003-PrimitiveDataTypes/PrimitiveDataTypes.sol:PrimitiveDataTypes",
						"label": "addr",
						"offset": 0,
						"slot": "8",
						"type": "t_address"
					},
					{
						"astId": 43,
						"contract": "solidity/0.8.17/003-PrimitiveDataTypes/PrimitiveDataTypes.sol:PrimitiveDataTypes",
						"label": "a",
						"offset": 20,
						"slot": "8",
						"type": "t_bytes1"
					},
					{
						"astId": 46,
						"contract": "solidity/0.8.17/003-PrimitiveDataTypes/PrimitiveDataTypes.sol:PrimitiveDataTypes",
						"label": "b",
						"offset": 21,
						"slot": "8",
						"type": "t_bytes1"
					},
					{
						"astId": 48,
						"contract": "solidity/0.8.17/003-PrimitiveDataTypes/PrimitiveDataTypes.sol:PrimitiveDataTypes",
						"label": "defaultBoo",
						"offset": 22,
						"slot": "8",
						"type": "t_bool"
					},
					{
						"astId": 50,
						"contract": "solidity/0.8.17/003-PrimitiveDataTypes/PrimitiveDataTypes.sol:PrimitiveDataTypes",
						"label": "defaultUnit",
						"offset": 0,
						"slot": "9",
						"type": "t_uint256"
					},
					{
						"astId": 52,
						"contract": "solidity/0.8.17/003-PrimitiveDataTypes/PrimitiveDataTypes.sol:PrimitiveDataTypes",
						"label": "defaultInt",
						"offset": 0,
						"slot": "10",
						"type": "t_int256"
					},
					{
						"astId": 54,
						"contract": "solidity/0.8.17/003-PrimitiveDataTypes/PrimitiveDataTypes.sol:PrimitiveDataTypes",
						"label": "defaultAddress",
						"offset": 0,
						"slot": "11",
						"type": "t_address"
					}
				],
				"types": {
					"t_address": {
						"encoding": "inplace",
						"label": "address",
						"numberOfBytes": "20"
					},
					"t_bool": {
						"encoding": "inplace",
						"label": "bool",
						"numberOfBytes": "1"
					},
					"t_bytes1": {
						"encoding": "inplace",
						"label": "bytes1",
						"numberOfBytes": "1"
					},
					"t_int256": {
						"encoding": "inplace",
						"label": "int256",
						"numberOfBytes": "32"
					},
					"t_int8": {
						"encoding": "inplace",
						"label": "int8",
						"numberOfBytes": "1"
					},
					"t_uint256": {
						"encoding": "inplace",
						"label": "uint256",
						"numberOfBytes": "32"
					},
					"t_uint8": {
						"encoding": "inplace",
						"label": "uint8",
						"numberOfBytes": "1"
					}
				}
			},
			"userdoc": {
				"kind": "user",
				"methods": {},
				"version": 1
			}
		}
	}
}