{
	"solidity/0.8.17/026-CallingParentContract/CallingParentContract.sol": {
		"B": {
			"abi": [
				{
					"anonymous": false,
					"inputs": [
						{
							"indexed": false,
							"internalType": "string",
							"name": "messge",
							"type": "string"
						}
					],
					"name": "Log",
					"type": "event"
				},
				{
					"inputs": [],
					"name": "bar",
					"outputs": [],
					"stateMutability": "nonpayable",
					"type": "function"
				},
				{
					"inputs": [],
					"name": "foo",
					"outputs": [],
					"stateMutability": "nonpayable",
					"type": "function"
				}
			],
			"devdoc": {
				"kind": "dev",
				"methods": {},
				"version": 1
			},
			"evm": {
				"assembly": "    /* \"solidity/0.8.17/026-CallingParentContract/CallingParentContract.sol\":271:499  contract B is A {... */\n  mstore(0x40, 0x80)\n  callvalue\n  dup1\n  iszero\n  tag_1\n  jumpi\n  0x00\n  dup1\n  revert\ntag_1:\n  pop\n  dataSize(sub_0)\n  dup1\n  dataOffset(sub_0)\n  0x00\n  codecopy\n  0x00\n  return\nstop\n\nsub_0: assembly {\n        /* \"solidity/0.8.17/026-CallingParentContract/CallingParentContract.sol\":271:499  contract B is A {... */\n      mstore(0x40, 0x80)\n      callvalue\n      dup1\n      iszero\n      tag_1\n      jumpi\n      0x00\n      dup1\n      revert\n    tag_1:\n      pop\n      jumpi(tag_2, lt(calldatasize, 0x04))\n      shr(0xe0, calldataload(0x00))\n      dup1\n      0xc2985578\n      eq\n      tag_3\n      jumpi\n      dup1\n      0xfebb0f7e\n      eq\n      tag_4\n      jumpi\n    tag_2:\n      0x00\n      dup1\n      revert\n        /* \"solidity/0.8.17/026-CallingParentContract/CallingParentContract.sol\":293:390  function foo() public virtual override {... */\n    tag_3:\n      tag_5\n      tag_6\n      jump\t// in\n    tag_5:\n      stop\n        /* \"solidity/0.8.17/026-CallingParentContract/CallingParentContract.sol\":396:497  function bar() public virtual override {... */\n    tag_4:\n      tag_7\n      tag_8\n      jump\t// in\n    tag_7:\n      stop\n        /* \"solidity/0.8.17/026-CallingParentContract/CallingParentContract.sol\":293:390  function foo() public virtual override {... */\n    tag_6:\n        /* \"solidity/0.8.17/026-CallingParentContract/CallingParentContract.sol\":347:366  Log(\"b.foo called\") */\n      0xcf34ef537ac33ee1ac626ca1587a0a7e8e51561e5514f8cb36afa1c5102b3bab\n      mload(0x40)\n      tag_10\n      swap1\n      tag_11\n      jump\t// in\n    tag_10:\n      mload(0x40)\n      dup1\n      swap2\n      sub\n      swap1\n      log1\n        /* \"solidity/0.8.17/026-CallingParentContract/CallingParentContract.sol\":376:383  A.foo() */\n      tag_12\n        /* \"solidity/0.8.17/026-CallingParentContract/CallingParentContract.sol\":376:381  A.foo */\n      tag_13\n        /* \"solidity/0.8.17/026-CallingParentContract/CallingParentContract.sol\":376:383  A.foo() */\n      jump\t// in\n    tag_12:\n        /* \"solidity/0.8.17/026-CallingParentContract/CallingParentContract.sol\":293:390  function foo() public virtual override {... */\n      jump\t// out\n        /* \"solidity/0.8.17/026-CallingParentContract/CallingParentContract.sol\":396:497  function bar() public virtual override {... */\n    tag_8:\n        /* \"solidity/0.8.17/026-CallingParentContract/CallingParentContract.sol\":450:469  Log(\"b.bar called\") */\n      0xcf34ef537ac33ee1ac626ca1587a0a7e8e51561e5514f8cb36afa1c5102b3bab\n      mload(0x40)\n      tag_15\n      swap1\n      tag_16\n      jump\t// in\n    tag_15:\n      mload(0x40)\n      dup1\n      swap2\n      sub\n      swap1\n      log1\n        /* \"solidity/0.8.17/026-CallingParentContract/CallingParentContract.sol\":479:490  super.bar() */\n      tag_17\n        /* \"solidity/0.8.17/026-CallingParentContract/CallingParentContract.sol\":479:488  super.bar */\n      tag_18\n        /* \"solidity/0.8.17/026-CallingParentContract/CallingParentContract.sol\":479:490  super.bar() */\n      jump\t// in\n    tag_17:\n        /* \"solidity/0.8.17/026-CallingParentContract/CallingParentContract.sol\":396:497  function bar() public virtual override {... */\n      jump\t// out\n        /* \"solidity/0.8.17/026-CallingParentContract/CallingParentContract.sol\":120:191  function foo() public virtual {... */\n    tag_13:\n        /* \"solidity/0.8.17/026-CallingParentContract/CallingParentContract.sol\":165:184  Log(\"a.foo called\") */\n      0xcf34ef537ac33ee1ac626ca1587a0a7e8e51561e5514f8cb36afa1c5102b3bab\n      mload(0x40)\n      tag_20\n      swap1\n      tag_21\n      jump\t// in\n    tag_20:\n      mload(0x40)\n      dup1\n      swap2\n      sub\n      swap1\n      log1\n        /* \"solidity/0.8.17/026-CallingParentContract/CallingParentContract.sol\":120:191  function foo() public virtual {... */\n      jump\t// out\n        /* \"solidity/0.8.17/026-CallingParentContract/CallingParentContract.sol\":197:267  function bar() public virtual {... */\n    tag_18:\n        /* \"solidity/0.8.17/026-CallingParentContract/CallingParentContract.sol\":242:260  Log(\"a.br called\") */\n      0xcf34ef537ac33ee1ac626ca1587a0a7e8e51561e5514f8cb36afa1c5102b3bab\n      mload(0x40)\n      tag_23\n      swap1\n      tag_24\n      jump\t// in\n    tag_23:\n      mload(0x40)\n      dup1\n      swap2\n      sub\n      swap1\n      log1\n        /* \"solidity/0.8.17/026-CallingParentContract/CallingParentContract.sol\":197:267  function bar() public virtual {... */\n      jump\t// out\n        /* \"#utility.yul\":7:176   */\n    tag_25:\n        /* \"#utility.yul\":91:102   */\n      0x00\n        /* \"#utility.yul\":125:131   */\n      dup3\n        /* \"#utility.yul\":120:123   */\n      dup3\n        /* \"#utility.yul\":113:132   */\n      mstore\n        /* \"#utility.yul\":165:169   */\n      0x20\n        /* \"#utility.yul\":160:163   */\n      dup3\n        /* \"#utility.yul\":156:170   */\n      add\n        /* \"#utility.yul\":141:170   */\n      swap1\n      pop\n        /* \"#utility.yul\":7:176   */\n      swap3\n      swap2\n      pop\n      pop\n      jump\t// out\n        /* \"#utility.yul\":182:344   */\n    tag_26:\n        /* \"#utility.yul\":322:336   */\n      0x622e666f6f2063616c6c65640000000000000000000000000000000000000000\n        /* \"#utility.yul\":318:319   */\n      0x00\n        /* \"#utility.yul\":310:316   */\n      dup3\n        /* \"#utility.yul\":306:320   */\n      add\n        /* \"#utility.yul\":299:337   */\n      mstore\n        /* \"#utility.yul\":182:344   */\n      pop\n      jump\t// out\n        /* \"#utility.yul\":350:716   */\n    tag_27:\n        /* \"#utility.yul\":492:495   */\n      0x00\n        /* \"#utility.yul\":513:580   */\n      tag_38\n        /* \"#utility.yul\":577:579   */\n      0x0c\n        /* \"#utility.yul\":572:575   */\n      dup4\n        /* \"#utility.yul\":513:580   */\n      tag_25\n      jump\t// in\n    tag_38:\n        /* \"#utility.yul\":506:580   */\n      swap2\n      pop\n        /* \"#utility.yul\":589:682   */\n      tag_39\n        /* \"#utility.yul\":678:681   */\n      dup3\n        /* \"#utility.yul\":589:682   */\n      tag_26\n      jump\t// in\n    tag_39:\n        /* \"#utility.yul\":707:709   */\n      0x20\n        /* \"#utility.yul\":702:705   */\n      dup3\n        /* \"#utility.yul\":698:710   */\n      add\n        /* \"#utility.yul\":691:710   */\n      swap1\n      pop\n        /* \"#utility.yul\":350:716   */\n      swap2\n      swap1\n      pop\n      jump\t// out\n        /* \"#utility.yul\":722:1141   */\n    tag_11:\n        /* \"#utility.yul\":888:892   */\n      0x00\n        /* \"#utility.yul\":926:928   */\n      0x20\n        /* \"#utility.yul\":915:924   */\n      dup3\n        /* \"#utility.yul\":911:929   */\n      add\n        /* \"#utility.yul\":903:929   */\n      swap1\n      pop\n        /* \"#utility.yul\":975:984   */\n      dup2\n        /* \"#utility.yul\":969:973   */\n      dup2\n        /* \"#utility.yul\":965:985   */\n      sub\n        /* \"#utility.yul\":961:962   */\n      0x00\n        /* \"#utility.yul\":950:959   */\n      dup4\n        /* \"#utility.yul\":946:963   */\n      add\n        /* \"#utility.yul\":939:986   */\n      mstore\n        /* \"#utility.yul\":1003:1134   */\n      tag_41\n        /* \"#utility.yul\":1129:1133   */\n      dup2\n        /* \"#utility.yul\":1003:1134   */\n      tag_27\n      jump\t// in\n    tag_41:\n        /* \"#utility.yul\":995:1134   */\n      swap1\n      pop\n        /* \"#utility.yul\":722:1141   */\n      swap2\n      swap1\n      pop\n      jump\t// out\n        /* \"#utility.yul\":1147:1309   */\n    tag_28:\n        /* \"#utility.yul\":1287:1301   */\n      0x622e6261722063616c6c65640000000000000000000000000000000000000000\n        /* \"#utility.yul\":1283:1284   */\n      0x00\n        /* \"#utility.yul\":1275:1281   */\n      dup3\n        /* \"#utility.yul\":1271:1285   */\n      add\n        /* \"#utility.yul\":1264:1302   */\n      mstore\n        /* \"#utility.yul\":1147:1309   */\n      pop\n      jump\t// out\n        /* \"#utility.yul\":1315:1681   */\n    tag_29:\n        /* \"#utility.yul\":1457:1460   */\n      0x00\n        /* \"#utility.yul\":1478:1545   */\n      tag_44\n        /* \"#utility.yul\":1542:1544   */\n      0x0c\n        /* \"#utility.yul\":1537:1540   */\n      dup4\n        /* \"#utility.yul\":1478:1545   */\n      tag_25\n      jump\t// in\n    tag_44:\n        /* \"#utility.yul\":1471:1545   */\n      swap2\n      pop\n        /* \"#utility.yul\":1554:1647   */\n      tag_45\n        /* \"#utility.yul\":1643:1646   */\n      dup3\n        /* \"#utility.yul\":1554:1647   */\n      tag_28\n      jump\t// in\n    tag_45:\n        /* \"#utility.yul\":1672:1674   */\n      0x20\n        /* \"#utility.yul\":1667:1670   */\n      dup3\n        /* \"#utility.yul\":1663:1675   */\n      add\n        /* \"#utility.yul\":1656:1675   */\n      swap1\n      pop\n        /* \"#utility.yul\":1315:1681   */\n      swap2\n      swap1\n      pop\n      jump\t// out\n        /* \"#utility.yul\":1687:2106   */\n    tag_16:\n        /* \"#utility.yul\":1853:1857   */\n      0x00\n        /* \"#utility.yul\":1891:1893   */\n      0x20\n        /* \"#utility.yul\":1880:1889   */\n      dup3\n        /* \"#utility.yul\":1876:1894   */\n      add\n        /* \"#utility.yul\":1868:1894   */\n      swap1\n      pop\n        /* \"#utility.yul\":1940:1949   */\n      dup2\n        /* \"#utility.yul\":1934:1938   */\n      dup2\n        /* \"#utility.yul\":1930:1950   */\n      sub\n        /* \"#utility.yul\":1926:1927   */\n      0x00\n        /* \"#utility.yul\":1915:1924   */\n      dup4\n        /* \"#utility.yul\":1911:1928   */\n      add\n        /* \"#utility.yul\":1904:1951   */\n      mstore\n        /* \"#utility.yul\":1968:2099   */\n      tag_47\n        /* \"#utility.yul\":2094:2098   */\n      dup2\n        /* \"#utility.yul\":1968:2099   */\n      tag_29\n      jump\t// in\n    tag_47:\n        /* \"#utility.yul\":1960:2099   */\n      swap1\n      pop\n        /* \"#utility.yul\":1687:2106   */\n      swap2\n      swap1\n      pop\n      jump\t// out\n        /* \"#utility.yul\":2112:2274   */\n    tag_30:\n        /* \"#utility.yul\":2252:2266   */\n      0x612e666f6f2063616c6c65640000000000000000000000000000000000000000\n        /* \"#utility.yul\":2248:2249   */\n      0x00\n        /* \"#utility.yul\":2240:2246   */\n      dup3\n        /* \"#utility.yul\":2236:2250   */\n      add\n        /* \"#utility.yul\":2229:2267   */\n      mstore\n        /* \"#utility.yul\":2112:2274   */\n      pop\n      jump\t// out\n        /* \"#utility.yul\":2280:2646   */\n    tag_31:\n        /* \"#utility.yul\":2422:2425   */\n      0x00\n        /* \"#utility.yul\":2443:2510   */\n      tag_50\n        /* \"#utility.yul\":2507:2509   */\n      0x0c\n        /* \"#utility.yul\":2502:2505   */\n      dup4\n        /* \"#utility.yul\":2443:2510   */\n      tag_25\n      jump\t// in\n    tag_50:\n        /* \"#utility.yul\":2436:2510   */\n      swap2\n      pop\n        /* \"#utility.yul\":2519:2612   */\n      tag_51\n        /* \"#utility.yul\":2608:2611   */\n      dup3\n        /* \"#utility.yul\":2519:2612   */\n      tag_30\n      jump\t// in\n    tag_51:\n        /* \"#utility.yul\":2637:2639   */\n      0x20\n        /* \"#utility.yul\":2632:2635   */\n      dup3\n        /* \"#utility.yul\":2628:2640   */\n      add\n        /* \"#utility.yul\":2621:2640   */\n      swap1\n      pop\n        /* \"#utility.yul\":2280:2646   */\n      swap2\n      swap1\n      pop\n      jump\t// out\n        /* \"#utility.yul\":2652:3071   */\n    tag_21:\n        /* \"#utility.yul\":2818:2822   */\n      0x00\n        /* \"#utility.yul\":2856:2858   */\n      0x20\n        /* \"#utility.yul\":2845:2854   */\n      dup3\n        /* \"#utility.yul\":2841:2859   */\n      add\n        /* \"#utility.yul\":2833:2859   */\n      swap1\n      pop\n        /* \"#utility.yul\":2905:2914   */\n      dup2\n        /* \"#utility.yul\":2899:2903   */\n      dup2\n        /* \"#utility.yul\":2895:2915   */\n      sub\n        /* \"#utility.yul\":2891:2892   */\n      0x00\n        /* \"#utility.yul\":2880:2889   */\n      dup4\n        /* \"#utility.yul\":2876:2893   */\n      add\n        /* \"#utility.yul\":2869:2916   */\n      mstore\n        /* \"#utility.yul\":2933:3064   */\n      tag_53\n        /* \"#utility.yul\":3059:3063   */\n      dup2\n        /* \"#utility.yul\":2933:3064   */\n      tag_31\n      jump\t// in\n    tag_53:\n        /* \"#utility.yul\":2925:3064   */\n      swap1\n      pop\n        /* \"#utility.yul\":2652:3071   */\n      swap2\n      swap1\n      pop\n      jump\t// out\n        /* \"#utility.yul\":3077:3238   */\n    tag_32:\n        /* \"#utility.yul\":3217:3230   */\n      0x612e62722063616c6c6564000000000000000000000000000000000000000000\n        /* \"#utility.yul\":3213:3214   */\n      0x00\n        /* \"#utility.yul\":3205:3211   */\n      dup3\n        /* \"#utility.yul\":3201:3215   */\n      add\n        /* \"#utility.yul\":3194:3231   */\n      mstore\n        /* \"#utility.yul\":3077:3238   */\n      pop\n      jump\t// out\n        /* \"#utility.yul\":3244:3610   */\n    tag_33:\n        /* \"#utility.yul\":3386:3389   */\n      0x00\n        /* \"#utility.yul\":3407:3474   */\n      tag_56\n        /* \"#utility.yul\":3471:3473   */\n      0x0b\n        /* \"#utility.yul\":3466:3469   */\n      dup4\n        /* \"#utility.yul\":3407:3474   */\n      tag_25\n      jump\t// in\n    tag_56:\n        /* \"#utility.yul\":3400:3474   */\n      swap2\n      pop\n        /* \"#utility.yul\":3483:3576   */\n      tag_57\n        /* \"#utility.yul\":3572:3575   */\n      dup3\n        /* \"#utility.yul\":3483:3576   */\n      tag_32\n      jump\t// in\n    tag_57:\n        /* \"#utility.yul\":3601:3603   */\n      0x20\n        /* \"#utility.yul\":3596:3599   */\n      dup3\n        /* \"#utility.yul\":3592:3604   */\n      add\n        /* \"#utility.yul\":3585:3604   */\n      swap1\n      pop\n        /* \"#utility.yul\":3244:3610   */\n      swap2\n      swap1\n      pop\n      jump\t// out\n        /* \"#utility.yul\":3616:4035   */\n    tag_24:\n        /* \"#utility.yul\":3782:3786   */\n      0x00\n        /* \"#utility.yul\":3820:3822   */\n      0x20\n        /* \"#utility.yul\":3809:3818   */\n      dup3\n        /* \"#utility.yul\":3805:3823   */\n      add\n        /* \"#utility.yul\":3797:3823   */\n      swap1\n      pop\n        /* \"#utility.yul\":3869:3878   */\n      dup2\n        /* \"#utility.yul\":3863:3867   */\n      dup2\n        /* \"#utility.yul\":3859:3879   */\n      sub\n        /* \"#utility.yul\":3855:3856   */\n      0x00\n        /* \"#utility.yul\":3844:3853   */\n      dup4\n        /* \"#utility.yul\":3840:3857   */\n      add\n        /* \"#utility.yul\":3833:3880   */\n      mstore\n        /* \"#utility.yul\":3897:4028   */\n      tag_59\n        /* \"#utility.yul\":4023:4027   */\n      dup2\n        /* \"#utility.yul\":3897:4028   */\n      tag_33\n      jump\t// in\n    tag_59:\n        /* \"#utility.yul\":3889:4028   */\n      swap1\n      pop\n        /* \"#utility.yul\":3616:4035   */\n      swap2\n      swap1\n      pop\n      jump\t// out\n\n    auxdata: 0xa26469706673582212200915db2d303304ac0ddef17a5041410fae8cae671364e9f910b093745256962364736f6c63430008110033\n}\n",
				"bytecode": {
					"linkReferences": {},
					"object": "608060405234801561001057600080fd5b50610332806100206000396000f3fe608060405234801561001057600080fd5b50600436106100365760003560e01c8063c29855781461003b578063febb0f7e14610045575b600080fd5b61004361004f565b005b61004d61008e565b005b7fcf34ef537ac33ee1ac626ca1587a0a7e8e51561e5514f8cb36afa1c5102b3bab60405161007c90610198565b60405180910390a161008c6100cd565b565b7fcf34ef537ac33ee1ac626ca1587a0a7e8e51561e5514f8cb36afa1c5102b3bab6040516100bb90610204565b60405180910390a16100cb610104565b565b7fcf34ef537ac33ee1ac626ca1587a0a7e8e51561e5514f8cb36afa1c5102b3bab6040516100fa90610270565b60405180910390a1565b7fcf34ef537ac33ee1ac626ca1587a0a7e8e51561e5514f8cb36afa1c5102b3bab604051610131906102dc565b60405180910390a1565b600082825260208201905092915050565b7f622e666f6f2063616c6c65640000000000000000000000000000000000000000600082015250565b6000610182600c8361013b565b915061018d8261014c565b602082019050919050565b600060208201905081810360008301526101b181610175565b9050919050565b7f622e6261722063616c6c65640000000000000000000000000000000000000000600082015250565b60006101ee600c8361013b565b91506101f9826101b8565b602082019050919050565b6000602082019050818103600083015261021d816101e1565b9050919050565b7f612e666f6f2063616c6c65640000000000000000000000000000000000000000600082015250565b600061025a600c8361013b565b915061026582610224565b602082019050919050565b600060208201905081810360008301526102898161024d565b9050919050565b7f612e62722063616c6c6564000000000000000000000000000000000000000000600082015250565b60006102c6600b8361013b565b91506102d182610290565b602082019050919050565b600060208201905081810360008301526102f5816102b9565b905091905056fea26469706673582212200915db2d303304ac0ddef17a5041410fae8cae671364e9f910b093745256962364736f6c63430008110033",
					"opcodes": "PUSH1 0x80 PUSH1 0x40 MSTORE CALLVALUE DUP1 ISZERO PUSH2 0x10 JUMPI PUSH1 0x0 DUP1 REVERT JUMPDEST POP PUSH2 0x332 DUP1 PUSH2 0x20 PUSH1 0x0 CODECOPY PUSH1 0x0 RETURN INVALID PUSH1 0x80 PUSH1 0x40 MSTORE CALLVALUE DUP1 ISZERO PUSH2 0x10 JUMPI PUSH1 0x0 DUP1 REVERT JUMPDEST POP PUSH1 0x4 CALLDATASIZE LT PUSH2 0x36 JUMPI PUSH1 0x0 CALLDATALOAD PUSH1 0xE0 SHR DUP1 PUSH4 0xC2985578 EQ PUSH2 0x3B JUMPI DUP1 PUSH4 0xFEBB0F7E EQ PUSH2 0x45 JUMPI JUMPDEST PUSH1 0x0 DUP1 REVERT JUMPDEST PUSH2 0x43 PUSH2 0x4F JUMP JUMPDEST STOP JUMPDEST PUSH2 0x4D PUSH2 0x8E JUMP JUMPDEST STOP JUMPDEST PUSH32 0xCF34EF537AC33EE1AC626CA1587A0A7E8E51561E5514F8CB36AFA1C5102B3BAB PUSH1 0x40 MLOAD PUSH2 0x7C SWAP1 PUSH2 0x198 JUMP JUMPDEST PUSH1 0x40 MLOAD DUP1 SWAP2 SUB SWAP1 LOG1 PUSH2 0x8C PUSH2 0xCD JUMP JUMPDEST JUMP JUMPDEST PUSH32 0xCF34EF537AC33EE1AC626CA1587A0A7E8E51561E5514F8CB36AFA1C5102B3BAB PUSH1 0x40 MLOAD PUSH2 0xBB SWAP1 PUSH2 0x204 JUMP JUMPDEST PUSH1 0x40 MLOAD DUP1 SWAP2 SUB SWAP1 LOG1 PUSH2 0xCB PUSH2 0x104 JUMP JUMPDEST JUMP JUMPDEST PUSH32 0xCF34EF537AC33EE1AC626CA1587A0A7E8E51561E5514F8CB36AFA1C5102B3BAB PUSH1 0x40 MLOAD PUSH2 0xFA SWAP1 PUSH2 0x270 JUMP JUMPDEST PUSH1 0x40 MLOAD DUP1 SWAP2 SUB SWAP1 LOG1 JUMP JUMPDEST PUSH32 0xCF34EF537AC33EE1AC626CA1587A0A7E8E51561E5514F8CB36AFA1C5102B3BAB PUSH1 0x40 MLOAD PUSH2 0x131 SWAP1 PUSH2 0x2DC JUMP JUMPDEST PUSH1 0x40 MLOAD DUP1 SWAP2 SUB SWAP1 LOG1 JUMP JUMPDEST PUSH1 0x0 DUP3 DUP3 MSTORE PUSH1 0x20 DUP3 ADD SWAP1 POP SWAP3 SWAP2 POP POP JUMP JUMPDEST PUSH32 0x622E666F6F2063616C6C65640000000000000000000000000000000000000000 PUSH1 0x0 DUP3 ADD MSTORE POP JUMP JUMPDEST PUSH1 0x0 PUSH2 0x182 PUSH1 0xC DUP4 PUSH2 0x13B JUMP JUMPDEST SWAP2 POP PUSH2 0x18D DUP3 PUSH2 0x14C JUMP JUMPDEST PUSH1 0x20 DUP3 ADD SWAP1 POP SWAP2 SWAP1 POP JUMP JUMPDEST PUSH1 0x0 PUSH1 0x20 DUP3 ADD SWAP1 POP DUP2 DUP2 SUB PUSH1 0x0 DUP4 ADD MSTORE PUSH2 0x1B1 DUP2 PUSH2 0x175 JUMP JUMPDEST SWAP1 POP SWAP2 SWAP1 POP JUMP JUMPDEST PUSH32 0x622E6261722063616C6C65640000000000000000000000000000000000000000 PUSH1 0x0 DUP3 ADD MSTORE POP JUMP JUMPDEST PUSH1 0x0 PUSH2 0x1EE PUSH1 0xC DUP4 PUSH2 0x13B JUMP JUMPDEST SWAP2 POP PUSH2 0x1F9 DUP3 PUSH2 0x1B8 JUMP JUMPDEST PUSH1 0x20 DUP3 ADD SWAP1 POP SWAP2 SWAP1 POP JUMP JUMPDEST PUSH1 0x0 PUSH1 0x20 DUP3 ADD SWAP1 POP DUP2 DUP2 SUB PUSH1 0x0 DUP4 ADD MSTORE PUSH2 0x21D DUP2 PUSH2 0x1E1 JUMP JUMPDEST SWAP1 POP SWAP2 SWAP1 POP JUMP JUMPDEST PUSH32 0x612E666F6F2063616C6C65640000000000000000000000000000000000000000 PUSH1 0x0 DUP3 ADD MSTORE POP JUMP JUMPDEST PUSH1 0x0 PUSH2 0x25A PUSH1 0xC DUP4 PUSH2 0x13B JUMP JUMPDEST SWAP2 POP PUSH2 0x265 DUP3 PUSH2 0x224 JUMP JUMPDEST PUSH1 0x20 DUP3 ADD SWAP1 POP SWAP2 SWAP1 POP JUMP JUMPDEST PUSH1 0x0 PUSH1 0x20 DUP3 ADD SWAP1 POP DUP2 DUP2 SUB PUSH1 0x0 DUP4 ADD MSTORE PUSH2 0x289 DUP2 PUSH2 0x24D JUMP JUMPDEST SWAP1 POP SWAP2 SWAP1 POP JUMP JUMPDEST PUSH32 0x612E62722063616C6C6564000000000000000000000000000000000000000000 PUSH1 0x0 DUP3 ADD MSTORE POP JUMP JUMPDEST PUSH1 0x0 PUSH2 0x2C6 PUSH1 0xB DUP4 PUSH2 0x13B JUMP JUMPDEST SWAP2 POP PUSH2 0x2D1 DUP3 PUSH2 0x290 JUMP JUMPDEST PUSH1 0x20 DUP3 ADD SWAP1 POP SWAP2 SWAP1 POP JUMP JUMPDEST PUSH1 0x0 PUSH1 0x20 DUP3 ADD SWAP1 POP DUP2 DUP2 SUB PUSH1 0x0 DUP4 ADD MSTORE PUSH2 0x2F5 DUP2 PUSH2 0x2B9 JUMP JUMPDEST SWAP1 POP SWAP2 SWAP1 POP JUMP INVALID LOG2 PUSH5 0x6970667358 0x22 SLT KECCAK256 MULMOD ISZERO 0xDB 0x2D ADDRESS CALLER DIV 0xAC 0xD 0xDE CALL PUSH27 0x5041410FAE8CAE671364E9F910B093745256962364736F6C634300 ADDMOD GT STOP CALLER "
				},
				"gasEstimates": {
					"creation": {
						"codeDepositCost": "163600",
						"executionCost": "208",
						"totalCost": "163808"
					},
					"external": {
						"bar()": "infinite",
						"foo()": "infinite"
					}
				},
				"methodIdentifiers": {
					"bar()": "febb0f7e",
					"foo()": "c2985578"
				}
			},
			"storageLayout": {
				"storage": [],
				"types": null
			},
			"userdoc": {
				"kind": "user",
				"methods": {},
				"version": 1
			}
		}
	}
}