{
	"solidity/0.8.17/026-CallingParentContract/CallingParentContract.sol": {
		"A": {
			"abi": [
				{
					"anonymous": false,
					"inputs": [
						{
							"indexed": false,
							"internalType": "string",
							"name": "messge",
							"type": "string"
						}
					],
					"name": "Log",
					"type": "event"
				},
				{
					"inputs": [],
					"name": "bar",
					"outputs": [],
					"stateMutability": "nonpayable",
					"type": "function"
				},
				{
					"inputs": [],
					"name": "foo",
					"outputs": [],
					"stateMutability": "nonpayable",
					"type": "function"
				}
			],
			"devdoc": {
				"kind": "dev",
				"methods": {},
				"version": 1
			},
			"evm": {
				"assembly": "    /* \"solidity/0.8.17/026-CallingParentContract/CallingParentContract.sol\":72:269  contract A {... */\n  mstore(0x40, 0x80)\n  callvalue\n  dup1\n  iszero\n  tag_1\n  jumpi\n  0x00\n  dup1\n  revert\ntag_1:\n  pop\n  dataSize(sub_0)\n  dup1\n  dataOffset(sub_0)\n  0x00\n  codecopy\n  0x00\n  return\nstop\n\nsub_0: assembly {\n        /* \"solidity/0.8.17/026-CallingParentContract/CallingParentContract.sol\":72:269  contract A {... */\n      mstore(0x40, 0x80)\n      callvalue\n      dup1\n      iszero\n      tag_1\n      jumpi\n      0x00\n      dup1\n      revert\n    tag_1:\n      pop\n      jumpi(tag_2, lt(calldatasize, 0x04))\n      shr(0xe0, calldataload(0x00))\n      dup1\n      0xc2985578\n      eq\n      tag_3\n      jumpi\n      dup1\n      0xfebb0f7e\n      eq\n      tag_4\n      jumpi\n    tag_2:\n      0x00\n      dup1\n      revert\n        /* \"solidity/0.8.17/026-CallingParentContract/CallingParentContract.sol\":120:191  function foo() public virtual {... */\n    tag_3:\n      tag_5\n      tag_6\n      jump\t// in\n    tag_5:\n      stop\n        /* \"solidity/0.8.17/026-CallingParentContract/CallingParentContract.sol\":197:267  function bar() public virtual {... */\n    tag_4:\n      tag_7\n      tag_8\n      jump\t// in\n    tag_7:\n      stop\n        /* \"solidity/0.8.17/026-CallingParentContract/CallingParentContract.sol\":120:191  function foo() public virtual {... */\n    tag_6:\n        /* \"solidity/0.8.17/026-CallingParentContract/CallingParentContract.sol\":165:184  Log(\"a.foo called\") */\n      0xcf34ef537ac33ee1ac626ca1587a0a7e8e51561e5514f8cb36afa1c5102b3bab\n      mload(0x40)\n      tag_10\n      swap1\n      tag_11\n      jump\t// in\n    tag_10:\n      mload(0x40)\n      dup1\n      swap2\n      sub\n      swap1\n      log1\n        /* \"solidity/0.8.17/026-CallingParentContract/CallingParentContract.sol\":120:191  function foo() public virtual {... */\n      jump\t// out\n        /* \"solidity/0.8.17/026-CallingParentContract/CallingParentContract.sol\":197:267  function bar() public virtual {... */\n    tag_8:\n        /* \"solidity/0.8.17/026-CallingParentContract/CallingParentContract.sol\":242:260  Log(\"a.br called\") */\n      0xcf34ef537ac33ee1ac626ca1587a0a7e8e51561e5514f8cb36afa1c5102b3bab\n      mload(0x40)\n      tag_13\n      swap1\n      tag_14\n      jump\t// in\n    tag_13:\n      mload(0x40)\n      dup1\n      swap2\n      sub\n      swap1\n      log1\n        /* \"solidity/0.8.17/026-CallingParentContract/CallingParentContract.sol\":197:267  function bar() public virtual {... */\n      jump\t// out\n        /* \"#utility.yul\":7:176   */\n    tag_15:\n        /* \"#utility.yul\":91:102   */\n      0x00\n        /* \"#utility.yul\":125:131   */\n      dup3\n        /* \"#utility.yul\":120:123   */\n      dup3\n        /* \"#utility.yul\":113:132   */\n      mstore\n        /* \"#utility.yul\":165:169   */\n      0x20\n        /* \"#utility.yul\":160:163   */\n      dup3\n        /* \"#utility.yul\":156:170   */\n      add\n        /* \"#utility.yul\":141:170   */\n      swap1\n      pop\n        /* \"#utility.yul\":7:176   */\n      swap3\n      swap2\n      pop\n      pop\n      jump\t// out\n        /* \"#utility.yul\":182:344   */\n    tag_16:\n        /* \"#utility.yul\":322:336   */\n      0x612e666f6f2063616c6c65640000000000000000000000000000000000000000\n        /* \"#utility.yul\":318:319   */\n      0x00\n        /* \"#utility.yul\":310:316   */\n      dup3\n        /* \"#utility.yul\":306:320   */\n      add\n        /* \"#utility.yul\":299:337   */\n      mstore\n        /* \"#utility.yul\":182:344   */\n      pop\n      jump\t// out\n        /* \"#utility.yul\":350:716   */\n    tag_17:\n        /* \"#utility.yul\":492:495   */\n      0x00\n        /* \"#utility.yul\":513:580   */\n      tag_24\n        /* \"#utility.yul\":577:579   */\n      0x0c\n        /* \"#utility.yul\":572:575   */\n      dup4\n        /* \"#utility.yul\":513:580   */\n      tag_15\n      jump\t// in\n    tag_24:\n        /* \"#utility.yul\":506:580   */\n      swap2\n      pop\n        /* \"#utility.yul\":589:682   */\n      tag_25\n        /* \"#utility.yul\":678:681   */\n      dup3\n        /* \"#utility.yul\":589:682   */\n      tag_16\n      jump\t// in\n    tag_25:\n        /* \"#utility.yul\":707:709   */\n      0x20\n        /* \"#utility.yul\":702:705   */\n      dup3\n        /* \"#utility.yul\":698:710   */\n      add\n        /* \"#utility.yul\":691:710   */\n      swap1\n      pop\n        /* \"#utility.yul\":350:716   */\n      swap2\n      swap1\n      pop\n      jump\t// out\n        /* \"#utility.yul\":722:1141   */\n    tag_11:\n        /* \"#utility.yul\":888:892   */\n      0x00\n        /* \"#utility.yul\":926:928   */\n      0x20\n        /* \"#utility.yul\":915:924   */\n      dup3\n        /* \"#utility.yul\":911:929   */\n      add\n        /* \"#utility.yul\":903:929   */\n      swap1\n      pop\n        /* \"#utility.yul\":975:984   */\n      dup2\n        /* \"#utility.yul\":969:973   */\n      dup2\n        /* \"#utility.yul\":965:985   */\n      sub\n        /* \"#utility.yul\":961:962   */\n      0x00\n        /* \"#utility.yul\":950:959   */\n      dup4\n        /* \"#utility.yul\":946:963   */\n      add\n        /* \"#utility.yul\":939:986   */\n      mstore\n        /* \"#utility.yul\":1003:1134   */\n      tag_27\n        /* \"#utility.yul\":1129:1133   */\n      dup2\n        /* \"#utility.yul\":1003:1134   */\n      tag_17\n      jump\t// in\n    tag_27:\n        /* \"#utility.yul\":995:1134   */\n      swap1\n      pop\n        /* \"#utility.yul\":722:1141   */\n      swap2\n      swap1\n      pop\n      jump\t// out\n        /* \"#utility.yul\":1147:1308   */\n    tag_18:\n        /* \"#utility.yul\":1287:1300   */\n      0x612e62722063616c6c6564000000000000000000000000000000000000000000\n        /* \"#utility.yul\":1283:1284   */\n      0x00\n        /* \"#utility.yul\":1275:1281   */\n      dup3\n        /* \"#utility.yul\":1271:1285   */\n      add\n        /* \"#utility.yul\":1264:1301   */\n      mstore\n        /* \"#utility.yul\":1147:1308   */\n      pop\n      jump\t// out\n        /* \"#utility.yul\":1314:1680   */\n    tag_19:\n        /* \"#utility.yul\":1456:1459   */\n      0x00\n        /* \"#utility.yul\":1477:1544   */\n      tag_30\n        /* \"#utility.yul\":1541:1543   */\n      0x0b\n        /* \"#utility.yul\":1536:1539   */\n      dup4\n        /* \"#utility.yul\":1477:1544   */\n      tag_15\n      jump\t// in\n    tag_30:\n        /* \"#utility.yul\":1470:1544   */\n      swap2\n      pop\n        /* \"#utility.yul\":1553:1646   */\n      tag_31\n        /* \"#utility.yul\":1642:1645   */\n      dup3\n        /* \"#utility.yul\":1553:1646   */\n      tag_18\n      jump\t// in\n    tag_31:\n        /* \"#utility.yul\":1671:1673   */\n      0x20\n        /* \"#utility.yul\":1666:1669   */\n      dup3\n        /* \"#utility.yul\":1662:1674   */\n      add\n        /* \"#utility.yul\":1655:1674   */\n      swap1\n      pop\n        /* \"#utility.yul\":1314:1680   */\n      swap2\n      swap1\n      pop\n      jump\t// out\n        /* \"#utility.yul\":1686:2105   */\n    tag_14:\n        /* \"#utility.yul\":1852:1856   */\n      0x00\n        /* \"#utility.yul\":1890:1892   */\n      0x20\n        /* \"#utility.yul\":1879:1888   */\n      dup3\n        /* \"#utility.yul\":1875:1893   */\n      add\n        /* \"#utility.yul\":1867:1893   */\n      swap1\n      pop\n        /* \"#utility.yul\":1939:1948   */\n      dup2\n        /* \"#utility.yul\":1933:1937   */\n      dup2\n        /* \"#utility.yul\":1929:1949   */\n      sub\n        /* \"#utility.yul\":1925:1926   */\n      0x00\n        /* \"#utility.yul\":1914:1923   */\n      dup4\n        /* \"#utility.yul\":1910:1927   */\n      add\n        /* \"#utility.yul\":1903:1950   */\n      mstore\n        /* \"#utility.yul\":1967:2098   */\n      tag_33\n        /* \"#utility.yul\":2093:2097   */\n      dup2\n        /* \"#utility.yul\":1967:2098   */\n      tag_19\n      jump\t// in\n    tag_33:\n        /* \"#utility.yul\":1959:2098   */\n      swap1\n      pop\n        /* \"#utility.yul\":1686:2105   */\n      swap2\n      swap1\n      pop\n      jump\t// out\n\n    auxdata: 0xa264697066735822122097265c02bf6a749e312dfa8c16bc580c88aad25b82c982d2b441a67bc362475c64736f6c63430008110033\n}\n",
				"bytecode": {
					"linkReferences": {},
					"object": "608060405234801561001057600080fd5b506101dc806100206000396000f3fe608060405234801561001057600080fd5b50600436106100365760003560e01c8063c29855781461003b578063febb0f7e14610045575b600080fd5b61004361004f565b005b61004d610086565b005b7fcf34ef537ac33ee1ac626ca1587a0a7e8e51561e5514f8cb36afa1c5102b3bab60405161007c9061011a565b60405180910390a1565b7fcf34ef537ac33ee1ac626ca1587a0a7e8e51561e5514f8cb36afa1c5102b3bab6040516100b390610186565b60405180910390a1565b600082825260208201905092915050565b7f612e666f6f2063616c6c65640000000000000000000000000000000000000000600082015250565b6000610104600c836100bd565b915061010f826100ce565b602082019050919050565b60006020820190508181036000830152610133816100f7565b9050919050565b7f612e62722063616c6c6564000000000000000000000000000000000000000000600082015250565b6000610170600b836100bd565b915061017b8261013a565b602082019050919050565b6000602082019050818103600083015261019f81610163565b905091905056fea264697066735822122097265c02bf6a749e312dfa8c16bc580c88aad25b82c982d2b441a67bc362475c64736f6c63430008110033",
					"opcodes": "PUSH1 0x80 PUSH1 0x40 MSTORE CALLVALUE DUP1 ISZERO PUSH2 0x10 JUMPI PUSH1 0x0 DUP1 REVERT JUMPDEST POP PUSH2 0x1DC DUP1 PUSH2 0x20 PUSH1 0x0 CODECOPY PUSH1 0x0 RETURN INVALID PUSH1 0x80 PUSH1 0x40 MSTORE CALLVALUE DUP1 ISZERO PUSH2 0x10 JUMPI PUSH1 0x0 DUP1 REVERT JUMPDEST POP PUSH1 0x4 CALLDATASIZE LT PUSH2 0x36 JUMPI PUSH1 0x0 CALLDATALOAD PUSH1 0xE0 SHR DUP1 PUSH4 0xC2985578 EQ PUSH2 0x3B JUMPI DUP1 PUSH4 0xFEBB0F7E EQ PUSH2 0x45 JUMPI JUMPDEST PUSH1 0x0 DUP1 REVERT JUMPDEST PUSH2 0x43 PUSH2 0x4F JUMP JUMPDEST STOP JUMPDEST PUSH2 0x4D PUSH2 0x86 JUMP JUMPDEST STOP JUMPDEST PUSH32 0xCF34EF537AC33EE1AC626CA1587A0A7E8E51561E5514F8CB36AFA1C5102B3BAB PUSH1 0x40 MLOAD PUSH2 0x7C SWAP1 PUSH2 0x11A JUMP JUMPDEST PUSH1 0x40 MLOAD DUP1 SWAP2 SUB SWAP1 LOG1 JUMP JUMPDEST PUSH32 0xCF34EF537AC33EE1AC626CA1587A0A7E8E51561E5514F8CB36AFA1C5102B3BAB PUSH1 0x40 MLOAD PUSH2 0xB3 SWAP1 PUSH2 0x186 JUMP JUMPDEST PUSH1 0x40 MLOAD DUP1 SWAP2 SUB SWAP1 LOG1 JUMP JUMPDEST PUSH1 0x0 DUP3 DUP3 MSTORE PUSH1 0x20 DUP3 ADD SWAP1 POP SWAP3 SWAP2 POP POP JUMP JUMPDEST PUSH32 0x612E666F6F2063616C6C65640000000000000000000000000000000000000000 PUSH1 0x0 DUP3 ADD MSTORE POP JUMP JUMPDEST PUSH1 0x0 PUSH2 0x104 PUSH1 0xC DUP4 PUSH2 0xBD JUMP JUMPDEST SWAP2 POP PUSH2 0x10F DUP3 PUSH2 0xCE JUMP JUMPDEST PUSH1 0x20 DUP3 ADD SWAP1 POP SWAP2 SWAP1 POP JUMP JUMPDEST PUSH1 0x0 PUSH1 0x20 DUP3 ADD SWAP1 POP DUP2 DUP2 SUB PUSH1 0x0 DUP4 ADD MSTORE PUSH2 0x133 DUP2 PUSH2 0xF7 JUMP JUMPDEST SWAP1 POP SWAP2 SWAP1 POP JUMP JUMPDEST PUSH32 0x612E62722063616C6C6564000000000000000000000000000000000000000000 PUSH1 0x0 DUP3 ADD MSTORE POP JUMP JUMPDEST PUSH1 0x0 PUSH2 0x170 PUSH1 0xB DUP4 PUSH2 0xBD JUMP JUMPDEST SWAP2 POP PUSH2 0x17B DUP3 PUSH2 0x13A JUMP JUMPDEST PUSH1 0x20 DUP3 ADD SWAP1 POP SWAP2 SWAP1 POP JUMP JUMPDEST PUSH1 0x0 PUSH1 0x20 DUP3 ADD SWAP1 POP DUP2 DUP2 SUB PUSH1 0x0 DUP4 ADD MSTORE PUSH2 0x19F DUP2 PUSH2 0x163 JUMP JUMPDEST SWAP1 POP SWAP2 SWAP1 POP JUMP INVALID LOG2 PUSH5 0x6970667358 0x22 SLT KECCAK256 SWAP8 0x26 0x5C MUL 0xBF PUSH11 0x749E312DFA8C16BC580C88 0xAA 0xD2 JUMPDEST DUP3 0xC9 DUP3 0xD2 0xB4 COINBASE 0xA6 PUSH28 0xC362475C64736F6C6343000811003300000000000000000000000000 "
				},
				"gasEstimates": {
					"creation": {
						"codeDepositCost": "95200",
						"executionCost": "141",
						"totalCost": "95341"
					},
					"external": {
						"bar()": "1946",
						"foo()": "1924"
					}
				},
				"methodIdentifiers": {
					"bar()": "febb0f7e",
					"foo()": "c2985578"
				}
			},
			"storageLayout": {
				"storage": [],
				"types": null
			},
			"userdoc": {
				"kind": "user",
				"methods": {},
				"version": 1
			}
		}
	}
}