{
	"solidity/Basic/002-Loops/while_loop.sol": {
		"WhileLoopTest": {
			"abi": [
				{
					"inputs": [],
					"stateMutability": "nonpayable",
					"type": "constructor"
				},
				{
					"inputs": [],
					"name": "getResult",
					"outputs": [
						{
							"internalType": "string",
							"name": "",
							"type": "string"
						}
					],
					"stateMutability": "view",
					"type": "function"
				}
			],
			"devdoc": {
				"kind": "dev",
				"methods": {},
				"version": 1
			},
			"evm": {
				"assembly": "    /* \"solidity/Basic/002-Loops/while_loop.sol\":34:811  contract WhileLoopTest {... */\n  mstore(0x40, 0x80)\n    /* \"solidity/Basic/002-Loops/while_loop.sol\":89:135  constructor() {... */\n  callvalue\n  dup1\n  iszero\n  tag_1\n  jumpi\n  0x00\n  dup1\n  revert\ntag_1:\n  pop\n    /* \"solidity/Basic/002-Loops/while_loop.sol\":126:128  10 */\n  0x0a\n    /* \"solidity/Basic/002-Loops/while_loop.sol\":113:123  storedData */\n  0x00\n    /* \"solidity/Basic/002-Loops/while_loop.sol\":113:128  storedData = 10 */\n  dup2\n  swap1\n  sstore\n  pop\n    /* \"solidity/Basic/002-Loops/while_loop.sol\":34:811  contract WhileLoopTest {... */\n  dataSize(sub_0)\n  dup1\n  dataOffset(sub_0)\n  0x00\n  codecopy\n  0x00\n  return\nstop\n\nsub_0: assembly {\n        /* \"solidity/Basic/002-Loops/while_loop.sol\":34:811  contract WhileLoopTest {... */\n      mstore(0x40, 0x80)\n      callvalue\n      dup1\n      iszero\n      tag_1\n      jumpi\n      0x00\n      dup1\n      revert\n    tag_1:\n      pop\n      jumpi(tag_2, lt(calldatasize, 0x04))\n      shr(0xe0, calldataload(0x00))\n      dup1\n      0xde292789\n      eq\n      tag_3\n      jumpi\n    tag_2:\n      0x00\n      dup1\n      revert\n        /* \"solidity/Basic/002-Loops/while_loop.sol\":141:316  function getResult() public view returns (string memory) {... */\n    tag_3:\n      tag_4\n      tag_5\n      jump\t// in\n    tag_4:\n      mload(0x40)\n      tag_6\n      swap2\n      swap1\n      tag_7\n      jump\t// in\n    tag_6:\n      mload(0x40)\n      dup1\n      swap2\n      sub\n      swap1\n      return\n    tag_5:\n        /* \"solidity/Basic/002-Loops/while_loop.sol\":183:196  string memory */\n      0x60\n        /* \"solidity/Basic/002-Loops/while_loop.sol\":208:214  uint a */\n      0x00\n        /* \"solidity/Basic/002-Loops/while_loop.sol\":217:219  10 */\n      0x0a\n        /* \"solidity/Basic/002-Loops/while_loop.sol\":208:219  uint a = 10 */\n      swap1\n      pop\n        /* \"solidity/Basic/002-Loops/while_loop.sol\":229:235  uint b */\n      0x00\n        /* \"solidity/Basic/002-Loops/while_loop.sol\":238:240  10 */\n      0x0a\n        /* \"solidity/Basic/002-Loops/while_loop.sol\":229:240  uint b = 10 */\n      swap1\n      pop\n        /* \"solidity/Basic/002-Loops/while_loop.sol\":250:261  uint result */\n      0x00\n        /* \"solidity/Basic/002-Loops/while_loop.sol\":268:269  b */\n      dup2\n        /* \"solidity/Basic/002-Loops/while_loop.sol\":264:265  a */\n      dup4\n        /* \"solidity/Basic/002-Loops/while_loop.sol\":264:269  a + b */\n      tag_9\n      swap2\n      swap1\n      tag_10\n      jump\t// in\n    tag_9:\n        /* \"solidity/Basic/002-Loops/while_loop.sol\":250:269  uint result = a + b */\n      swap1\n      pop\n        /* \"solidity/Basic/002-Loops/while_loop.sol\":286:309  integerToString(result) */\n      tag_11\n        /* \"solidity/Basic/002-Loops/while_loop.sol\":302:308  result */\n      dup2\n        /* \"solidity/Basic/002-Loops/while_loop.sol\":286:301  integerToString */\n      tag_12\n        /* \"solidity/Basic/002-Loops/while_loop.sol\":286:309  integerToString(result) */\n      jump\t// in\n    tag_11:\n        /* \"solidity/Basic/002-Loops/while_loop.sol\":279:309  return integerToString(result) */\n      swap4\n      pop\n      pop\n      pop\n      pop\n        /* \"solidity/Basic/002-Loops/while_loop.sol\":141:316  function getResult() public view returns (string memory) {... */\n      swap1\n      jump\t// out\n        /* \"solidity/Basic/002-Loops/while_loop.sol\":322:808  function integerToString(uint _i) internal pure returns (string memory) {... */\n    tag_12:\n        /* \"solidity/Basic/002-Loops/while_loop.sol\":379:392  string memory */\n      0x60\n        /* \"solidity/Basic/002-Loops/while_loop.sol\":414:415  0 */\n      0x00\n        /* \"solidity/Basic/002-Loops/while_loop.sol\":408:410  _i */\n      dup3\n        /* \"solidity/Basic/002-Loops/while_loop.sol\":408:415  _i == 0 */\n      eq\n        /* \"solidity/Basic/002-Loops/while_loop.sol\":404:452  if (_i == 0) {... */\n      iszero\n      tag_14\n      jumpi\n        /* \"solidity/Basic/002-Loops/while_loop.sol\":431:441  return \"0\" */\n      mload(0x40)\n      dup1\n      0x40\n      add\n      0x40\n      mstore\n      dup1\n      0x01\n      dup2\n      mstore\n      0x20\n      add\n      0x3000000000000000000000000000000000000000000000000000000000000000\n      dup2\n      mstore\n      pop\n      swap1\n      pop\n      jump(tag_13)\n        /* \"solidity/Basic/002-Loops/while_loop.sol\":404:452  if (_i == 0) {... */\n    tag_14:\n        /* \"solidity/Basic/002-Loops/while_loop.sol\":462:468  uint j */\n      0x00\n        /* \"solidity/Basic/002-Loops/while_loop.sol\":471:473  _i */\n      dup3\n        /* \"solidity/Basic/002-Loops/while_loop.sol\":462:473  uint j = _i */\n      swap1\n      pop\n        /* \"solidity/Basic/002-Loops/while_loop.sol\":483:491  uint len */\n      0x00\n        /* \"solidity/Basic/002-Loops/while_loop.sol\":502:568  while (j != 0) {... */\n    tag_15:\n        /* \"solidity/Basic/002-Loops/while_loop.sol\":514:515  0 */\n      0x00\n        /* \"solidity/Basic/002-Loops/while_loop.sol\":509:510  j */\n      dup3\n        /* \"solidity/Basic/002-Loops/while_loop.sol\":509:515  j != 0 */\n      eq\n        /* \"solidity/Basic/002-Loops/while_loop.sol\":502:568  while (j != 0) {... */\n      tag_16\n      jumpi\n        /* \"solidity/Basic/002-Loops/while_loop.sol\":531:536  len++ */\n      dup1\n      dup1\n      tag_17\n      swap1\n      tag_18\n      jump\t// in\n    tag_17:\n      swap2\n      pop\n      pop\n        /* \"solidity/Basic/002-Loops/while_loop.sol\":555:557  10 */\n      0x0a\n        /* \"solidity/Basic/002-Loops/while_loop.sol\":550:557  j /= 10 */\n      dup3\n      tag_19\n      swap2\n      swap1\n      tag_20\n      jump\t// in\n    tag_19:\n      swap2\n      pop\n        /* \"solidity/Basic/002-Loops/while_loop.sol\":502:568  while (j != 0) {... */\n      jump(tag_15)\n    tag_16:\n        /* \"solidity/Basic/002-Loops/while_loop.sol\":578:595  bytes memory bstr */\n      0x00\n        /* \"solidity/Basic/002-Loops/while_loop.sol\":608:611  len */\n      dup2\n        /* \"solidity/Basic/002-Loops/while_loop.sol\":598:612  new bytes(len) */\n      0xffffffffffffffff\n      dup2\n      gt\n      iszero\n      tag_21\n      jumpi\n      tag_22\n      tag_23\n      jump\t// in\n    tag_22:\n    tag_21:\n      mload(0x40)\n      swap1\n      dup1\n      dup3\n      mstore\n      dup1\n      0x1f\n      add\n      not(0x1f)\n      and\n      0x20\n      add\n      dup3\n      add\n      0x40\n      mstore\n      dup1\n      iszero\n      tag_24\n      jumpi\n      dup2\n      0x20\n      add\n      0x01\n      dup3\n      mul\n      dup1\n      calldatasize\n      dup4\n      calldatacopy\n      dup1\n      dup3\n      add\n      swap2\n      pop\n      pop\n      swap1\n      pop\n    tag_24:\n      pop\n        /* \"solidity/Basic/002-Loops/while_loop.sol\":578:612  bytes memory bstr = new bytes(len) */\n      swap1\n      pop\n        /* \"solidity/Basic/002-Loops/while_loop.sol\":622:628  uint k */\n      0x00\n        /* \"solidity/Basic/002-Loops/while_loop.sol\":637:638  1 */\n      0x01\n        /* \"solidity/Basic/002-Loops/while_loop.sol\":631:634  len */\n      dup4\n        /* \"solidity/Basic/002-Loops/while_loop.sol\":631:638  len - 1 */\n      tag_25\n      swap2\n      swap1\n      tag_26\n      jump\t// in\n    tag_25:\n        /* \"solidity/Basic/002-Loops/while_loop.sol\":622:638  uint k = len - 1 */\n      swap1\n      pop\n        /* \"solidity/Basic/002-Loops/while_loop.sol\":655:772  while (_i != 0) { // while loop... */\n    tag_27:\n        /* \"solidity/Basic/002-Loops/while_loop.sol\":668:669  0 */\n      0x00\n        /* \"solidity/Basic/002-Loops/while_loop.sol\":662:664  _i */\n      dup7\n        /* \"solidity/Basic/002-Loops/while_loop.sol\":662:669  _i != 0 */\n      eq\n        /* \"solidity/Basic/002-Loops/while_loop.sol\":655:772  while (_i != 0) { // while loop... */\n      tag_28\n      jumpi\n        /* \"solidity/Basic/002-Loops/while_loop.sol\":759:761  10 */\n      0x0a\n        /* \"solidity/Basic/002-Loops/while_loop.sol\":753:761  _i /= 10 */\n      dup7\n      tag_29\n      swap2\n      swap1\n      tag_20\n      jump\t// in\n    tag_29:\n      swap6\n      pop\n        /* \"solidity/Basic/002-Loops/while_loop.sol\":655:772  while (_i != 0) { // while loop... */\n      jump(tag_27)\n    tag_28:\n        /* \"solidity/Basic/002-Loops/while_loop.sol\":796:800  bstr */\n      dup2\n        /* \"solidity/Basic/002-Loops/while_loop.sol\":782:801  return string(bstr) */\n      swap5\n      pop\n      pop\n      pop\n      pop\n      pop\n        /* \"solidity/Basic/002-Loops/while_loop.sol\":322:808  function integerToString(uint _i) internal pure returns (string memory) {... */\n    tag_13:\n      swap2\n      swap1\n      pop\n      jump\t// out\n        /* \"#utility.yul\":7:371   */\n    tag_31:\n        /* \"#utility.yul\":95:98   */\n      0x00\n        /* \"#utility.yul\":123:162   */\n      tag_33\n        /* \"#utility.yul\":156:161   */\n      dup3\n        /* \"#utility.yul\":123:162   */\n      tag_34\n      jump\t// in\n    tag_33:\n        /* \"#utility.yul\":178:249   */\n      tag_35\n        /* \"#utility.yul\":242:248   */\n      dup2\n        /* \"#utility.yul\":237:240   */\n      dup6\n        /* \"#utility.yul\":178:249   */\n      tag_36\n      jump\t// in\n    tag_35:\n        /* \"#utility.yul\":171:249   */\n      swap4\n      pop\n        /* \"#utility.yul\":258:310   */\n      tag_37\n        /* \"#utility.yul\":303:309   */\n      dup2\n        /* \"#utility.yul\":298:301   */\n      dup6\n        /* \"#utility.yul\":291:295   */\n      0x20\n        /* \"#utility.yul\":284:289   */\n      dup7\n        /* \"#utility.yul\":280:296   */\n      add\n        /* \"#utility.yul\":258:310   */\n      tag_38\n      jump\t// in\n    tag_37:\n        /* \"#utility.yul\":335:364   */\n      tag_39\n        /* \"#utility.yul\":357:363   */\n      dup2\n        /* \"#utility.yul\":335:364   */\n      tag_40\n      jump\t// in\n    tag_39:\n        /* \"#utility.yul\":330:333   */\n      dup5\n        /* \"#utility.yul\":326:365   */\n      add\n        /* \"#utility.yul\":319:365   */\n      swap2\n      pop\n        /* \"#utility.yul\":99:371   */\n      pop\n        /* \"#utility.yul\":7:371   */\n      swap3\n      swap2\n      pop\n      pop\n      jump\t// out\n        /* \"#utility.yul\":377:690   */\n    tag_7:\n        /* \"#utility.yul\":490:494   */\n      0x00\n        /* \"#utility.yul\":528:530   */\n      0x20\n        /* \"#utility.yul\":517:526   */\n      dup3\n        /* \"#utility.yul\":513:531   */\n      add\n        /* \"#utility.yul\":505:531   */\n      swap1\n      pop\n        /* \"#utility.yul\":577:586   */\n      dup2\n        /* \"#utility.yul\":571:575   */\n      dup2\n        /* \"#utility.yul\":567:587   */\n      sub\n        /* \"#utility.yul\":563:564   */\n      0x00\n        /* \"#utility.yul\":552:561   */\n      dup4\n        /* \"#utility.yul\":548:565   */\n      add\n        /* \"#utility.yul\":541:588   */\n      mstore\n        /* \"#utility.yul\":605:683   */\n      tag_42\n        /* \"#utility.yul\":678:682   */\n      dup2\n        /* \"#utility.yul\":669:675   */\n      dup5\n        /* \"#utility.yul\":605:683   */\n      tag_31\n      jump\t// in\n    tag_42:\n        /* \"#utility.yul\":597:683   */\n      swap1\n      pop\n        /* \"#utility.yul\":377:690   */\n      swap3\n      swap2\n      pop\n      pop\n      jump\t// out\n        /* \"#utility.yul\":696:795   */\n    tag_34:\n        /* \"#utility.yul\":748:754   */\n      0x00\n        /* \"#utility.yul\":782:787   */\n      dup2\n        /* \"#utility.yul\":776:788   */\n      mload\n        /* \"#utility.yul\":766:788   */\n      swap1\n      pop\n        /* \"#utility.yul\":696:795   */\n      swap2\n      swap1\n      pop\n      jump\t// out\n        /* \"#utility.yul\":801:970   */\n    tag_36:\n        /* \"#utility.yul\":885:896   */\n      0x00\n        /* \"#utility.yul\":919:925   */\n      dup3\n        /* \"#utility.yul\":914:917   */\n      dup3\n        /* \"#utility.yul\":907:926   */\n      mstore\n        /* \"#utility.yul\":959:963   */\n      0x20\n        /* \"#utility.yul\":954:957   */\n      dup3\n        /* \"#utility.yul\":950:964   */\n      add\n        /* \"#utility.yul\":935:964   */\n      swap1\n      pop\n        /* \"#utility.yul\":801:970   */\n      swap3\n      swap2\n      pop\n      pop\n      jump\t// out\n        /* \"#utility.yul\":976:1281   */\n    tag_10:\n        /* \"#utility.yul\":1016:1019   */\n      0x00\n        /* \"#utility.yul\":1035:1055   */\n      tag_46\n        /* \"#utility.yul\":1053:1054   */\n      dup3\n        /* \"#utility.yul\":1035:1055   */\n      tag_47\n      jump\t// in\n    tag_46:\n        /* \"#utility.yul\":1030:1055   */\n      swap2\n      pop\n        /* \"#utility.yul\":1069:1089   */\n      tag_48\n        /* \"#utility.yul\":1087:1088   */\n      dup4\n        /* \"#utility.yul\":1069:1089   */\n      tag_47\n      jump\t// in\n    tag_48:\n        /* \"#utility.yul\":1064:1089   */\n      swap3\n      pop\n        /* \"#utility.yul\":1223:1224   */\n      dup3\n        /* \"#utility.yul\":1155:1221   */\n      0xffffffffffffffffffffffffffffffffffffffffffffffffffffffffffffffff\n        /* \"#utility.yul\":1151:1225   */\n      sub\n        /* \"#utility.yul\":1148:1149   */\n      dup3\n        /* \"#utility.yul\":1145:1226   */\n      gt\n        /* \"#utility.yul\":1142:1249   */\n      iszero\n      tag_49\n      jumpi\n        /* \"#utility.yul\":1229:1247   */\n      tag_50\n      tag_51\n      jump\t// in\n    tag_50:\n        /* \"#utility.yul\":1142:1249   */\n    tag_49:\n        /* \"#utility.yul\":1273:1274   */\n      dup3\n        /* \"#utility.yul\":1270:1271   */\n      dup3\n        /* \"#utility.yul\":1266:1275   */\n      add\n        /* \"#utility.yul\":1259:1275   */\n      swap1\n      pop\n        /* \"#utility.yul\":976:1281   */\n      swap3\n      swap2\n      pop\n      pop\n      jump\t// out\n        /* \"#utility.yul\":1287:1472   */\n    tag_20:\n        /* \"#utility.yul\":1327:1328   */\n      0x00\n        /* \"#utility.yul\":1344:1364   */\n      tag_53\n        /* \"#utility.yul\":1362:1363   */\n      dup3\n        /* \"#utility.yul\":1344:1364   */\n      tag_47\n      jump\t// in\n    tag_53:\n        /* \"#utility.yul\":1339:1364   */\n      swap2\n      pop\n        /* \"#utility.yul\":1378:1398   */\n      tag_54\n        /* \"#utility.yul\":1396:1397   */\n      dup4\n        /* \"#utility.yul\":1378:1398   */\n      tag_47\n      jump\t// in\n    tag_54:\n        /* \"#utility.yul\":1373:1398   */\n      swap3\n      pop\n        /* \"#utility.yul\":1417:1418   */\n      dup3\n        /* \"#utility.yul\":1407:1442   */\n      tag_55\n      jumpi\n        /* \"#utility.yul\":1422:1440   */\n      tag_56\n      tag_57\n      jump\t// in\n    tag_56:\n        /* \"#utility.yul\":1407:1442   */\n    tag_55:\n        /* \"#utility.yul\":1464:1465   */\n      dup3\n        /* \"#utility.yul\":1461:1462   */\n      dup3\n        /* \"#utility.yul\":1457:1466   */\n      div\n        /* \"#utility.yul\":1452:1466   */\n      swap1\n      pop\n        /* \"#utility.yul\":1287:1472   */\n      swap3\n      swap2\n      pop\n      pop\n      jump\t// out\n        /* \"#utility.yul\":1478:1669   */\n    tag_26:\n        /* \"#utility.yul\":1518:1522   */\n      0x00\n        /* \"#utility.yul\":1538:1558   */\n      tag_59\n        /* \"#utility.yul\":1556:1557   */\n      dup3\n        /* \"#utility.yul\":1538:1558   */\n      tag_47\n      jump\t// in\n    tag_59:\n        /* \"#utility.yul\":1533:1558   */\n      swap2\n      pop\n        /* \"#utility.yul\":1572:1592   */\n      tag_60\n        /* \"#utility.yul\":1590:1591   */\n      dup4\n        /* \"#utility.yul\":1572:1592   */\n      tag_47\n      jump\t// in\n    tag_60:\n        /* \"#utility.yul\":1567:1592   */\n      swap3\n      pop\n        /* \"#utility.yul\":1611:1612   */\n      dup3\n        /* \"#utility.yul\":1608:1609   */\n      dup3\n        /* \"#utility.yul\":1605:1613   */\n      lt\n        /* \"#utility.yul\":1602:1636   */\n      iszero\n      tag_61\n      jumpi\n        /* \"#utility.yul\":1616:1634   */\n      tag_62\n      tag_51\n      jump\t// in\n    tag_62:\n        /* \"#utility.yul\":1602:1636   */\n    tag_61:\n        /* \"#utility.yul\":1661:1662   */\n      dup3\n        /* \"#utility.yul\":1658:1659   */\n      dup3\n        /* \"#utility.yul\":1654:1663   */\n      sub\n        /* \"#utility.yul\":1646:1663   */\n      swap1\n      pop\n        /* \"#utility.yul\":1478:1669   */\n      swap3\n      swap2\n      pop\n      pop\n      jump\t// out\n        /* \"#utility.yul\":1675:1752   */\n    tag_47:\n        /* \"#utility.yul\":1712:1719   */\n      0x00\n        /* \"#utility.yul\":1741:1746   */\n      dup2\n        /* \"#utility.yul\":1730:1746   */\n      swap1\n      pop\n        /* \"#utility.yul\":1675:1752   */\n      swap2\n      swap1\n      pop\n      jump\t// out\n        /* \"#utility.yul\":1758:2065   */\n    tag_38:\n        /* \"#utility.yul\":1826:1827   */\n      0x00\n        /* \"#utility.yul\":1836:1949   */\n    tag_65:\n        /* \"#utility.yul\":1850:1856   */\n      dup4\n        /* \"#utility.yul\":1847:1848   */\n      dup2\n        /* \"#utility.yul\":1844:1857   */\n      lt\n        /* \"#utility.yul\":1836:1949   */\n      iszero\n      tag_67\n      jumpi\n        /* \"#utility.yul\":1935:1936   */\n      dup1\n        /* \"#utility.yul\":1930:1933   */\n      dup3\n        /* \"#utility.yul\":1926:1937   */\n      add\n        /* \"#utility.yul\":1920:1938   */\n      mload\n        /* \"#utility.yul\":1916:1917   */\n      dup2\n        /* \"#utility.yul\":1911:1914   */\n      dup5\n        /* \"#utility.yul\":1907:1918   */\n      add\n        /* \"#utility.yul\":1900:1939   */\n      mstore\n        /* \"#utility.yul\":1872:1874   */\n      0x20\n        /* \"#utility.yul\":1869:1870   */\n      dup2\n        /* \"#utility.yul\":1865:1875   */\n      add\n        /* \"#utility.yul\":1860:1875   */\n      swap1\n      pop\n        /* \"#utility.yul\":1836:1949   */\n      jump(tag_65)\n    tag_67:\n        /* \"#utility.yul\":1967:1973   */\n      dup4\n        /* \"#utility.yul\":1964:1965   */\n      dup2\n        /* \"#utility.yul\":1961:1974   */\n      gt\n        /* \"#utility.yul\":1958:2059   */\n      iszero\n      tag_68\n      jumpi\n        /* \"#utility.yul\":2047:2048   */\n      0x00\n        /* \"#utility.yul\":2038:2044   */\n      dup5\n        /* \"#utility.yul\":2033:2036   */\n      dup5\n        /* \"#utility.yul\":2029:2045   */\n      add\n        /* \"#utility.yul\":2022:2049   */\n      mstore\n        /* \"#utility.yul\":1958:2059   */\n    tag_68:\n        /* \"#utility.yul\":1807:2065   */\n      pop\n        /* \"#utility.yul\":1758:2065   */\n      pop\n      pop\n      pop\n      jump\t// out\n        /* \"#utility.yul\":2071:2304   */\n    tag_18:\n        /* \"#utility.yul\":2110:2113   */\n      0x00\n        /* \"#utility.yul\":2133:2157   */\n      tag_70\n        /* \"#utility.yul\":2151:2156   */\n      dup3\n        /* \"#utility.yul\":2133:2157   */\n      tag_47\n      jump\t// in\n    tag_70:\n        /* \"#utility.yul\":2124:2157   */\n      swap2\n      pop\n        /* \"#utility.yul\":2179:2245   */\n      0xffffffffffffffffffffffffffffffffffffffffffffffffffffffffffffffff\n        /* \"#utility.yul\":2172:2177   */\n      dup3\n        /* \"#utility.yul\":2169:2246   */\n      eq\n        /* \"#utility.yul\":2166:2269   */\n      iszero\n      tag_71\n      jumpi\n        /* \"#utility.yul\":2249:2267   */\n      tag_72\n      tag_51\n      jump\t// in\n    tag_72:\n        /* \"#utility.yul\":2166:2269   */\n    tag_71:\n        /* \"#utility.yul\":2296:2297   */\n      0x01\n        /* \"#utility.yul\":2289:2294   */\n      dup3\n        /* \"#utility.yul\":2285:2298   */\n      add\n        /* \"#utility.yul\":2278:2298   */\n      swap1\n      pop\n        /* \"#utility.yul\":2071:2304   */\n      swap2\n      swap1\n      pop\n      jump\t// out\n        /* \"#utility.yul\":2310:2490   */\n    tag_51:\n        /* \"#utility.yul\":2358:2435   */\n      0x4e487b7100000000000000000000000000000000000000000000000000000000\n        /* \"#utility.yul\":2355:2356   */\n      0x00\n        /* \"#utility.yul\":2348:2436   */\n      mstore\n        /* \"#utility.yul\":2455:2459   */\n      0x11\n        /* \"#utility.yul\":2452:2453   */\n      0x04\n        /* \"#utility.yul\":2445:2460   */\n      mstore\n        /* \"#utility.yul\":2479:2483   */\n      0x24\n        /* \"#utility.yul\":2476:2477   */\n      0x00\n        /* \"#utility.yul\":2469:2484   */\n      revert\n        /* \"#utility.yul\":2496:2676   */\n    tag_57:\n        /* \"#utility.yul\":2544:2621   */\n      0x4e487b7100000000000000000000000000000000000000000000000000000000\n        /* \"#utility.yul\":2541:2542   */\n      0x00\n        /* \"#utility.yul\":2534:2622   */\n      mstore\n        /* \"#utility.yul\":2641:2645   */\n      0x12\n        /* \"#utility.yul\":2638:2639   */\n      0x04\n        /* \"#utility.yul\":2631:2646   */\n      mstore\n        /* \"#utility.yul\":2665:2669   */\n      0x24\n        /* \"#utility.yul\":2662:2663   */\n      0x00\n        /* \"#utility.yul\":2655:2670   */\n      revert\n        /* \"#utility.yul\":2682:2862   */\n    tag_23:\n        /* \"#utility.yul\":2730:2807   */\n      0x4e487b7100000000000000000000000000000000000000000000000000000000\n        /* \"#utility.yul\":2727:2728   */\n      0x00\n        /* \"#utility.yul\":2720:2808   */\n      mstore\n        /* \"#utility.yul\":2827:2831   */\n      0x41\n        /* \"#utility.yul\":2824:2825   */\n      0x04\n        /* \"#utility.yul\":2817:2832   */\n      mstore\n        /* \"#utility.yul\":2851:2855   */\n      0x24\n        /* \"#utility.yul\":2848:2849   */\n      0x00\n        /* \"#utility.yul\":2841:2856   */\n      revert\n        /* \"#utility.yul\":2868:2970   */\n    tag_40:\n        /* \"#utility.yul\":2909:2915   */\n      0x00\n        /* \"#utility.yul\":2960:2962   */\n      0x1f\n        /* \"#utility.yul\":2956:2963   */\n      not\n        /* \"#utility.yul\":2951:2953   */\n      0x1f\n        /* \"#utility.yul\":2944:2949   */\n      dup4\n        /* \"#utility.yul\":2940:2954   */\n      add\n        /* \"#utility.yul\":2936:2964   */\n      and\n        /* \"#utility.yul\":2926:2964   */\n      swap1\n      pop\n        /* \"#utility.yul\":2868:2970   */\n      swap2\n      swap1\n      pop\n      jump\t// out\n\n    auxdata: 0xa26469706673582212207d05ee6a74c269411f2ab33ed02525f6cc7b4de29d75c32d94bccfce0c38df3064736f6c63430008070033\n}\n",
				"bytecode": {
					"linkReferences": {},
					"object": "608060405234801561001057600080fd5b50600a60008190555061040f806100286000396000f3fe608060405234801561001057600080fd5b506004361061002b5760003560e01c8063de29278914610030575b600080fd5b61003861004e565b60405161004591906101bc565b60405180910390f35b60606000600a90506000600a90506000818361006a91906101fa565b90506100758161007d565b935050505090565b606060008214156100c5576040518060400160405280600181526020017f3000000000000000000000000000000000000000000000000000000000000000815250905061017e565b600082905060005b600082146100f75780806100e0906102f2565b915050600a826100f09190610250565b91506100cd565b60008167ffffffffffffffff81111561011357610112610399565b5b6040519080825280601f01601f1916602001820160405280156101455781602001600182028036833780820191505090505b50905060006001836101579190610281565b90505b6000861461017657600a8661016f9190610250565b955061015a565b819450505050505b919050565b600061018e826101de565b61019881856101e9565b93506101a88185602086016102bf565b6101b1816103c8565b840191505092915050565b600060208201905081810360008301526101d68184610183565b905092915050565b600081519050919050565b600082825260208201905092915050565b6000610205826102b5565b9150610210836102b5565b9250827fffffffffffffffffffffffffffffffffffffffffffffffffffffffffffffffff038211156102455761024461033b565b5b828201905092915050565b600061025b826102b5565b9150610266836102b5565b9250826102765761027561036a565b5b828204905092915050565b600061028c826102b5565b9150610297836102b5565b9250828210156102aa576102a961033b565b5b828203905092915050565b6000819050919050565b60005b838110156102dd5780820151818401526020810190506102c2565b838111156102ec576000848401525b50505050565b60006102fd826102b5565b91507fffffffffffffffffffffffffffffffffffffffffffffffffffffffffffffffff8214156103305761032f61033b565b5b600182019050919050565b7f4e487b7100000000000000000000000000000000000000000000000000000000600052601160045260246000fd5b7f4e487b7100000000000000000000000000000000000000000000000000000000600052601260045260246000fd5b7f4e487b7100000000000000000000000000000000000000000000000000000000600052604160045260246000fd5b6000601f19601f830116905091905056fea26469706673582212207d05ee6a74c269411f2ab33ed02525f6cc7b4de29d75c32d94bccfce0c38df3064736f6c63430008070033",
					"opcodes": "PUSH1 0x80 PUSH1 0x40 MSTORE CALLVALUE DUP1 ISZERO PUSH2 0x10 JUMPI PUSH1 0x0 DUP1 REVERT JUMPDEST POP PUSH1 0xA PUSH1 0x0 DUP2 SWAP1 SSTORE POP PUSH2 0x40F DUP1 PUSH2 0x28 PUSH1 0x0 CODECOPY PUSH1 0x0 RETURN INVALID PUSH1 0x80 PUSH1 0x40 MSTORE CALLVALUE DUP1 ISZERO PUSH2 0x10 JUMPI PUSH1 0x0 DUP1 REVERT JUMPDEST POP PUSH1 0x4 CALLDATASIZE LT PUSH2 0x2B JUMPI PUSH1 0x0 CALLDATALOAD PUSH1 0xE0 SHR DUP1 PUSH4 0xDE292789 EQ PUSH2 0x30 JUMPI JUMPDEST PUSH1 0x0 DUP1 REVERT JUMPDEST PUSH2 0x38 PUSH2 0x4E JUMP JUMPDEST PUSH1 0x40 MLOAD PUSH2 0x45 SWAP2 SWAP1 PUSH2 0x1BC JUMP JUMPDEST PUSH1 0x40 MLOAD DUP1 SWAP2 SUB SWAP1 RETURN JUMPDEST PUSH1 0x60 PUSH1 0x0 PUSH1 0xA SWAP1 POP PUSH1 0x0 PUSH1 0xA SWAP1 POP PUSH1 0x0 DUP2 DUP4 PUSH2 0x6A SWAP2 SWAP1 PUSH2 0x1FA JUMP JUMPDEST SWAP1 POP PUSH2 0x75 DUP2 PUSH2 0x7D JUMP JUMPDEST SWAP4 POP POP POP POP SWAP1 JUMP JUMPDEST PUSH1 0x60 PUSH1 0x0 DUP3 EQ ISZERO PUSH2 0xC5 JUMPI PUSH1 0x40 MLOAD DUP1 PUSH1 0x40 ADD PUSH1 0x40 MSTORE DUP1 PUSH1 0x1 DUP2 MSTORE PUSH1 0x20 ADD PUSH32 0x3000000000000000000000000000000000000000000000000000000000000000 DUP2 MSTORE POP SWAP1 POP PUSH2 0x17E JUMP JUMPDEST PUSH1 0x0 DUP3 SWAP1 POP PUSH1 0x0 JUMPDEST PUSH1 0x0 DUP3 EQ PUSH2 0xF7 JUMPI DUP1 DUP1 PUSH2 0xE0 SWAP1 PUSH2 0x2F2 JUMP JUMPDEST SWAP2 POP POP PUSH1 0xA DUP3 PUSH2 0xF0 SWAP2 SWAP1 PUSH2 0x250 JUMP JUMPDEST SWAP2 POP PUSH2 0xCD JUMP JUMPDEST PUSH1 0x0 DUP2 PUSH8 0xFFFFFFFFFFFFFFFF DUP2 GT ISZERO PUSH2 0x113 JUMPI PUSH2 0x112 PUSH2 0x399 JUMP JUMPDEST JUMPDEST PUSH1 0x40 MLOAD SWAP1 DUP1 DUP3 MSTORE DUP1 PUSH1 0x1F ADD PUSH1 0x1F NOT AND PUSH1 0x20 ADD DUP3 ADD PUSH1 0x40 MSTORE DUP1 ISZERO PUSH2 0x145 JUMPI DUP2 PUSH1 0x20 ADD PUSH1 0x1 DUP3 MUL DUP1 CALLDATASIZE DUP4 CALLDATACOPY DUP1 DUP3 ADD SWAP2 POP POP SWAP1 POP JUMPDEST POP SWAP1 POP PUSH1 0x0 PUSH1 0x1 DUP4 PUSH2 0x157 SWAP2 SWAP1 PUSH2 0x281 JUMP JUMPDEST SWAP1 POP JUMPDEST PUSH1 0x0 DUP7 EQ PUSH2 0x176 JUMPI PUSH1 0xA DUP7 PUSH2 0x16F SWAP2 SWAP1 PUSH2 0x250 JUMP JUMPDEST SWAP6 POP PUSH2 0x15A JUMP JUMPDEST DUP2 SWAP5 POP POP POP POP POP JUMPDEST SWAP2 SWAP1 POP JUMP JUMPDEST PUSH1 0x0 PUSH2 0x18E DUP3 PUSH2 0x1DE JUMP JUMPDEST PUSH2 0x198 DUP2 DUP6 PUSH2 0x1E9 JUMP JUMPDEST SWAP4 POP PUSH2 0x1A8 DUP2 DUP6 PUSH1 0x20 DUP7 ADD PUSH2 0x2BF JUMP JUMPDEST PUSH2 0x1B1 DUP2 PUSH2 0x3C8 JUMP JUMPDEST DUP5 ADD SWAP2 POP POP SWAP3 SWAP2 POP POP JUMP JUMPDEST PUSH1 0x0 PUSH1 0x20 DUP3 ADD SWAP1 POP DUP2 DUP2 SUB PUSH1 0x0 DUP4 ADD MSTORE PUSH2 0x1D6 DUP2 DUP5 PUSH2 0x183 JUMP JUMPDEST SWAP1 POP SWAP3 SWAP2 POP POP JUMP JUMPDEST PUSH1 0x0 DUP2 MLOAD SWAP1 POP SWAP2 SWAP1 POP JUMP JUMPDEST PUSH1 0x0 DUP3 DUP3 MSTORE PUSH1 0x20 DUP3 ADD SWAP1 POP SWAP3 SWAP2 POP POP JUMP JUMPDEST PUSH1 0x0 PUSH2 0x205 DUP3 PUSH2 0x2B5 JUMP JUMPDEST SWAP2 POP PUSH2 0x210 DUP4 PUSH2 0x2B5 JUMP JUMPDEST SWAP3 POP DUP3 PUSH32 0xFFFFFFFFFFFFFFFFFFFFFFFFFFFFFFFFFFFFFFFFFFFFFFFFFFFFFFFFFFFFFFFF SUB DUP3 GT ISZERO PUSH2 0x245 JUMPI PUSH2 0x244 PUSH2 0x33B JUMP JUMPDEST JUMPDEST DUP3 DUP3 ADD SWAP1 POP SWAP3 SWAP2 POP POP JUMP JUMPDEST PUSH1 0x0 PUSH2 0x25B DUP3 PUSH2 0x2B5 JUMP JUMPDEST SWAP2 POP PUSH2 0x266 DUP4 PUSH2 0x2B5 JUMP JUMPDEST SWAP3 POP DUP3 PUSH2 0x276 JUMPI PUSH2 0x275 PUSH2 0x36A JUMP JUMPDEST JUMPDEST DUP3 DUP3 DIV SWAP1 POP SWAP3 SWAP2 POP POP JUMP JUMPDEST PUSH1 0x0 PUSH2 0x28C DUP3 PUSH2 0x2B5 JUMP JUMPDEST SWAP2 POP PUSH2 0x297 DUP4 PUSH2 0x2B5 JUMP JUMPDEST SWAP3 POP DUP3 DUP3 LT ISZERO PUSH2 0x2AA JUMPI PUSH2 0x2A9 PUSH2 0x33B JUMP JUMPDEST JUMPDEST DUP3 DUP3 SUB SWAP1 POP SWAP3 SWAP2 POP POP JUMP JUMPDEST PUSH1 0x0 DUP2 SWAP1 POP SWAP2 SWAP1 POP JUMP JUMPDEST PUSH1 0x0 JUMPDEST DUP4 DUP2 LT ISZERO PUSH2 0x2DD JUMPI DUP1 DUP3 ADD MLOAD DUP2 DUP5 ADD MSTORE PUSH1 0x20 DUP2 ADD SWAP1 POP PUSH2 0x2C2 JUMP JUMPDEST DUP4 DUP2 GT ISZERO PUSH2 0x2EC JUMPI PUSH1 0x0 DUP5 DUP5 ADD MSTORE JUMPDEST POP POP POP POP JUMP JUMPDEST PUSH1 0x0 PUSH2 0x2FD DUP3 PUSH2 0x2B5 JUMP JUMPDEST SWAP2 POP PUSH32 0xFFFFFFFFFFFFFFFFFFFFFFFFFFFFFFFFFFFFFFFFFFFFFFFFFFFFFFFFFFFFFFFF DUP3 EQ ISZERO PUSH2 0x330 JUMPI PUSH2 0x32F PUSH2 0x33B JUMP JUMPDEST JUMPDEST PUSH1 0x1 DUP3 ADD SWAP1 POP SWAP2 SWAP1 POP JUMP JUMPDEST PUSH32 0x4E487B7100000000000000000000000000000000000000000000000000000000 PUSH1 0x0 MSTORE PUSH1 0x11 PUSH1 0x4 MSTORE PUSH1 0x24 PUSH1 0x0 REVERT JUMPDEST PUSH32 0x4E487B7100000000000000000000000000000000000000000000000000000000 PUSH1 0x0 MSTORE PUSH1 0x12 PUSH1 0x4 MSTORE PUSH1 0x24 PUSH1 0x0 REVERT JUMPDEST PUSH32 0x4E487B7100000000000000000000000000000000000000000000000000000000 PUSH1 0x0 MSTORE PUSH1 0x41 PUSH1 0x4 MSTORE PUSH1 0x24 PUSH1 0x0 REVERT JUMPDEST PUSH1 0x0 PUSH1 0x1F NOT PUSH1 0x1F DUP4 ADD AND SWAP1 POP SWAP2 SWAP1 POP JUMP INVALID LOG2 PUSH5 0x6970667358 0x22 SLT KECCAK256 PUSH30 0x5EE6A74C269411F2AB33ED02525F6CC7B4DE29D75C32D94BCCFCE0C38DF ADDRESS PUSH5 0x736F6C6343 STOP ADDMOD SMOD STOP CALLER "
				},
				"gasEstimates": {
					"creation": {
						"codeDepositCost": "207800",
						"executionCost": "22365",
						"totalCost": "230165"
					},
					"external": {
						"getResult()": "infinite"
					},
					"internal": {
						"integerToString(uint256)": "infinite"
					}
				},
				"methodIdentifiers": {
					"getResult()": "de292789"
				}
			},
			"storageLayout": {
				"storage": [
					{
						"astId": 3,
						"contract": "solidity/Basic/002-Loops/while_loop.sol:WhileLoopTest",
						"label": "storedData",
						"offset": 0,
						"slot": "0",
						"type": "t_uint256"
					}
				],
				"types": {
					"t_uint256": {
						"encoding": "inplace",
						"label": "uint256",
						"numberOfBytes": "32"
					}
				}
			},
			"userdoc": {
				"kind": "user",
				"methods": {},
				"version": 1
			}
		}
	}
}