{
	"solidity/Basic/014-WithdrawalPattern/withdrawal_pattern1.sol": {
		"WithdrawalPatternTest1": {
			"abi": [
				{
					"inputs": [],
					"stateMutability": "payable",
					"type": "constructor"
				},
				{
					"inputs": [],
					"name": "becomeRichest",
					"outputs": [
						{
							"internalType": "bool",
							"name": "",
							"type": "bool"
						}
					],
					"stateMutability": "payable",
					"type": "function"
				},
				{
					"inputs": [],
					"name": "mostSent",
					"outputs": [
						{
							"internalType": "uint256",
							"name": "",
							"type": "uint256"
						}
					],
					"stateMutability": "view",
					"type": "function"
				},
				{
					"inputs": [],
					"name": "richest",
					"outputs": [
						{
							"internalType": "address",
							"name": "",
							"type": "address"
						}
					],
					"stateMutability": "view",
					"type": "function"
				},
				{
					"inputs": [],
					"name": "withdraw",
					"outputs": [],
					"stateMutability": "nonpayable",
					"type": "function"
				}
			],
			"devdoc": {
				"kind": "dev",
				"methods": {},
				"version": 1
			},
			"evm": {
				"assembly": "    /* \"solidity/Basic/014-WithdrawalPattern/withdrawal_pattern1.sol\":34:775  contract WithdrawalPatternTest1 {... */\n  mstore(0x40, 0x80)\n    /* \"solidity/Basic/014-WithdrawalPattern/withdrawal_pattern1.sol\":228:238  msg.sender */\n  caller\n    /* \"solidity/Basic/014-WithdrawalPattern/withdrawal_pattern1.sol\":210:217  richest */\n  0x00\n  dup1\n    /* \"solidity/Basic/014-WithdrawalPattern/withdrawal_pattern1.sol\":210:239  richest = payable(msg.sender) */\n  0x0100\n  exp\n  dup2\n  sload\n  dup2\n  0xffffffffffffffffffffffffffffffffffffffff\n  mul\n  not\n  and\n  swap1\n  dup4\n  0xffffffffffffffffffffffffffffffffffffffff\n  and\n  mul\n  or\n  swap1\n  sstore\n  pop\n    /* \"solidity/Basic/014-WithdrawalPattern/withdrawal_pattern1.sol\":260:269  msg.value */\n  callvalue\n    /* \"solidity/Basic/014-WithdrawalPattern/withdrawal_pattern1.sol\":249:257  mostSent */\n  0x01\n    /* \"solidity/Basic/014-WithdrawalPattern/withdrawal_pattern1.sol\":249:269  mostSent = msg.value */\n  dup2\n  swap1\n  sstore\n  pop\n    /* \"solidity/Basic/014-WithdrawalPattern/withdrawal_pattern1.sol\":34:775  contract WithdrawalPatternTest1 {... */\n  dataSize(sub_0)\n  dup1\n  dataOffset(sub_0)\n  0x00\n  codecopy\n  0x00\n  return\nstop\n\nsub_0: assembly {\n        /* \"solidity/Basic/014-WithdrawalPattern/withdrawal_pattern1.sol\":34:775  contract WithdrawalPatternTest1 {... */\n      mstore(0x40, 0x80)\n      jumpi(tag_1, lt(calldatasize, 0x04))\n      shr(0xe0, calldataload(0x00))\n      dup1\n      0x02e26c38\n      eq\n      tag_2\n      jumpi\n      dup1\n      0x3ccfd60b\n      eq\n      tag_3\n      jumpi\n      dup1\n      0x6886bf1c\n      eq\n      tag_4\n      jumpi\n      dup1\n      0x69934ee7\n      eq\n      tag_5\n      jumpi\n    tag_1:\n      0x00\n      dup1\n      revert\n        /* \"solidity/Basic/014-WithdrawalPattern/withdrawal_pattern1.sol\":72:94  address public richest */\n    tag_2:\n      callvalue\n      dup1\n      iszero\n      tag_6\n      jumpi\n      0x00\n      dup1\n      revert\n    tag_6:\n      pop\n      tag_7\n      tag_8\n      jump\t// in\n    tag_7:\n      mload(0x40)\n      tag_9\n      swap2\n      swap1\n      tag_10\n      jump\t// in\n    tag_9:\n      mload(0x40)\n      dup1\n      swap2\n      sub\n      swap1\n      return\n        /* \"solidity/Basic/014-WithdrawalPattern/withdrawal_pattern1.sol\":595:773  function withdraw() public {... */\n    tag_3:\n      callvalue\n      dup1\n      iszero\n      tag_11\n      jumpi\n      0x00\n      dup1\n      revert\n    tag_11:\n      pop\n      tag_12\n      tag_13\n      jump\t// in\n    tag_12:\n      stop\n        /* \"solidity/Basic/014-WithdrawalPattern/withdrawal_pattern1.sol\":100:120  uint public mostSent */\n    tag_4:\n      callvalue\n      dup1\n      iszero\n      tag_14\n      jumpi\n      0x00\n      dup1\n      revert\n    tag_14:\n      pop\n      tag_15\n      tag_16\n      jump\t// in\n    tag_15:\n      mload(0x40)\n      tag_17\n      swap2\n      swap1\n      tag_18\n      jump\t// in\n    tag_17:\n      mload(0x40)\n      dup1\n      swap2\n      sub\n      swap1\n      return\n        /* \"solidity/Basic/014-WithdrawalPattern/withdrawal_pattern1.sol\":282:589  function becomeRichest() public payable returns (bool) {... */\n    tag_5:\n      tag_19\n      tag_20\n      jump\t// in\n    tag_19:\n      mload(0x40)\n      tag_21\n      swap2\n      swap1\n      tag_22\n      jump\t// in\n    tag_21:\n      mload(0x40)\n      dup1\n      swap2\n      sub\n      swap1\n      return\n        /* \"solidity/Basic/014-WithdrawalPattern/withdrawal_pattern1.sol\":72:94  address public richest */\n    tag_8:\n      0x00\n      dup1\n      sload\n      swap1\n      0x0100\n      exp\n      swap1\n      div\n      0xffffffffffffffffffffffffffffffffffffffff\n      and\n      dup2\n      jump\t// out\n        /* \"solidity/Basic/014-WithdrawalPattern/withdrawal_pattern1.sol\":595:773  function withdraw() public {... */\n    tag_13:\n        /* \"solidity/Basic/014-WithdrawalPattern/withdrawal_pattern1.sol\":632:643  uint amount */\n      0x00\n        /* \"solidity/Basic/014-WithdrawalPattern/withdrawal_pattern1.sol\":646:664  pendingWithdrawals */\n      0x02\n        /* \"solidity/Basic/014-WithdrawalPattern/withdrawal_pattern1.sol\":646:676  pendingWithdrawals[msg.sender] */\n      0x00\n        /* \"solidity/Basic/014-WithdrawalPattern/withdrawal_pattern1.sol\":665:675  msg.sender */\n      caller\n        /* \"solidity/Basic/014-WithdrawalPattern/withdrawal_pattern1.sol\":646:676  pendingWithdrawals[msg.sender] */\n      0xffffffffffffffffffffffffffffffffffffffff\n      and\n      0xffffffffffffffffffffffffffffffffffffffff\n      and\n      dup2\n      mstore\n      0x20\n      add\n      swap1\n      dup2\n      mstore\n      0x20\n      add\n      0x00\n      keccak256\n      sload\n        /* \"solidity/Basic/014-WithdrawalPattern/withdrawal_pattern1.sol\":632:676  uint amount = pendingWithdrawals[msg.sender] */\n      swap1\n      pop\n        /* \"solidity/Basic/014-WithdrawalPattern/withdrawal_pattern1.sol\":719:720  0 */\n      0x00\n        /* \"solidity/Basic/014-WithdrawalPattern/withdrawal_pattern1.sol\":686:704  pendingWithdrawals */\n      0x02\n        /* \"solidity/Basic/014-WithdrawalPattern/withdrawal_pattern1.sol\":686:716  pendingWithdrawals[msg.sender] */\n      0x00\n        /* \"solidity/Basic/014-WithdrawalPattern/withdrawal_pattern1.sol\":705:715  msg.sender */\n      caller\n        /* \"solidity/Basic/014-WithdrawalPattern/withdrawal_pattern1.sol\":686:716  pendingWithdrawals[msg.sender] */\n      0xffffffffffffffffffffffffffffffffffffffff\n      and\n      0xffffffffffffffffffffffffffffffffffffffff\n      and\n      dup2\n      mstore\n      0x20\n      add\n      swap1\n      dup2\n      mstore\n      0x20\n      add\n      0x00\n      keccak256\n        /* \"solidity/Basic/014-WithdrawalPattern/withdrawal_pattern1.sol\":686:720  pendingWithdrawals[msg.sender] = 0 */\n      dup2\n      swap1\n      sstore\n      pop\n        /* \"solidity/Basic/014-WithdrawalPattern/withdrawal_pattern1.sol\":738:748  msg.sender */\n      caller\n        /* \"solidity/Basic/014-WithdrawalPattern/withdrawal_pattern1.sol\":730:758  payable(msg.sender).transfer */\n      0xffffffffffffffffffffffffffffffffffffffff\n      and\n        /* \"solidity/Basic/014-WithdrawalPattern/withdrawal_pattern1.sol\":730:766  payable(msg.sender).transfer(amount) */\n      0x08fc\n        /* \"solidity/Basic/014-WithdrawalPattern/withdrawal_pattern1.sol\":759:765  amount */\n      dup3\n        /* \"solidity/Basic/014-WithdrawalPattern/withdrawal_pattern1.sol\":730:766  payable(msg.sender).transfer(amount) */\n      swap1\n      dup2\n      iszero\n      mul\n      swap1\n      mload(0x40)\n      0x00\n      mload(0x40)\n      dup1\n      dup4\n      sub\n      dup2\n      dup6\n      dup9\n      dup9\n      call\n      swap4\n      pop\n      pop\n      pop\n      pop\n      iszero\n      dup1\n      iszero\n      tag_25\n      jumpi\n      returndatasize\n      0x00\n      dup1\n      returndatacopy\n      revert(0x00, returndatasize)\n    tag_25:\n      pop\n        /* \"solidity/Basic/014-WithdrawalPattern/withdrawal_pattern1.sol\":622:773  {... */\n      pop\n        /* \"solidity/Basic/014-WithdrawalPattern/withdrawal_pattern1.sol\":595:773  function withdraw() public {... */\n      jump\t// out\n        /* \"solidity/Basic/014-WithdrawalPattern/withdrawal_pattern1.sol\":100:120  uint public mostSent */\n    tag_16:\n      sload(0x01)\n      dup2\n      jump\t// out\n        /* \"solidity/Basic/014-WithdrawalPattern/withdrawal_pattern1.sol\":282:589  function becomeRichest() public payable returns (bool) {... */\n    tag_20:\n        /* \"solidity/Basic/014-WithdrawalPattern/withdrawal_pattern1.sol\":331:335  bool */\n      0x00\n        /* \"solidity/Basic/014-WithdrawalPattern/withdrawal_pattern1.sol\":363:371  mostSent */\n      sload(0x01)\n        /* \"solidity/Basic/014-WithdrawalPattern/withdrawal_pattern1.sol\":351:360  msg.value */\n      callvalue\n        /* \"solidity/Basic/014-WithdrawalPattern/withdrawal_pattern1.sol\":351:371  msg.value > mostSent */\n      gt\n        /* \"solidity/Basic/014-WithdrawalPattern/withdrawal_pattern1.sol\":347:583  if (msg.value > mostSent) {... */\n      iszero\n      tag_27\n      jumpi\n        /* \"solidity/Basic/014-WithdrawalPattern/withdrawal_pattern1.sol\":418:427  msg.value */\n      callvalue\n        /* \"solidity/Basic/014-WithdrawalPattern/withdrawal_pattern1.sol\":387:405  pendingWithdrawals */\n      0x02\n        /* \"solidity/Basic/014-WithdrawalPattern/withdrawal_pattern1.sol\":387:414  pendingWithdrawals[richest] */\n      0x00\n        /* \"solidity/Basic/014-WithdrawalPattern/withdrawal_pattern1.sol\":406:413  richest */\n      dup1\n      0x00\n      swap1\n      sload\n      swap1\n      0x0100\n      exp\n      swap1\n      div\n      0xffffffffffffffffffffffffffffffffffffffff\n      and\n        /* \"solidity/Basic/014-WithdrawalPattern/withdrawal_pattern1.sol\":387:414  pendingWithdrawals[richest] */\n      0xffffffffffffffffffffffffffffffffffffffff\n      and\n      0xffffffffffffffffffffffffffffffffffffffff\n      and\n      dup2\n      mstore\n      0x20\n      add\n      swap1\n      dup2\n      mstore\n      0x20\n      add\n      0x00\n      keccak256\n      0x00\n        /* \"solidity/Basic/014-WithdrawalPattern/withdrawal_pattern1.sol\":387:427  pendingWithdrawals[richest] += msg.value */\n      dup3\n      dup3\n      sload\n      tag_28\n      swap2\n      swap1\n      tag_29\n      jump\t// in\n    tag_28:\n      swap3\n      pop\n      pop\n      dup2\n      swap1\n      sstore\n      pop\n        /* \"solidity/Basic/014-WithdrawalPattern/withdrawal_pattern1.sol\":459:469  msg.sender */\n      caller\n        /* \"solidity/Basic/014-WithdrawalPattern/withdrawal_pattern1.sol\":441:448  richest */\n      0x00\n      dup1\n        /* \"solidity/Basic/014-WithdrawalPattern/withdrawal_pattern1.sol\":441:470  richest = payable(msg.sender) */\n      0x0100\n      exp\n      dup2\n      sload\n      dup2\n      0xffffffffffffffffffffffffffffffffffffffff\n      mul\n      not\n      and\n      swap1\n      dup4\n      0xffffffffffffffffffffffffffffffffffffffff\n      and\n      mul\n      or\n      swap1\n      sstore\n      pop\n        /* \"solidity/Basic/014-WithdrawalPattern/withdrawal_pattern1.sol\":495:504  msg.value */\n      callvalue\n        /* \"solidity/Basic/014-WithdrawalPattern/withdrawal_pattern1.sol\":484:492  mostSent */\n      0x01\n        /* \"solidity/Basic/014-WithdrawalPattern/withdrawal_pattern1.sol\":484:504  mostSent = msg.value */\n      dup2\n      swap1\n      sstore\n      pop\n        /* \"solidity/Basic/014-WithdrawalPattern/withdrawal_pattern1.sol\":525:529  true */\n      0x01\n        /* \"solidity/Basic/014-WithdrawalPattern/withdrawal_pattern1.sol\":518:529  return true */\n      swap1\n      pop\n      jump(tag_26)\n        /* \"solidity/Basic/014-WithdrawalPattern/withdrawal_pattern1.sol\":347:583  if (msg.value > mostSent) {... */\n    tag_27:\n        /* \"solidity/Basic/014-WithdrawalPattern/withdrawal_pattern1.sol\":567:572  false */\n      0x00\n        /* \"solidity/Basic/014-WithdrawalPattern/withdrawal_pattern1.sol\":560:572  return false */\n      swap1\n      pop\n        /* \"solidity/Basic/014-WithdrawalPattern/withdrawal_pattern1.sol\":282:589  function becomeRichest() public payable returns (bool) {... */\n    tag_26:\n      swap1\n      jump\t// out\n        /* \"#utility.yul\":7:125   */\n    tag_32:\n        /* \"#utility.yul\":94:118   */\n      tag_34\n        /* \"#utility.yul\":112:117   */\n      dup2\n        /* \"#utility.yul\":94:118   */\n      tag_35\n      jump\t// in\n    tag_34:\n        /* \"#utility.yul\":89:92   */\n      dup3\n        /* \"#utility.yul\":82:119   */\n      mstore\n        /* \"#utility.yul\":7:125   */\n      pop\n      pop\n      jump\t// out\n        /* \"#utility.yul\":131:240   */\n    tag_36:\n        /* \"#utility.yul\":212:233   */\n      tag_38\n        /* \"#utility.yul\":227:232   */\n      dup2\n        /* \"#utility.yul\":212:233   */\n      tag_39\n      jump\t// in\n    tag_38:\n        /* \"#utility.yul\":207:210   */\n      dup3\n        /* \"#utility.yul\":200:234   */\n      mstore\n        /* \"#utility.yul\":131:240   */\n      pop\n      pop\n      jump\t// out\n        /* \"#utility.yul\":246:364   */\n    tag_40:\n        /* \"#utility.yul\":333:357   */\n      tag_42\n        /* \"#utility.yul\":351:356   */\n      dup2\n        /* \"#utility.yul\":333:357   */\n      tag_43\n      jump\t// in\n    tag_42:\n        /* \"#utility.yul\":328:331   */\n      dup3\n        /* \"#utility.yul\":321:358   */\n      mstore\n        /* \"#utility.yul\":246:364   */\n      pop\n      pop\n      jump\t// out\n        /* \"#utility.yul\":370:592   */\n    tag_10:\n        /* \"#utility.yul\":463:467   */\n      0x00\n        /* \"#utility.yul\":501:503   */\n      0x20\n        /* \"#utility.yul\":490:499   */\n      dup3\n        /* \"#utility.yul\":486:504   */\n      add\n        /* \"#utility.yul\":478:504   */\n      swap1\n      pop\n        /* \"#utility.yul\":514:585   */\n      tag_45\n        /* \"#utility.yul\":582:583   */\n      0x00\n        /* \"#utility.yul\":571:580   */\n      dup4\n        /* \"#utility.yul\":567:584   */\n      add\n        /* \"#utility.yul\":558:564   */\n      dup5\n        /* \"#utility.yul\":514:585   */\n      tag_32\n      jump\t// in\n    tag_45:\n        /* \"#utility.yul\":370:592   */\n      swap3\n      swap2\n      pop\n      pop\n      jump\t// out\n        /* \"#utility.yul\":598:808   */\n    tag_22:\n        /* \"#utility.yul\":685:689   */\n      0x00\n        /* \"#utility.yul\":723:725   */\n      0x20\n        /* \"#utility.yul\":712:721   */\n      dup3\n        /* \"#utility.yul\":708:726   */\n      add\n        /* \"#utility.yul\":700:726   */\n      swap1\n      pop\n        /* \"#utility.yul\":736:801   */\n      tag_47\n        /* \"#utility.yul\":798:799   */\n      0x00\n        /* \"#utility.yul\":787:796   */\n      dup4\n        /* \"#utility.yul\":783:800   */\n      add\n        /* \"#utility.yul\":774:780   */\n      dup5\n        /* \"#utility.yul\":736:801   */\n      tag_36\n      jump\t// in\n    tag_47:\n        /* \"#utility.yul\":598:808   */\n      swap3\n      swap2\n      pop\n      pop\n      jump\t// out\n        /* \"#utility.yul\":814:1036   */\n    tag_18:\n        /* \"#utility.yul\":907:911   */\n      0x00\n        /* \"#utility.yul\":945:947   */\n      0x20\n        /* \"#utility.yul\":934:943   */\n      dup3\n        /* \"#utility.yul\":930:948   */\n      add\n        /* \"#utility.yul\":922:948   */\n      swap1\n      pop\n        /* \"#utility.yul\":958:1029   */\n      tag_49\n        /* \"#utility.yul\":1026:1027   */\n      0x00\n        /* \"#utility.yul\":1015:1024   */\n      dup4\n        /* \"#utility.yul\":1011:1028   */\n      add\n        /* \"#utility.yul\":1002:1008   */\n      dup5\n        /* \"#utility.yul\":958:1029   */\n      tag_40\n      jump\t// in\n    tag_49:\n        /* \"#utility.yul\":814:1036   */\n      swap3\n      swap2\n      pop\n      pop\n      jump\t// out\n        /* \"#utility.yul\":1042:1347   */\n    tag_29:\n        /* \"#utility.yul\":1082:1085   */\n      0x00\n        /* \"#utility.yul\":1101:1121   */\n      tag_51\n        /* \"#utility.yul\":1119:1120   */\n      dup3\n        /* \"#utility.yul\":1101:1121   */\n      tag_43\n      jump\t// in\n    tag_51:\n        /* \"#utility.yul\":1096:1121   */\n      swap2\n      pop\n        /* \"#utility.yul\":1135:1155   */\n      tag_52\n        /* \"#utility.yul\":1153:1154   */\n      dup4\n        /* \"#utility.yul\":1135:1155   */\n      tag_43\n      jump\t// in\n    tag_52:\n        /* \"#utility.yul\":1130:1155   */\n      swap3\n      pop\n        /* \"#utility.yul\":1289:1290   */\n      dup3\n        /* \"#utility.yul\":1221:1287   */\n      0xffffffffffffffffffffffffffffffffffffffffffffffffffffffffffffffff\n        /* \"#utility.yul\":1217:1291   */\n      sub\n        /* \"#utility.yul\":1214:1215   */\n      dup3\n        /* \"#utility.yul\":1211:1292   */\n      gt\n        /* \"#utility.yul\":1208:1315   */\n      iszero\n      tag_53\n      jumpi\n        /* \"#utility.yul\":1295:1313   */\n      tag_54\n      tag_55\n      jump\t// in\n    tag_54:\n        /* \"#utility.yul\":1208:1315   */\n    tag_53:\n        /* \"#utility.yul\":1339:1340   */\n      dup3\n        /* \"#utility.yul\":1336:1337   */\n      dup3\n        /* \"#utility.yul\":1332:1341   */\n      add\n        /* \"#utility.yul\":1325:1341   */\n      swap1\n      pop\n        /* \"#utility.yul\":1042:1347   */\n      swap3\n      swap2\n      pop\n      pop\n      jump\t// out\n        /* \"#utility.yul\":1353:1449   */\n    tag_35:\n        /* \"#utility.yul\":1390:1397   */\n      0x00\n        /* \"#utility.yul\":1419:1443   */\n      tag_57\n        /* \"#utility.yul\":1437:1442   */\n      dup3\n        /* \"#utility.yul\":1419:1443   */\n      tag_58\n      jump\t// in\n    tag_57:\n        /* \"#utility.yul\":1408:1443   */\n      swap1\n      pop\n        /* \"#utility.yul\":1353:1449   */\n      swap2\n      swap1\n      pop\n      jump\t// out\n        /* \"#utility.yul\":1455:1545   */\n    tag_39:\n        /* \"#utility.yul\":1489:1496   */\n      0x00\n        /* \"#utility.yul\":1532:1537   */\n      dup2\n        /* \"#utility.yul\":1525:1538   */\n      iszero\n        /* \"#utility.yul\":1518:1539   */\n      iszero\n        /* \"#utility.yul\":1507:1539   */\n      swap1\n      pop\n        /* \"#utility.yul\":1455:1545   */\n      swap2\n      swap1\n      pop\n      jump\t// out\n        /* \"#utility.yul\":1551:1677   */\n    tag_58:\n        /* \"#utility.yul\":1588:1595   */\n      0x00\n        /* \"#utility.yul\":1628:1670   */\n      0xffffffffffffffffffffffffffffffffffffffff\n        /* \"#utility.yul\":1621:1626   */\n      dup3\n        /* \"#utility.yul\":1617:1671   */\n      and\n        /* \"#utility.yul\":1606:1671   */\n      swap1\n      pop\n        /* \"#utility.yul\":1551:1677   */\n      swap2\n      swap1\n      pop\n      jump\t// out\n        /* \"#utility.yul\":1683:1760   */\n    tag_43:\n        /* \"#utility.yul\":1720:1727   */\n      0x00\n        /* \"#utility.yul\":1749:1754   */\n      dup2\n        /* \"#utility.yul\":1738:1754   */\n      swap1\n      pop\n        /* \"#utility.yul\":1683:1760   */\n      swap2\n      swap1\n      pop\n      jump\t// out\n        /* \"#utility.yul\":1766:1946   */\n    tag_55:\n        /* \"#utility.yul\":1814:1891   */\n      0x4e487b7100000000000000000000000000000000000000000000000000000000\n        /* \"#utility.yul\":1811:1812   */\n      0x00\n        /* \"#utility.yul\":1804:1892   */\n      mstore\n        /* \"#utility.yul\":1911:1915   */\n      0x11\n        /* \"#utility.yul\":1908:1909   */\n      0x04\n        /* \"#utility.yul\":1901:1916   */\n      mstore\n        /* \"#utility.yul\":1935:1939   */\n      0x24\n        /* \"#utility.yul\":1932:1933   */\n      0x00\n        /* \"#utility.yul\":1925:1940   */\n      revert\n\n    auxdata: 0xa26469706673582212207bfc99e14ebf7d7334e939b18929482a272070bdc25f159141c5c6de964b4cb964736f6c63430008070033\n}\n",
				"bytecode": {
					"linkReferences": {},
					"object": "6080604052336000806101000a81548173ffffffffffffffffffffffffffffffffffffffff021916908373ffffffffffffffffffffffffffffffffffffffff160217905550346001819055506104288061005a6000396000f3fe60806040526004361061003f5760003560e01c806302e26c38146100445780633ccfd60b1461006f5780636886bf1c1461008657806369934ee7146100b1575b600080fd5b34801561005057600080fd5b506100596100cf565b60405161006691906102d4565b60405180910390f35b34801561007b57600080fd5b506100846100f3565b005b34801561009257600080fd5b5061009b6101c6565b6040516100a8919061030a565b60405180910390f35b6100b96101cc565b6040516100c691906102ef565b60405180910390f35b60008054906101000a900473ffffffffffffffffffffffffffffffffffffffff1681565b6000600260003373ffffffffffffffffffffffffffffffffffffffff1673ffffffffffffffffffffffffffffffffffffffff1681526020019081526020016000205490506000600260003373ffffffffffffffffffffffffffffffffffffffff1673ffffffffffffffffffffffffffffffffffffffff168152602001908152602001600020819055503373ffffffffffffffffffffffffffffffffffffffff166108fc829081150290604051600060405180830381858888f193505050501580156101c2573d6000803e3d6000fd5b5050565b60015481565b600060015434111561029f5734600260008060009054906101000a900473ffffffffffffffffffffffffffffffffffffffff1673ffffffffffffffffffffffffffffffffffffffff1673ffffffffffffffffffffffffffffffffffffffff16815260200190815260200160002060008282546102489190610325565b92505081905550336000806101000a81548173ffffffffffffffffffffffffffffffffffffffff021916908373ffffffffffffffffffffffffffffffffffffffff16021790555034600181905550600190506102a4565b600090505b90565b6102b08161037b565b82525050565b6102bf8161038d565b82525050565b6102ce816103b9565b82525050565b60006020820190506102e960008301846102a7565b92915050565b600060208201905061030460008301846102b6565b92915050565b600060208201905061031f60008301846102c5565b92915050565b6000610330826103b9565b915061033b836103b9565b9250827fffffffffffffffffffffffffffffffffffffffffffffffffffffffffffffffff038211156103705761036f6103c3565b5b828201905092915050565b600061038682610399565b9050919050565b60008115159050919050565b600073ffffffffffffffffffffffffffffffffffffffff82169050919050565b6000819050919050565b7f4e487b7100000000000000000000000000000000000000000000000000000000600052601160045260246000fdfea26469706673582212207bfc99e14ebf7d7334e939b18929482a272070bdc25f159141c5c6de964b4cb964736f6c63430008070033",
					"opcodes": "PUSH1 0x80 PUSH1 0x40 MSTORE CALLER PUSH1 0x0 DUP1 PUSH2 0x100 EXP DUP2 SLOAD DUP2 PUSH20 0xFFFFFFFFFFFFFFFFFFFFFFFFFFFFFFFFFFFFFFFF MUL NOT AND SWAP1 DUP4 PUSH20 0xFFFFFFFFFFFFFFFFFFFFFFFFFFFFFFFFFFFFFFFF AND MUL OR SWAP1 SSTORE POP CALLVALUE PUSH1 0x1 DUP2 SWAP1 SSTORE POP PUSH2 0x428 DUP1 PUSH2 0x5A PUSH1 0x0 CODECOPY PUSH1 0x0 RETURN INVALID PUSH1 0x80 PUSH1 0x40 MSTORE PUSH1 0x4 CALLDATASIZE LT PUSH2 0x3F JUMPI PUSH1 0x0 CALLDATALOAD PUSH1 0xE0 SHR DUP1 PUSH4 0x2E26C38 EQ PUSH2 0x44 JUMPI DUP1 PUSH4 0x3CCFD60B EQ PUSH2 0x6F JUMPI DUP1 PUSH4 0x6886BF1C EQ PUSH2 0x86 JUMPI DUP1 PUSH4 0x69934EE7 EQ PUSH2 0xB1 JUMPI JUMPDEST PUSH1 0x0 DUP1 REVERT JUMPDEST CALLVALUE DUP1 ISZERO PUSH2 0x50 JUMPI PUSH1 0x0 DUP1 REVERT JUMPDEST POP PUSH2 0x59 PUSH2 0xCF JUMP JUMPDEST PUSH1 0x40 MLOAD PUSH2 0x66 SWAP2 SWAP1 PUSH2 0x2D4 JUMP JUMPDEST PUSH1 0x40 MLOAD DUP1 SWAP2 SUB SWAP1 RETURN JUMPDEST CALLVALUE DUP1 ISZERO PUSH2 0x7B JUMPI PUSH1 0x0 DUP1 REVERT JUMPDEST POP PUSH2 0x84 PUSH2 0xF3 JUMP JUMPDEST STOP JUMPDEST CALLVALUE DUP1 ISZERO PUSH2 0x92 JUMPI PUSH1 0x0 DUP1 REVERT JUMPDEST POP PUSH2 0x9B PUSH2 0x1C6 JUMP JUMPDEST PUSH1 0x40 MLOAD PUSH2 0xA8 SWAP2 SWAP1 PUSH2 0x30A JUMP JUMPDEST PUSH1 0x40 MLOAD DUP1 SWAP2 SUB SWAP1 RETURN JUMPDEST PUSH2 0xB9 PUSH2 0x1CC JUMP JUMPDEST PUSH1 0x40 MLOAD PUSH2 0xC6 SWAP2 SWAP1 PUSH2 0x2EF JUMP JUMPDEST PUSH1 0x40 MLOAD DUP1 SWAP2 SUB SWAP1 RETURN JUMPDEST PUSH1 0x0 DUP1 SLOAD SWAP1 PUSH2 0x100 EXP SWAP1 DIV PUSH20 0xFFFFFFFFFFFFFFFFFFFFFFFFFFFFFFFFFFFFFFFF AND DUP2 JUMP JUMPDEST PUSH1 0x0 PUSH1 0x2 PUSH1 0x0 CALLER PUSH20 0xFFFFFFFFFFFFFFFFFFFFFFFFFFFFFFFFFFFFFFFF AND PUSH20 0xFFFFFFFFFFFFFFFFFFFFFFFFFFFFFFFFFFFFFFFF AND DUP2 MSTORE PUSH1 0x20 ADD SWAP1 DUP2 MSTORE PUSH1 0x20 ADD PUSH1 0x0 KECCAK256 SLOAD SWAP1 POP PUSH1 0x0 PUSH1 0x2 PUSH1 0x0 CALLER PUSH20 0xFFFFFFFFFFFFFFFFFFFFFFFFFFFFFFFFFFFFFFFF AND PUSH20 0xFFFFFFFFFFFFFFFFFFFFFFFFFFFFFFFFFFFFFFFF AND DUP2 MSTORE PUSH1 0x20 ADD SWAP1 DUP2 MSTORE PUSH1 0x20 ADD PUSH1 0x0 KECCAK256 DUP2 SWAP1 SSTORE POP CALLER PUSH20 0xFFFFFFFFFFFFFFFFFFFFFFFFFFFFFFFFFFFFFFFF AND PUSH2 0x8FC DUP3 SWAP1 DUP2 ISZERO MUL SWAP1 PUSH1 0x40 MLOAD PUSH1 0x0 PUSH1 0x40 MLOAD DUP1 DUP4 SUB DUP2 DUP6 DUP9 DUP9 CALL SWAP4 POP POP POP POP ISZERO DUP1 ISZERO PUSH2 0x1C2 JUMPI RETURNDATASIZE PUSH1 0x0 DUP1 RETURNDATACOPY RETURNDATASIZE PUSH1 0x0 REVERT JUMPDEST POP POP JUMP JUMPDEST PUSH1 0x1 SLOAD DUP2 JUMP JUMPDEST PUSH1 0x0 PUSH1 0x1 SLOAD CALLVALUE GT ISZERO PUSH2 0x29F JUMPI CALLVALUE PUSH1 0x2 PUSH1 0x0 DUP1 PUSH1 0x0 SWAP1 SLOAD SWAP1 PUSH2 0x100 EXP SWAP1 DIV PUSH20 0xFFFFFFFFFFFFFFFFFFFFFFFFFFFFFFFFFFFFFFFF AND PUSH20 0xFFFFFFFFFFFFFFFFFFFFFFFFFFFFFFFFFFFFFFFF AND PUSH20 0xFFFFFFFFFFFFFFFFFFFFFFFFFFFFFFFFFFFFFFFF AND DUP2 MSTORE PUSH1 0x20 ADD SWAP1 DUP2 MSTORE PUSH1 0x20 ADD PUSH1 0x0 KECCAK256 PUSH1 0x0 DUP3 DUP3 SLOAD PUSH2 0x248 SWAP2 SWAP1 PUSH2 0x325 JUMP JUMPDEST SWAP3 POP POP DUP2 SWAP1 SSTORE POP CALLER PUSH1 0x0 DUP1 PUSH2 0x100 EXP DUP2 SLOAD DUP2 PUSH20 0xFFFFFFFFFFFFFFFFFFFFFFFFFFFFFFFFFFFFFFFF MUL NOT AND SWAP1 DUP4 PUSH20 0xFFFFFFFFFFFFFFFFFFFFFFFFFFFFFFFFFFFFFFFF AND MUL OR SWAP1 SSTORE POP CALLVALUE PUSH1 0x1 DUP2 SWAP1 SSTORE POP PUSH1 0x1 SWAP1 POP PUSH2 0x2A4 JUMP JUMPDEST PUSH1 0x0 SWAP1 POP JUMPDEST SWAP1 JUMP JUMPDEST PUSH2 0x2B0 DUP2 PUSH2 0x37B JUMP JUMPDEST DUP3 MSTORE POP POP JUMP JUMPDEST PUSH2 0x2BF DUP2 PUSH2 0x38D JUMP JUMPDEST DUP3 MSTORE POP POP JUMP JUMPDEST PUSH2 0x2CE DUP2 PUSH2 0x3B9 JUMP JUMPDEST DUP3 MSTORE POP POP JUMP JUMPDEST PUSH1 0x0 PUSH1 0x20 DUP3 ADD SWAP1 POP PUSH2 0x2E9 PUSH1 0x0 DUP4 ADD DUP5 PUSH2 0x2A7 JUMP JUMPDEST SWAP3 SWAP2 POP POP JUMP JUMPDEST PUSH1 0x0 PUSH1 0x20 DUP3 ADD SWAP1 POP PUSH2 0x304 PUSH1 0x0 DUP4 ADD DUP5 PUSH2 0x2B6 JUMP JUMPDEST SWAP3 SWAP2 POP POP JUMP JUMPDEST PUSH1 0x0 PUSH1 0x20 DUP3 ADD SWAP1 POP PUSH2 0x31F PUSH1 0x0 DUP4 ADD DUP5 PUSH2 0x2C5 JUMP JUMPDEST SWAP3 SWAP2 POP POP JUMP JUMPDEST PUSH1 0x0 PUSH2 0x330 DUP3 PUSH2 0x3B9 JUMP JUMPDEST SWAP2 POP PUSH2 0x33B DUP4 PUSH2 0x3B9 JUMP JUMPDEST SWAP3 POP DUP3 PUSH32 0xFFFFFFFFFFFFFFFFFFFFFFFFFFFFFFFFFFFFFFFFFFFFFFFFFFFFFFFFFFFFFFFF SUB DUP3 GT ISZERO PUSH2 0x370 JUMPI PUSH2 0x36F PUSH2 0x3C3 JUMP JUMPDEST JUMPDEST DUP3 DUP3 ADD SWAP1 POP SWAP3 SWAP2 POP POP JUMP JUMPDEST PUSH1 0x0 PUSH2 0x386 DUP3 PUSH2 0x399 JUMP JUMPDEST SWAP1 POP SWAP2 SWAP1 POP JUMP JUMPDEST PUSH1 0x0 DUP2 ISZERO ISZERO SWAP1 POP SWAP2 SWAP1 POP JUMP JUMPDEST PUSH1 0x0 PUSH20 0xFFFFFFFFFFFFFFFFFFFFFFFFFFFFFFFFFFFFFFFF DUP3 AND SWAP1 POP SWAP2 SWAP1 POP JUMP JUMPDEST PUSH1 0x0 DUP2 SWAP1 POP SWAP2 SWAP1 POP JUMP JUMPDEST PUSH32 0x4E487B7100000000000000000000000000000000000000000000000000000000 PUSH1 0x0 MSTORE PUSH1 0x11 PUSH1 0x4 MSTORE PUSH1 0x24 PUSH1 0x0 REVERT INVALID LOG2 PUSH5 0x6970667358 0x22 SLT KECCAK256 PUSH28 0xFC99E14EBF7D7334E939B18929482A272070BDC25F159141C5C6DE96 0x4B 0x4C 0xB9 PUSH5 0x736F6C6343 STOP ADDMOD SMOD STOP CALLER "
				},
				"gasEstimates": {
					"creation": {
						"codeDepositCost": "212800",
						"executionCost": "46612",
						"totalCost": "259412"
					},
					"external": {
						"becomeRichest()": "infinite",
						"mostSent()": "2451",
						"richest()": "2489",
						"withdraw()": "infinite"
					}
				},
				"methodIdentifiers": {
					"becomeRichest()": "69934ee7",
					"mostSent()": "6886bf1c",
					"richest()": "02e26c38",
					"withdraw()": "3ccfd60b"
				}
			},
			"storageLayout": {
				"storage": [
					{
						"astId": 3,
						"contract": "solidity/Basic/014-WithdrawalPattern/withdrawal_pattern1.sol:WithdrawalPatternTest1",
						"label": "richest",
						"offset": 0,
						"slot": "0",
						"type": "t_address"
					},
					{
						"astId": 5,
						"contract": "solidity/Basic/014-WithdrawalPattern/withdrawal_pattern1.sol:WithdrawalPatternTest1",
						"label": "mostSent",
						"offset": 0,
						"slot": "1",
						"type": "t_uint256"
					},
					{
						"astId": 9,
						"contract": "solidity/Basic/014-WithdrawalPattern/withdrawal_pattern1.sol:WithdrawalPatternTest1",
						"label": "pendingWithdrawals",
						"offset": 0,
						"slot": "2",
						"type": "t_mapping(t_address,t_uint256)"
					}
				],
				"types": {
					"t_address": {
						"encoding": "inplace",
						"label": "address",
						"numberOfBytes": "20"
					},
					"t_mapping(t_address,t_uint256)": {
						"encoding": "mapping",
						"key": "t_address",
						"label": "mapping(address => uint256)",
						"numberOfBytes": "32",
						"value": "t_uint256"
					},
					"t_uint256": {
						"encoding": "inplace",
						"label": "uint256",
						"numberOfBytes": "32"
					}
				}
			},
			"userdoc": {
				"kind": "user",
				"methods": {},
				"version": 1
			}
		}
	}
}