{
	"solidity/Basic/001-Variables/variable_scope.sol": {
		"D": {
			"abi": [
				{
					"inputs": [],
					"name": "data",
					"outputs": [
						{
							"internalType": "uint256",
							"name": "",
							"type": "uint256"
						}
					],
					"stateMutability": "view",
					"type": "function"
				},
				{
					"inputs": [],
					"name": "getResult",
					"outputs": [
						{
							"internalType": "uint256",
							"name": "",
							"type": "uint256"
						}
					],
					"stateMutability": "view",
					"type": "function"
				},
				{
					"inputs": [],
					"name": "x",
					"outputs": [
						{
							"internalType": "uint256",
							"name": "",
							"type": "uint256"
						}
					],
					"stateMutability": "nonpayable",
					"type": "function"
				},
				{
					"inputs": [],
					"name": "y",
					"outputs": [
						{
							"internalType": "uint256",
							"name": "",
							"type": "uint256"
						}
					],
					"stateMutability": "nonpayable",
					"type": "function"
				}
			],
			"devdoc": {
				"kind": "dev",
				"methods": {},
				"version": 1
			},
			"evm": {
				"assembly": "    /* \"solidity/Basic/001-Variables/variable_scope.sol\":350:658  contract D is C {... */\n  mstore(0x40, 0x80)\n    /* \"solidity/Basic/001-Variables/variable_scope.sol\":70:72  30 */\n  0x1e\n    /* \"solidity/Basic/001-Variables/variable_scope.sol\":51:72  uint public data = 30 */\n  0x00\n  sstore\n    /* \"solidity/Basic/001-Variables/variable_scope.sol\":100:102  10 */\n  0x0a\n    /* \"solidity/Basic/001-Variables/variable_scope.sol\":78:102  uint internal iData = 10 */\n  0x01\n  sstore\n    /* \"solidity/Basic/001-Variables/variable_scope.sol\":350:658  contract D is C {... */\n  callvalue\n  dup1\n  iszero\n  tag_1\n  jumpi\n  0x00\n  dup1\n  revert\ntag_1:\n  pop\n  dataSize(sub_0)\n  dup1\n  dataOffset(sub_0)\n  0x00\n  codecopy\n  0x00\n  return\nstop\n\nsub_0: assembly {\n        /* \"solidity/Basic/001-Variables/variable_scope.sol\":350:658  contract D is C {... */\n      mstore(0x40, 0x80)\n      callvalue\n      dup1\n      iszero\n      tag_1\n      jumpi\n      0x00\n      dup1\n      revert\n    tag_1:\n      pop\n      jumpi(tag_2, lt(calldatasize, 0x04))\n      shr(0xe0, calldataload(0x00))\n      dup1\n      0x0c55699c\n      eq\n      tag_3\n      jumpi\n      dup1\n      0x73d4a13a\n      eq\n      tag_4\n      jumpi\n      dup1\n      0xa56dfe4a\n      eq\n      tag_5\n      jumpi\n      dup1\n      0xde292789\n      eq\n      tag_6\n      jumpi\n    tag_2:\n      0x00\n      dup1\n      revert\n        /* \"solidity/Basic/001-Variables/variable_scope.sol\":109:209  function x() public returns (uint) {... */\n    tag_3:\n      tag_7\n      tag_8\n      jump\t// in\n    tag_7:\n      mload(0x40)\n      tag_9\n      swap2\n      swap1\n      tag_10\n      jump\t// in\n    tag_9:\n      mload(0x40)\n      dup1\n      swap2\n      sub\n      swap1\n      return\n        /* \"solidity/Basic/001-Variables/variable_scope.sol\":51:72  uint public data = 30 */\n    tag_4:\n      tag_11\n      tag_12\n      jump\t// in\n    tag_11:\n      mload(0x40)\n      tag_13\n      swap2\n      swap1\n      tag_10\n      jump\t// in\n    tag_13:\n      mload(0x40)\n      dup1\n      swap2\n      sub\n      swap1\n      return\n        /* \"solidity/Basic/001-Variables/variable_scope.sol\":372:474  function y() public returns (uint) {... */\n    tag_5:\n      tag_14\n      tag_15\n      jump\t// in\n    tag_14:\n      mload(0x40)\n      tag_16\n      swap2\n      swap1\n      tag_10\n      jump\t// in\n    tag_16:\n      mload(0x40)\n      dup1\n      swap2\n      sub\n      swap1\n      return\n        /* \"solidity/Basic/001-Variables/variable_scope.sol\":480:656  function getResult() public view returns (uint) {... */\n    tag_6:\n      tag_17\n      tag_18\n      jump\t// in\n    tag_17:\n      mload(0x40)\n      tag_19\n      swap2\n      swap1\n      tag_10\n      jump\t// in\n    tag_19:\n      mload(0x40)\n      dup1\n      swap2\n      sub\n      swap1\n      return\n        /* \"solidity/Basic/001-Variables/variable_scope.sol\":109:209  function x() public returns (uint) {... */\n    tag_8:\n        /* \"solidity/Basic/001-Variables/variable_scope.sol\":138:142  uint */\n      0x00\n        /* \"solidity/Basic/001-Variables/variable_scope.sol\":161:162  3 */\n      0x03\n        /* \"solidity/Basic/001-Variables/variable_scope.sol\":154:158  data */\n      0x00\n        /* \"solidity/Basic/001-Variables/variable_scope.sol\":154:162  data = 3 */\n      dup2\n      swap1\n      sstore\n      pop\n        /* \"solidity/Basic/001-Variables/variable_scope.sol\":198:202  data */\n      sload(0x00)\n        /* \"solidity/Basic/001-Variables/variable_scope.sol\":191:202  return data */\n      swap1\n      pop\n        /* \"solidity/Basic/001-Variables/variable_scope.sol\":109:209  function x() public returns (uint) {... */\n      swap1\n      jump\t// out\n        /* \"solidity/Basic/001-Variables/variable_scope.sol\":51:72  uint public data = 30 */\n    tag_12:\n      sload(0x00)\n      dup2\n      jump\t// out\n        /* \"solidity/Basic/001-Variables/variable_scope.sol\":372:474  function y() public returns (uint) {... */\n    tag_15:\n        /* \"solidity/Basic/001-Variables/variable_scope.sol\":401:405  uint */\n      0x00\n        /* \"solidity/Basic/001-Variables/variable_scope.sol\":425:426  3 */\n      0x03\n        /* \"solidity/Basic/001-Variables/variable_scope.sol\":417:422  iData */\n      0x01\n        /* \"solidity/Basic/001-Variables/variable_scope.sol\":417:426  iData = 3 */\n      dup2\n      swap1\n      sstore\n      pop\n        /* \"solidity/Basic/001-Variables/variable_scope.sol\":462:467  iData */\n      sload(0x01)\n        /* \"solidity/Basic/001-Variables/variable_scope.sol\":455:467  return iData */\n      swap1\n      pop\n        /* \"solidity/Basic/001-Variables/variable_scope.sol\":372:474  function y() public returns (uint) {... */\n      swap1\n      jump\t// out\n        /* \"solidity/Basic/001-Variables/variable_scope.sol\":480:656  function getResult() public view returns (uint) {... */\n    tag_18:\n        /* \"solidity/Basic/001-Variables/variable_scope.sol\":522:526  uint */\n      0x00\n        /* \"solidity/Basic/001-Variables/variable_scope.sol\":538:544  uint a */\n      dup1\n        /* \"solidity/Basic/001-Variables/variable_scope.sol\":547:548  1 */\n      0x01\n        /* \"solidity/Basic/001-Variables/variable_scope.sol\":538:548  uint a = 1 */\n      swap1\n      pop\n        /* \"solidity/Basic/001-Variables/variable_scope.sol\":558:564  uint b */\n      0x00\n        /* \"solidity/Basic/001-Variables/variable_scope.sol\":567:568  2 */\n      0x02\n        /* \"solidity/Basic/001-Variables/variable_scope.sol\":558:568  uint b = 2 */\n      swap1\n      pop\n        /* \"solidity/Basic/001-Variables/variable_scope.sol\":578:589  uint result */\n      0x00\n        /* \"solidity/Basic/001-Variables/variable_scope.sol\":596:597  b */\n      dup2\n        /* \"solidity/Basic/001-Variables/variable_scope.sol\":592:593  a */\n      dup4\n        /* \"solidity/Basic/001-Variables/variable_scope.sol\":592:597  a + b */\n      tag_23\n      swap2\n      swap1\n      tag_24\n      jump\t// in\n    tag_23:\n        /* \"solidity/Basic/001-Variables/variable_scope.sol\":578:597  uint result = a + b */\n      swap1\n      pop\n        /* \"solidity/Basic/001-Variables/variable_scope.sol\":614:620  result */\n      dup1\n        /* \"solidity/Basic/001-Variables/variable_scope.sol\":607:620  return result */\n      swap4\n      pop\n      pop\n      pop\n      pop\n        /* \"solidity/Basic/001-Variables/variable_scope.sol\":480:656  function getResult() public view returns (uint) {... */\n      swap1\n      jump\t// out\n        /* \"#utility.yul\":7:125   */\n    tag_26:\n        /* \"#utility.yul\":94:118   */\n      tag_28\n        /* \"#utility.yul\":112:117   */\n      dup2\n        /* \"#utility.yul\":94:118   */\n      tag_29\n      jump\t// in\n    tag_28:\n        /* \"#utility.yul\":89:92   */\n      dup3\n        /* \"#utility.yul\":82:119   */\n      mstore\n        /* \"#utility.yul\":7:125   */\n      pop\n      pop\n      jump\t// out\n        /* \"#utility.yul\":131:353   */\n    tag_10:\n        /* \"#utility.yul\":224:228   */\n      0x00\n        /* \"#utility.yul\":262:264   */\n      0x20\n        /* \"#utility.yul\":251:260   */\n      dup3\n        /* \"#utility.yul\":247:265   */\n      add\n        /* \"#utility.yul\":239:265   */\n      swap1\n      pop\n        /* \"#utility.yul\":275:346   */\n      tag_31\n        /* \"#utility.yul\":343:344   */\n      0x00\n        /* \"#utility.yul\":332:341   */\n      dup4\n        /* \"#utility.yul\":328:345   */\n      add\n        /* \"#utility.yul\":319:325   */\n      dup5\n        /* \"#utility.yul\":275:346   */\n      tag_26\n      jump\t// in\n    tag_31:\n        /* \"#utility.yul\":131:353   */\n      swap3\n      swap2\n      pop\n      pop\n      jump\t// out\n        /* \"#utility.yul\":359:664   */\n    tag_24:\n        /* \"#utility.yul\":399:402   */\n      0x00\n        /* \"#utility.yul\":418:438   */\n      tag_33\n        /* \"#utility.yul\":436:437   */\n      dup3\n        /* \"#utility.yul\":418:438   */\n      tag_29\n      jump\t// in\n    tag_33:\n        /* \"#utility.yul\":413:438   */\n      swap2\n      pop\n        /* \"#utility.yul\":452:472   */\n      tag_34\n        /* \"#utility.yul\":470:471   */\n      dup4\n        /* \"#utility.yul\":452:472   */\n      tag_29\n      jump\t// in\n    tag_34:\n        /* \"#utility.yul\":447:472   */\n      swap3\n      pop\n        /* \"#utility.yul\":606:607   */\n      dup3\n        /* \"#utility.yul\":538:604   */\n      0xffffffffffffffffffffffffffffffffffffffffffffffffffffffffffffffff\n        /* \"#utility.yul\":534:608   */\n      sub\n        /* \"#utility.yul\":531:532   */\n      dup3\n        /* \"#utility.yul\":528:609   */\n      gt\n        /* \"#utility.yul\":525:632   */\n      iszero\n      tag_35\n      jumpi\n        /* \"#utility.yul\":612:630   */\n      tag_36\n      tag_37\n      jump\t// in\n    tag_36:\n        /* \"#utility.yul\":525:632   */\n    tag_35:\n        /* \"#utility.yul\":656:657   */\n      dup3\n        /* \"#utility.yul\":653:654   */\n      dup3\n        /* \"#utility.yul\":649:658   */\n      add\n        /* \"#utility.yul\":642:658   */\n      swap1\n      pop\n        /* \"#utility.yul\":359:664   */\n      swap3\n      swap2\n      pop\n      pop\n      jump\t// out\n        /* \"#utility.yul\":670:747   */\n    tag_29:\n        /* \"#utility.yul\":707:714   */\n      0x00\n        /* \"#utility.yul\":736:741   */\n      dup2\n        /* \"#utility.yul\":725:741   */\n      swap1\n      pop\n        /* \"#utility.yul\":670:747   */\n      swap2\n      swap1\n      pop\n      jump\t// out\n        /* \"#utility.yul\":753:933   */\n    tag_37:\n        /* \"#utility.yul\":801:878   */\n      0x4e487b7100000000000000000000000000000000000000000000000000000000\n        /* \"#utility.yul\":798:799   */\n      0x00\n        /* \"#utility.yul\":791:879   */\n      mstore\n        /* \"#utility.yul\":898:902   */\n      0x11\n        /* \"#utility.yul\":895:896   */\n      0x04\n        /* \"#utility.yul\":888:903   */\n      mstore\n        /* \"#utility.yul\":922:926   */\n      0x24\n        /* \"#utility.yul\":919:920   */\n      0x00\n        /* \"#utility.yul\":912:927   */\n      revert\n\n    auxdata: 0xa26469706673582212201c58144245934deccb6571b42de1052bdc2d588b6eae8b3c5e7fcc932a09d53464736f6c63430008070033\n}\n",
				"bytecode": {
					"linkReferences": {},
					"object": "6080604052601e600055600a60015534801561001a57600080fd5b506102088061002a6000396000f3fe608060405234801561001057600080fd5b506004361061004c5760003560e01c80630c55699c1461005157806373d4a13a1461006f578063a56dfe4a1461008d578063de292789146100ab575b600080fd5b6100596100c9565b6040516100669190610128565b60405180910390f35b6100776100db565b6040516100849190610128565b60405180910390f35b6100956100e1565b6040516100a29190610128565b60405180910390f35b6100b36100f3565b6040516100c09190610128565b60405180910390f35b60006003600081905550600054905090565b60005481565b60006003600181905550600154905090565b600080600190506000600290506000818361010e9190610143565b905080935050505090565b61012281610199565b82525050565b600060208201905061013d6000830184610119565b92915050565b600061014e82610199565b915061015983610199565b9250827fffffffffffffffffffffffffffffffffffffffffffffffffffffffffffffffff0382111561018e5761018d6101a3565b5b828201905092915050565b6000819050919050565b7f4e487b7100000000000000000000000000000000000000000000000000000000600052601160045260246000fdfea26469706673582212201c58144245934deccb6571b42de1052bdc2d588b6eae8b3c5e7fcc932a09d53464736f6c63430008070033",
					"opcodes": "PUSH1 0x80 PUSH1 0x40 MSTORE PUSH1 0x1E PUSH1 0x0 SSTORE PUSH1 0xA PUSH1 0x1 SSTORE CALLVALUE DUP1 ISZERO PUSH2 0x1A JUMPI PUSH1 0x0 DUP1 REVERT JUMPDEST POP PUSH2 0x208 DUP1 PUSH2 0x2A PUSH1 0x0 CODECOPY PUSH1 0x0 RETURN INVALID PUSH1 0x80 PUSH1 0x40 MSTORE CALLVALUE DUP1 ISZERO PUSH2 0x10 JUMPI PUSH1 0x0 DUP1 REVERT JUMPDEST POP PUSH1 0x4 CALLDATASIZE LT PUSH2 0x4C JUMPI PUSH1 0x0 CALLDATALOAD PUSH1 0xE0 SHR DUP1 PUSH4 0xC55699C EQ PUSH2 0x51 JUMPI DUP1 PUSH4 0x73D4A13A EQ PUSH2 0x6F JUMPI DUP1 PUSH4 0xA56DFE4A EQ PUSH2 0x8D JUMPI DUP1 PUSH4 0xDE292789 EQ PUSH2 0xAB JUMPI JUMPDEST PUSH1 0x0 DUP1 REVERT JUMPDEST PUSH2 0x59 PUSH2 0xC9 JUMP JUMPDEST PUSH1 0x40 MLOAD PUSH2 0x66 SWAP2 SWAP1 PUSH2 0x128 JUMP JUMPDEST PUSH1 0x40 MLOAD DUP1 SWAP2 SUB SWAP1 RETURN JUMPDEST PUSH2 0x77 PUSH2 0xDB JUMP JUMPDEST PUSH1 0x40 MLOAD PUSH2 0x84 SWAP2 SWAP1 PUSH2 0x128 JUMP JUMPDEST PUSH1 0x40 MLOAD DUP1 SWAP2 SUB SWAP1 RETURN JUMPDEST PUSH2 0x95 PUSH2 0xE1 JUMP JUMPDEST PUSH1 0x40 MLOAD PUSH2 0xA2 SWAP2 SWAP1 PUSH2 0x128 JUMP JUMPDEST PUSH1 0x40 MLOAD DUP1 SWAP2 SUB SWAP1 RETURN JUMPDEST PUSH2 0xB3 PUSH2 0xF3 JUMP JUMPDEST PUSH1 0x40 MLOAD PUSH2 0xC0 SWAP2 SWAP1 PUSH2 0x128 JUMP JUMPDEST PUSH1 0x40 MLOAD DUP1 SWAP2 SUB SWAP1 RETURN JUMPDEST PUSH1 0x0 PUSH1 0x3 PUSH1 0x0 DUP2 SWAP1 SSTORE POP PUSH1 0x0 SLOAD SWAP1 POP SWAP1 JUMP JUMPDEST PUSH1 0x0 SLOAD DUP2 JUMP JUMPDEST PUSH1 0x0 PUSH1 0x3 PUSH1 0x1 DUP2 SWAP1 SSTORE POP PUSH1 0x1 SLOAD SWAP1 POP SWAP1 JUMP JUMPDEST PUSH1 0x0 DUP1 PUSH1 0x1 SWAP1 POP PUSH1 0x0 PUSH1 0x2 SWAP1 POP PUSH1 0x0 DUP2 DUP4 PUSH2 0x10E SWAP2 SWAP1 PUSH2 0x143 JUMP JUMPDEST SWAP1 POP DUP1 SWAP4 POP POP POP POP SWAP1 JUMP JUMPDEST PUSH2 0x122 DUP2 PUSH2 0x199 JUMP JUMPDEST DUP3 MSTORE POP POP JUMP JUMPDEST PUSH1 0x0 PUSH1 0x20 DUP3 ADD SWAP1 POP PUSH2 0x13D PUSH1 0x0 DUP4 ADD DUP5 PUSH2 0x119 JUMP JUMPDEST SWAP3 SWAP2 POP POP JUMP JUMPDEST PUSH1 0x0 PUSH2 0x14E DUP3 PUSH2 0x199 JUMP JUMPDEST SWAP2 POP PUSH2 0x159 DUP4 PUSH2 0x199 JUMP JUMPDEST SWAP3 POP DUP3 PUSH32 0xFFFFFFFFFFFFFFFFFFFFFFFFFFFFFFFFFFFFFFFFFFFFFFFFFFFFFFFFFFFFFFFF SUB DUP3 GT ISZERO PUSH2 0x18E JUMPI PUSH2 0x18D PUSH2 0x1A3 JUMP JUMPDEST JUMPDEST DUP3 DUP3 ADD SWAP1 POP SWAP3 SWAP2 POP POP JUMP JUMPDEST PUSH1 0x0 DUP2 SWAP1 POP SWAP2 SWAP1 POP JUMP JUMPDEST PUSH32 0x4E487B7100000000000000000000000000000000000000000000000000000000 PUSH1 0x0 MSTORE PUSH1 0x11 PUSH1 0x4 MSTORE PUSH1 0x24 PUSH1 0x0 REVERT INVALID LOG2 PUSH5 0x6970667358 0x22 SLT KECCAK256 SHR PC EQ TIMESTAMP GASLIMIT SWAP4 0x4D 0xEC 0xCB PUSH6 0x71B42DE1052B 0xDC 0x2D PC DUP12 PUSH15 0xAE8B3C5E7FCC932A09D53464736F6C PUSH4 0x43000807 STOP CALLER "
				},
				"gasEstimates": {
					"creation": {
						"codeDepositCost": "104000",
						"executionCost": "44365",
						"totalCost": "148365"
					},
					"external": {
						"data()": "2429",
						"getResult()": "infinite",
						"x()": "24529",
						"y()": "24573"
					}
				},
				"methodIdentifiers": {
					"data()": "73d4a13a",
					"getResult()": "de292789",
					"x()": "0c55699c",
					"y()": "a56dfe4a"
				}
			},
			"storageLayout": {
				"storage": [
					{
						"astId": 4,
						"contract": "solidity/Basic/001-Variables/variable_scope.sol:D",
						"label": "data",
						"offset": 0,
						"slot": "0",
						"type": "t_uint256"
					},
					{
						"astId": 7,
						"contract": "solidity/Basic/001-Variables/variable_scope.sol:D",
						"label": "iData",
						"offset": 0,
						"slot": "1",
						"type": "t_uint256"
					}
				],
				"types": {
					"t_uint256": {
						"encoding": "inplace",
						"label": "uint256",
						"numberOfBytes": "32"
					}
				}
			},
			"userdoc": {
				"kind": "user",
				"methods": {},
				"version": 1
			}
		}
	}
}