{
	"solidity/Basic/012-MathematiclFunction/mathematical_function.sol": {
		"MathFuctionTest": {
			"abi": [
				{
					"inputs": [],
					"name": "callAddMod",
					"outputs": [
						{
							"internalType": "uint256",
							"name": "",
							"type": "uint256"
						}
					],
					"stateMutability": "pure",
					"type": "function"
				},
				{
					"inputs": [],
					"name": "callMulMod",
					"outputs": [
						{
							"internalType": "uint256",
							"name": "",
							"type": "uint256"
						}
					],
					"stateMutability": "pure",
					"type": "function"
				}
			],
			"devdoc": {
				"kind": "dev",
				"methods": {},
				"version": 1
			},
			"evm": {
				"assembly": "    /* \"solidity/Basic/012-MathematiclFunction/mathematical_function.sol\":34:253  contract MathFuctionTest {... */\n  mstore(0x40, 0x80)\n  callvalue\n  dup1\n  iszero\n  tag_1\n  jumpi\n  0x00\n  dup1\n  revert\ntag_1:\n  pop\n  dataSize(sub_0)\n  dup1\n  dataOffset(sub_0)\n  0x00\n  codecopy\n  0x00\n  return\nstop\n\nsub_0: assembly {\n        /* \"solidity/Basic/012-MathematiclFunction/mathematical_function.sol\":34:253  contract MathFuctionTest {... */\n      mstore(0x40, 0x80)\n      callvalue\n      dup1\n      iszero\n      tag_1\n      jumpi\n      0x00\n      dup1\n      revert\n    tag_1:\n      pop\n      jumpi(tag_2, lt(calldatasize, 0x04))\n      shr(0xe0, calldataload(0x00))\n      dup1\n      0xaa4e8744\n      eq\n      tag_3\n      jumpi\n      dup1\n      0xf9b41691\n      eq\n      tag_4\n      jumpi\n    tag_2:\n      0x00\n      dup1\n      revert\n        /* \"solidity/Basic/012-MathematiclFunction/mathematical_function.sol\":161:251  function callMulMod() public pure returns (uint) {... */\n    tag_3:\n      tag_5\n      tag_6\n      jump\t// in\n    tag_5:\n      mload(0x40)\n      tag_7\n      swap2\n      swap1\n      tag_8\n      jump\t// in\n    tag_7:\n      mload(0x40)\n      dup1\n      swap2\n      sub\n      swap1\n      return\n        /* \"solidity/Basic/012-MathematiclFunction/mathematical_function.sol\":65:155  function callAddMod() public pure returns (uint) {... */\n    tag_4:\n      tag_9\n      tag_10\n      jump\t// in\n    tag_9:\n      mload(0x40)\n      tag_11\n      swap2\n      swap1\n      tag_8\n      jump\t// in\n    tag_11:\n      mload(0x40)\n      dup1\n      swap2\n      sub\n      swap1\n      return\n        /* \"solidity/Basic/012-MathematiclFunction/mathematical_function.sol\":161:251  function callMulMod() public pure returns (uint) {... */\n    tag_6:\n        /* \"solidity/Basic/012-MathematiclFunction/mathematical_function.sol\":204:208  uint */\n      0x00\n        /* \"solidity/Basic/012-MathematiclFunction/mathematical_function.sol\":242:243  3 */\n      0x03\n        /* \"solidity/Basic/012-MathematiclFunction/mathematical_function.sol\":227:244  mulmod(10, 20, 3) */\n      dup1\n      tag_13\n      jumpi\n      tag_14\n      tag_15\n      jump\t// in\n    tag_14:\n    tag_13:\n        /* \"solidity/Basic/012-MathematiclFunction/mathematical_function.sol\":238:240  20 */\n      0x14\n        /* \"solidity/Basic/012-MathematiclFunction/mathematical_function.sol\":234:236  10 */\n      0x0a\n        /* \"solidity/Basic/012-MathematiclFunction/mathematical_function.sol\":227:244  mulmod(10, 20, 3) */\n      mulmod\n        /* \"solidity/Basic/012-MathematiclFunction/mathematical_function.sol\":220:244  return mulmod(10, 20, 3) */\n      swap1\n      pop\n        /* \"solidity/Basic/012-MathematiclFunction/mathematical_function.sol\":161:251  function callMulMod() public pure returns (uint) {... */\n      swap1\n      jump\t// out\n        /* \"solidity/Basic/012-MathematiclFunction/mathematical_function.sol\":65:155  function callAddMod() public pure returns (uint) {... */\n    tag_10:\n        /* \"solidity/Basic/012-MathematiclFunction/mathematical_function.sol\":108:112  uint */\n      0x00\n        /* \"solidity/Basic/012-MathematiclFunction/mathematical_function.sol\":146:147  3 */\n      0x03\n        /* \"solidity/Basic/012-MathematiclFunction/mathematical_function.sol\":131:148  addmod(10, 20, 3) */\n      dup1\n      tag_17\n      jumpi\n      tag_18\n      tag_15\n      jump\t// in\n    tag_18:\n    tag_17:\n        /* \"solidity/Basic/012-MathematiclFunction/mathematical_function.sol\":142:144  20 */\n      0x14\n        /* \"solidity/Basic/012-MathematiclFunction/mathematical_function.sol\":138:140  10 */\n      0x0a\n        /* \"solidity/Basic/012-MathematiclFunction/mathematical_function.sol\":131:148  addmod(10, 20, 3) */\n      addmod\n        /* \"solidity/Basic/012-MathematiclFunction/mathematical_function.sol\":124:148  return addmod(10, 20, 3) */\n      swap1\n      pop\n        /* \"solidity/Basic/012-MathematiclFunction/mathematical_function.sol\":65:155  function callAddMod() public pure returns (uint) {... */\n      swap1\n      jump\t// out\n        /* \"#utility.yul\":7:125   */\n    tag_20:\n        /* \"#utility.yul\":94:118   */\n      tag_22\n        /* \"#utility.yul\":112:117   */\n      dup2\n        /* \"#utility.yul\":94:118   */\n      tag_23\n      jump\t// in\n    tag_22:\n        /* \"#utility.yul\":89:92   */\n      dup3\n        /* \"#utility.yul\":82:119   */\n      mstore\n        /* \"#utility.yul\":7:125   */\n      pop\n      pop\n      jump\t// out\n        /* \"#utility.yul\":131:353   */\n    tag_8:\n        /* \"#utility.yul\":224:228   */\n      0x00\n        /* \"#utility.yul\":262:264   */\n      0x20\n        /* \"#utility.yul\":251:260   */\n      dup3\n        /* \"#utility.yul\":247:265   */\n      add\n        /* \"#utility.yul\":239:265   */\n      swap1\n      pop\n        /* \"#utility.yul\":275:346   */\n      tag_25\n        /* \"#utility.yul\":343:344   */\n      0x00\n        /* \"#utility.yul\":332:341   */\n      dup4\n        /* \"#utility.yul\":328:345   */\n      add\n        /* \"#utility.yul\":319:325   */\n      dup5\n        /* \"#utility.yul\":275:346   */\n      tag_20\n      jump\t// in\n    tag_25:\n        /* \"#utility.yul\":131:353   */\n      swap3\n      swap2\n      pop\n      pop\n      jump\t// out\n        /* \"#utility.yul\":359:436   */\n    tag_23:\n        /* \"#utility.yul\":396:403   */\n      0x00\n        /* \"#utility.yul\":425:430   */\n      dup2\n        /* \"#utility.yul\":414:430   */\n      swap1\n      pop\n        /* \"#utility.yul\":359:436   */\n      swap2\n      swap1\n      pop\n      jump\t// out\n        /* \"#utility.yul\":442:622   */\n    tag_15:\n        /* \"#utility.yul\":490:567   */\n      0x4e487b7100000000000000000000000000000000000000000000000000000000\n        /* \"#utility.yul\":487:488   */\n      0x00\n        /* \"#utility.yul\":480:568   */\n      mstore\n        /* \"#utility.yul\":587:591   */\n      0x12\n        /* \"#utility.yul\":584:585   */\n      0x04\n        /* \"#utility.yul\":577:592   */\n      mstore\n        /* \"#utility.yul\":611:615   */\n      0x24\n        /* \"#utility.yul\":608:609   */\n      0x00\n        /* \"#utility.yul\":601:616   */\n      revert\n\n    auxdata: 0xa2646970667358221220853ff64792b03350e47042be94d1de9f5cfc3c10f2a1c265a325f84a3872cac164736f6c63430008070033\n}\n",
				"bytecode": {
					"linkReferences": {},
					"object": "608060405234801561001057600080fd5b50610132806100206000396000f3fe6080604052348015600f57600080fd5b506004361060325760003560e01c8063aa4e8744146037578063f9b41691146051575b600080fd5b603d606b565b6040516048919060aa565b60405180910390f35b60576084565b6040516062919060aa565b60405180910390f35b6000600380607a57607960cd565b5b6014600a09905090565b6000600380609357609260cd565b5b6014600a08905090565b60a48160c3565b82525050565b600060208201905060bd6000830184609d565b92915050565b6000819050919050565b7f4e487b7100000000000000000000000000000000000000000000000000000000600052601260045260246000fdfea2646970667358221220853ff64792b03350e47042be94d1de9f5cfc3c10f2a1c265a325f84a3872cac164736f6c63430008070033",
					"opcodes": "PUSH1 0x80 PUSH1 0x40 MSTORE CALLVALUE DUP1 ISZERO PUSH2 0x10 JUMPI PUSH1 0x0 DUP1 REVERT JUMPDEST POP PUSH2 0x132 DUP1 PUSH2 0x20 PUSH1 0x0 CODECOPY PUSH1 0x0 RETURN INVALID PUSH1 0x80 PUSH1 0x40 MSTORE CALLVALUE DUP1 ISZERO PUSH1 0xF JUMPI PUSH1 0x0 DUP1 REVERT JUMPDEST POP PUSH1 0x4 CALLDATASIZE LT PUSH1 0x32 JUMPI PUSH1 0x0 CALLDATALOAD PUSH1 0xE0 SHR DUP1 PUSH4 0xAA4E8744 EQ PUSH1 0x37 JUMPI DUP1 PUSH4 0xF9B41691 EQ PUSH1 0x51 JUMPI JUMPDEST PUSH1 0x0 DUP1 REVERT JUMPDEST PUSH1 0x3D PUSH1 0x6B JUMP JUMPDEST PUSH1 0x40 MLOAD PUSH1 0x48 SWAP2 SWAP1 PUSH1 0xAA JUMP JUMPDEST PUSH1 0x40 MLOAD DUP1 SWAP2 SUB SWAP1 RETURN JUMPDEST PUSH1 0x57 PUSH1 0x84 JUMP JUMPDEST PUSH1 0x40 MLOAD PUSH1 0x62 SWAP2 SWAP1 PUSH1 0xAA JUMP JUMPDEST PUSH1 0x40 MLOAD DUP1 SWAP2 SUB SWAP1 RETURN JUMPDEST PUSH1 0x0 PUSH1 0x3 DUP1 PUSH1 0x7A JUMPI PUSH1 0x79 PUSH1 0xCD JUMP JUMPDEST JUMPDEST PUSH1 0x14 PUSH1 0xA MULMOD SWAP1 POP SWAP1 JUMP JUMPDEST PUSH1 0x0 PUSH1 0x3 DUP1 PUSH1 0x93 JUMPI PUSH1 0x92 PUSH1 0xCD JUMP JUMPDEST JUMPDEST PUSH1 0x14 PUSH1 0xA ADDMOD SWAP1 POP SWAP1 JUMP JUMPDEST PUSH1 0xA4 DUP2 PUSH1 0xC3 JUMP JUMPDEST DUP3 MSTORE POP POP JUMP JUMPDEST PUSH1 0x0 PUSH1 0x20 DUP3 ADD SWAP1 POP PUSH1 0xBD PUSH1 0x0 DUP4 ADD DUP5 PUSH1 0x9D JUMP JUMPDEST SWAP3 SWAP2 POP POP JUMP JUMPDEST PUSH1 0x0 DUP2 SWAP1 POP SWAP2 SWAP1 POP JUMP JUMPDEST PUSH32 0x4E487B7100000000000000000000000000000000000000000000000000000000 PUSH1 0x0 MSTORE PUSH1 0x12 PUSH1 0x4 MSTORE PUSH1 0x24 PUSH1 0x0 REVERT INVALID LOG2 PUSH5 0x6970667358 0x22 SLT KECCAK256 DUP6 EXTCODEHASH 0xF6 SELFBALANCE SWAP3 0xB0 CALLER POP 0xE4 PUSH17 0x42BE94D1DE9F5CFC3C10F2A1C265A325F8 0x4A CODESIZE PUSH19 0xCAC164736F6C63430008070033000000000000 "
				},
				"gasEstimates": {
					"creation": {
						"codeDepositCost": "61200",
						"executionCost": "111",
						"totalCost": "61311"
					},
					"external": {
						"callAddMod()": "368",
						"callMulMod()": "346"
					}
				},
				"methodIdentifiers": {
					"callAddMod()": "f9b41691",
					"callMulMod()": "aa4e8744"
				}
			},
			"storageLayout": {
				"storage": [],
				"types": null
			},
			"userdoc": {
				"kind": "user",
				"methods": {},
				"version": 1
			}
		}
	}
}